{"abi":[{"type":"function","name":"campaigns","inputs":[{"name":"","type":"uint256","internalType":"uint256"}],"outputs":[{"name":"campaignAddress","type":"address","internalType":"address"},{"name":"owner","type":"address","internalType":"address"},{"name":"name","type":"string","internalType":"string"}],"stateMutability":"view"}],"bytecode":{"object":"0x6080604052348015600e575f5ffd5b506103378061001c5f395ff3fe608060405234801561000f575f5ffd5b5060043610610029575f3560e01c8063141961bc1461002d575b5f5ffd5b6100476004803603810190610042919061018e565b61005f565b60405161005693929190610268565b60405180910390f35b5f818154811061006d575f80fd5b905f5260205f2090600302015f91509050805f015f9054906101000a900473ffffffffffffffffffffffffffffffffffffffff1690806001015f9054906101000a900473ffffffffffffffffffffffffffffffffffffffff16908060020180546100d6906102d1565b80601f0160208091040260200160405190810160405280929190818152602001828054610102906102d1565b801561014d5780601f106101245761010080835404028352916020019161014d565b820191905f5260205f20905b81548152906001019060200180831161013057829003601f168201915b5050505050905083565b5f5ffd5b5f819050919050565b61016d8161015b565b8114610177575f5ffd5b50565b5f8135905061018881610164565b92915050565b5f602082840312156101a3576101a2610157565b5b5f6101b08482850161017a565b91505092915050565b5f73ffffffffffffffffffffffffffffffffffffffff82169050919050565b5f6101e2826101b9565b9050919050565b6101f2816101d8565b82525050565b5f81519050919050565b5f82825260208201905092915050565b8281835e5f83830152505050565b5f601f19601f8301169050919050565b5f61023a826101f8565b6102448185610202565b9350610254818560208601610212565b61025d81610220565b840191505092915050565b5f60608201905061027b5f8301866101e9565b61028860208301856101e9565b818103604083015261029a8184610230565b9050949350505050565b7f4e487b71000000000000000000000000000000000000000000000000000000005f52602260045260245ffd5b5f60028204905060018216806102e857607f821691505b6020821081036102fb576102fa6102a4565b5b5091905056fea2646970667358221220a83c54ae25cc81201ff314ad418a474530c215251858d9343b0019b192f9ca6264736f6c634300081e0033","linkReferences":{}},"methodIdentifiers":{"campaigns(uint256)":"141961bc"},"id":28}