{"abi":[{"type":"constructor","inputs":[{"name":"_campaignImplementation","type":"address","internalType":"address"},{"name":"_admin","type":"address","internalType":"address"}],"stateMutability":"nonpayable"},{"type":"function","name":"admin","inputs":[],"outputs":[{"name":"","type":"address","internalType":"address"}],"stateMutability":"view"},{"type":"function","name":"campaignImplementation","inputs":[],"outputs":[{"name":"","type":"address","internalType":"address"}],"stateMutability":"view"},{"type":"function","name":"campaigns","inputs":[{"name":"","type":"uint256","internalType":"uint256"}],"outputs":[{"name":"campaignAddress","type":"address","internalType":"address"},{"name":"treasuryAddress","type":"address","internalType":"address"},{"name":"owner","type":"address","internalType":"address"},{"name":"name","type":"string","internalType":"string"}],"stateMutability":"view"},{"type":"function","name":"createCampaign","inputs":[{"name":"creator","type":"address","internalType":"address"},{"name":"fundingGoal","type":"uint256","internalType":"uint256"},{"name":"duration","type":"uint256","internalType":"uint256"},{"name":"signers","type":"address[]","internalType":"address[]"},{"name":"threshold","type":"uint256","internalType":"uint256"},{"name":"rewardToken","type":"address","internalType":"address"},{"name":"name","type":"string","internalType":"string"}],"outputs":[],"stateMutability":"nonpayable"},{"type":"function","name":"upgradeCampaign","inputs":[{"name":"campaignIndex","type":"uint256","internalType":"uint256"},{"name":"newImplementation","type":"address","internalType":"address"}],"outputs":[],"stateMutability":"nonpayable"}],"bytecode":{"object":"0x608060405234801561000f575f80fd5b5060405161539538038061539583398181016040528101906100319190610115565b815f806101000a81548173ffffffffffffffffffffffffffffffffffffffff021916908373ffffffffffffffffffffffffffffffffffffffff1602179055508060015f6101000a81548173ffffffffffffffffffffffffffffffffffffffff021916908373ffffffffffffffffffffffffffffffffffffffff1602179055505050610153565b5f80fd5b5f73ffffffffffffffffffffffffffffffffffffffff82169050919050565b5f6100e4826100bb565b9050919050565b6100f4816100da565b81146100fe575f80fd5b50565b5f8151905061010f816100eb565b92915050565b5f806040838503121561012b5761012a6100b7565b5b5f61013885828601610101565b925050602061014985828601610101565b9150509250929050565b615235806101605f395ff3fe608060405234801561000f575f80fd5b5060043610610055575f3560e01c8063141961bc146100595780631acc25fc1461008c57806362a6e065146100a85780636a241089146100c6578063f851a440146100e2575b5f80fd5b610073600480360381019061006e919061075b565b610100565b6040516100839493929190610835565b60405180910390f35b6100a660048036038101906100a19190610a32565b61021e565b005b6100b061052f565b6040516100bd9190610b0b565b60405180910390f35b6100e060048036038101906100db9190610b24565b610552565b005b6100ea6106d8565b6040516100f79190610b0b565b60405180910390f35b6002818154811061010f575f80fd5b905f5260205f2090600402015f91509050805f015f9054906101000a900473ffffffffffffffffffffffffffffffffffffffff1690806001015f9054906101000a900473ffffffffffffffffffffffffffffffffffffffff1690806002015f9054906101000a900473ffffffffffffffffffffffffffffffffffffffff169080600301805461019d90610b8f565b80601f01602080910402602001604051908101604052809291908181526020018280546101c990610b8f565b80156102145780601f106101eb57610100808354040283529160200191610214565b820191905f5260205f20905b8154815290600101906020018083116101f757829003601f168201915b5050505050905084565b5f60405161022b906106fd565b604051809103905ff080158015610244573d5f803e3d5ffd5b5090505f638163ac5560e01b8a8a8a85888860405160240161026b96959493929190610bce565b604051602081830303815290604052907bffffffffffffffffffffffffffffffffffffffffffffffffffffffff19166020820180517bffffffffffffffffffffffffffffffffffffffffffffffffffffffff838183161783525050505090505f805f9054906101000a900473ffffffffffffffffffffffffffffffffffffffff1660015f9054906101000a900473ffffffffffffffffffffffffffffffffffffffff168360405161031b9061070a565b61032793929190610c86565b604051809103905ff080158015610340573d5f803e3d5ffd5b5090508273ffffffffffffffffffffffffffffffffffffffff166372483bf9898989856040518563ffffffff1660e01b81526004016103829493929190610d7e565b5f604051808303815f87803b158015610399575f80fd5b505af11580156103ab573d5f803e3d5ffd5b50505050600260405180608001604052808373ffffffffffffffffffffffffffffffffffffffff1681526020018573ffffffffffffffffffffffffffffffffffffffff1681526020018d73ffffffffffffffffffffffffffffffffffffffff16815260200186815250908060018154018082558091505060019003905f5260205f2090600402015f909190919091505f820151815f015f6101000a81548173ffffffffffffffffffffffffffffffffffffffff021916908373ffffffffffffffffffffffffffffffffffffffff1602179055506020820151816001015f6101000a81548173ffffffffffffffffffffffffffffffffffffffff021916908373ffffffffffffffffffffffffffffffffffffffff1602179055506040820151816002015f6101000a81548173ffffffffffffffffffffffffffffffffffffffff021916908373ffffffffffffffffffffffffffffffffffffffff160217905550606082015181600301908161051f9190610f59565b5050505050505050505050505050565b5f8054906101000a900473ffffffffffffffffffffffffffffffffffffffff1681565b60015f9054906101000a900473ffffffffffffffffffffffffffffffffffffffff1673ffffffffffffffffffffffffffffffffffffffff163373ffffffffffffffffffffffffffffffffffffffff16146105e1576040517f08c379a00000000000000000000000000000000000000000000000000000000081526004016105d890611072565b60405180910390fd5b6002805490508210610628576040517f08c379a000000000000000000000000000000000000000000000000000000000815260040161061f906110da565b60405180910390fd5b5f6002838154811061063d5761063c6110f8565b5b905f5260205f2090600402019050805f015f9054906101000a900473ffffffffffffffffffffffffffffffffffffffff1673ffffffffffffffffffffffffffffffffffffffff16634f1ef286836040518263ffffffff1660e01b81526004016106a69190611148565b5f604051808303815f87803b1580156106bd575f80fd5b505af11580156106cf573d5f803e3d5ffd5b50505050505050565b60015f9054906101000a900473ffffffffffffffffffffffffffffffffffffffff1681565b6127a18061117583390190565b6118ea8061391683390190565b5f604051905090565b5f80fd5b5f80fd5b5f819050919050565b61073a81610728565b8114610744575f80fd5b50565b5f8135905061075581610731565b92915050565b5f602082840312156107705761076f610720565b5b5f61077d84828501610747565b91505092915050565b5f73ffffffffffffffffffffffffffffffffffffffff82169050919050565b5f6107af82610786565b9050919050565b6107bf816107a5565b82525050565b5f81519050919050565b5f82825260208201905092915050565b8281835e5f83830152505050565b5f601f19601f8301169050919050565b5f610807826107c5565b61081181856107cf565b93506108218185602086016107df565b61082a816107ed565b840191505092915050565b5f6080820190506108485f8301876107b6565b61085560208301866107b6565b61086260408301856107b6565b818103606083015261087481846107fd565b905095945050505050565b610888816107a5565b8114610892575f80fd5b50565b5f813590506108a38161087f565b92915050565b5f80fd5b5f80fd5b5f80fd5b5f8083601f8401126108ca576108c96108a9565b5b8235905067ffffffffffffffff8111156108e7576108e66108ad565b5b602083019150836020820283011115610903576109026108b1565b5b9250929050565b5f80fd5b7f4e487b71000000000000000000000000000000000000000000000000000000005f52604160045260245ffd5b610944826107ed565b810181811067ffffffffffffffff821117156109635761096261090e565b5b80604052505050565b5f610975610717565b9050610981828261093b565b919050565b5f67ffffffffffffffff8211156109a05761099f61090e565b5b6109a9826107ed565b9050602081019050919050565b828183375f83830152505050565b5f6109d66109d184610986565b61096c565b9050828152602081018484840111156109f2576109f161090a565b5b6109fd8482856109b6565b509392505050565b5f82601f830112610a1957610a186108a9565b5b8135610a298482602086016109c4565b91505092915050565b5f805f805f805f8060e0898b031215610a4e57610a4d610720565b5b5f610a5b8b828c01610895565b9850506020610a6c8b828c01610747565b9750506040610a7d8b828c01610747565b965050606089013567ffffffffffffffff811115610a9e57610a9d610724565b5b610aaa8b828c016108b5565b95509550506080610abd8b828c01610747565b93505060a0610ace8b828c01610895565b92505060c089013567ffffffffffffffff811115610aef57610aee610724565b5b610afb8b828c01610a05565b9150509295985092959890939650565b5f602082019050610b1e5f8301846107b6565b92915050565b5f8060408385031215610b3a57610b39610720565b5b5f610b4785828601610747565b9250506020610b5885828601610895565b9150509250929050565b7f4e487b71000000000000000000000000000000000000000000000000000000005f52602260045260245ffd5b5f6002820490506001821680610ba657607f821691505b602082108103610bb957610bb8610b62565b5b50919050565b610bc881610728565b82525050565b5f60c082019050610be15f8301896107b6565b610bee6020830188610bbf565b610bfb6040830187610bbf565b610c0860608301866107b6565b610c1560808301856107b6565b81810360a0830152610c2781846107fd565b9050979650505050505050565b5f81519050919050565b5f82825260208201905092915050565b5f610c5882610c34565b610c628185610c3e565b9350610c728185602086016107df565b610c7b816107ed565b840191505092915050565b5f606082019050610c995f8301866107b6565b610ca660208301856107b6565b8181036040830152610cb88184610c4e565b9050949350505050565b5f82825260208201905092915050565b5f819050919050565b610ce4816107a5565b82525050565b5f610cf58383610cdb565b60208301905092915050565b5f610d0f6020840184610895565b905092915050565b5f602082019050919050565b5f610d2e8385610cc2565b9350610d3982610cd2565b805f5b85811015610d7157610d4e8284610d01565b610d588882610cea565b9750610d6383610d17565b925050600181019050610d3c565b5085925050509392505050565b5f6060820190508181035f830152610d97818688610d23565b9050610da66020830185610bbf565b610db360408301846107b6565b95945050505050565b5f819050815f5260205f209050919050565b5f6020601f8301049050919050565b5f82821b905092915050565b5f60088302610e187fffffffffffffffffffffffffffffffffffffffffffffffffffffffffffffffff82610ddd565b610e228683610ddd565b95508019841693508086168417925050509392505050565b5f819050919050565b5f610e5d610e58610e5384610728565b610e3a565b610728565b9050919050565b5f819050919050565b610e7683610e43565b610e8a610e8282610e64565b848454610de9565b825550505050565b5f90565b610e9e610e92565b610ea9818484610e6d565b505050565b5b81811015610ecc57610ec15f82610e96565b600181019050610eaf565b5050565b601f821115610f1157610ee281610dbc565b610eeb84610dce565b81016020851015610efa578190505b610f0e610f0685610dce565b830182610eae565b50505b505050565b5f82821c905092915050565b5f610f315f1984600802610f16565b1980831691505092915050565b5f610f498383610f22565b9150826002028217905092915050565b610f62826107c5565b67ffffffffffffffff811115610f7b57610f7a61090e565b5b610f858254610b8f565b610f90828285610ed0565b5f60209050601f831160018114610fc1575f8415610faf578287015190505b610fb98582610f3e565b865550611020565b601f198416610fcf86610dbc565b5f5b82811015610ff657848901518255600182019150602085019450602081019050610fd1565b86831015611013578489015161100f601f891682610f22565b8355505b6001600288020188555050505b505050505050565b7f4f6e6c792061646d696e000000000000000000000000000000000000000000005f82015250565b5f61105c600a836107cf565b915061106782611028565b602082019050919050565b5f6020820190508181035f83015261108981611050565b9050919050565b7f496e76616c69642063616d706169676e20696e646578000000000000000000005f82015250565b5f6110c46016836107cf565b91506110cf82611090565b602082019050919050565b5f6020820190508181035f8301526110f1816110b8565b9050919050565b7f4e487b71000000000000000000000000000000000000000000000000000000005f52603260045260245ffd5b50565b5f6111335f83610c3e565b915061113e82611125565b5f82019050919050565b5f60408201905061115b5f8301846107b6565b818103602083015261116c81611128565b90509291505056fe6080604052348015600e575f80fd5b506127858061001c5f395ff3fe6080604052600436106100f6575f3560e01c80637df73e2711610089578063ab2850da11610058578063ab2850da146103a3578063b1e130fc146103df578063d0e30db014610407578063ee22610b146104115761014b565b80637df73e27146102d3578063811e539c1461030f57806394cf795e146103395780639ace38c2146103635761014b565b8063410085df116100c5578063410085df1461021d57806342cde4e8146102455780635e90852d1461026f57806372483bf9146102ab5761014b565b80632079fb9a1461014f578063242232d11461018b5780632e7700f0146101b357806333ea3dc8146101dd5761014b565b3661014b573373ffffffffffffffffffffffffffffffffffffffff167f2da466a7b24304f47e87fa2e1e5a81b9831ce54fec19055ce277ca2f39ba42c434604051610141919061162a565b60405180910390a2005b5f80fd5b34801561015a575f80fd5b5061017560048036038101906101709190611675565b610439565b60405161018291906116df565b60405180910390f35b348015610196575f80fd5b506101b160048036038101906101ac9190611675565b610474565b005b3480156101be575f80fd5b506101c761060e565b6040516101d4919061162a565b60405180910390f35b3480156101e8575f80fd5b5061020360048036038101906101fe9190611675565b61061a565b604051610214959493929190611782565b60405180910390f35b348015610228575f80fd5b50610243600480360381019061023e9190611804565b610723565b005b348015610250575f80fd5b506102596108a0565b604051610266919061162a565b60405180910390f35b34801561027a575f80fd5b50610295600480360381019061029091906118a3565b6108a6565b6040516102a2919061162a565b60405180910390f35b3480156102b6575f80fd5b506102d160048036038101906102cc9190611969565b610aff565b005b3480156102de575f80fd5b506102f960048036038101906102f491906119da565b610eac565b6040516103069190611a05565b60405180910390f35b34801561031a575f80fd5b50610323610ec9565b60405161033091906116df565b60405180910390f35b348015610344575f80fd5b5061034d610eec565b60405161035a9190611ad5565b60405180910390f35b34801561036e575f80fd5b5061038960048036038101906103849190611675565b610f77565b60405161039a959493929190611782565b60405180910390f35b3480156103ae575f80fd5b506103c960048036038101906103c49190611af5565b611069565b6040516103d69190611a05565b60405180910390f35b3480156103ea575f80fd5b5061040560048036038101906104009190611675565b611093565b005b61040f61122b565b005b34801561041c575f80fd5b5061043760048036038101906104329190611675565b611308565b005b60018181548110610448575f80fd5b905f5260205f20015f915054906101000a900473ffffffffffffffffffffffffffffffffffffffff1681565b61047c6114ca565b8061048681611555565b816104908161159f565b60055f8481526020019081526020015f205f3373ffffffffffffffffffffffffffffffffffffffff1673ffffffffffffffffffffffffffffffffffffffff1681526020019081526020015f205f9054906101000a900460ff1615610529576040517f08c379a000000000000000000000000000000000000000000000000000000000815260040161052090611b8d565b60405180910390fd5b600160055f8581526020019081526020015f205f3373ffffffffffffffffffffffffffffffffffffffff1673ffffffffffffffffffffffffffffffffffffffff1681526020019081526020015f205f6101000a81548160ff021916908315150217905550600483815481106105a1576105a0611bab565b5b905f5260205f2090600502016004015f8154809291906105c090611c05565b91905055503373ffffffffffffffffffffffffffffffffffffffff16837f924813d717e221b5f46dcd8a56da1679e4612584ab3237d55e5faabf6f6a307960405160405180910390a3505050565b5f600480549050905090565b5f8060605f805f6004878154811061063557610634611bab565b5b905f5260205f2090600502019050805f015f9054906101000a900473ffffffffffffffffffffffffffffffffffffffff16816001015482600201836003015f9054906101000a900460ff16846004015482805461069190611c79565b80601f01602080910402602001604051908101604052809291908181526020018280546106bd90611c79565b80156107085780601f106106df57610100808354040283529160200191610708565b820191905f5260205f20905b8154815290600101906020018083116106eb57829003601f168201915b50505050509250955095509550955095505091939590929450565b5f8054906101000a900473ffffffffffffffffffffffffffffffffffffffff1673ffffffffffffffffffffffffffffffffffffffff163373ffffffffffffffffffffffffffffffffffffffff16146107b0576040517f08c379a00000000000000000000000000000000000000000000000000000000081526004016107a790611cf3565b60405180910390fd5b478111156107f3576040517f08c379a00000000000000000000000000000000000000000000000000000000081526004016107ea90611d5b565b60405180910390fd5b5f8273ffffffffffffffffffffffffffffffffffffffff168260405161081890611da6565b5f6040518083038185875af1925050503d805f8114610852576040519150601f19603f3d011682016040523d82523d5f602084013e610857565b606091505b505090508061089b576040517f08c379a000000000000000000000000000000000000000000000000000000000815260040161089290611e04565b60405180910390fd5b505050565b60035481565b5f6108af6114ca565b5f73ffffffffffffffffffffffffffffffffffffffff168573ffffffffffffffffffffffffffffffffffffffff160361091d576040517f08c379a000000000000000000000000000000000000000000000000000000000815260040161091490611e6c565b60405180910390fd5b47841115610960576040517f08c379a000000000000000000000000000000000000000000000000000000000815260040161095790611d5b565b60405180910390fd5b5f600480549050905060046040518060a001604052808873ffffffffffffffffffffffffffffffffffffffff16815260200187815260200186868080601f0160208091040260200160405190810160405280939291908181526020018383808284375f81840152601f19601f8201169050808301925050505050505081526020015f151581526020015f815250908060018154018082558091505060019003905f5260205f2090600502015f909190919091505f820151815f015f6101000a81548173ffffffffffffffffffffffffffffffffffffffff021916908373ffffffffffffffffffffffffffffffffffffffff160217905550602082015181600101556040820151816002019081610a769190612054565b506060820151816003015f6101000a81548160ff0219169083151502179055506080820151816004015550503373ffffffffffffffffffffffffffffffffffffffff16817f08754d66a328b07857be590cc17e0bb798e0ec9cb30ac8e5af7afd3481d1c6bd8888604051610aeb929190612123565b60405180910390a380915050949350505050565b60065f9054906101000a900460ff1615610b4e576040517f08c379a0000000000000000000000000000000000000000000000000000000008152600401610b4590612194565b60405180910390fd5b5f8484905011610b93576040517f08c379a0000000000000000000000000000000000000000000000000000000008152600401610b8a906121fc565b60405180910390fd5b5f82118015610ba55750838390508211155b610be4576040517f08c379a0000000000000000000000000000000000000000000000000000000008152600401610bdb90612264565b60405180910390fd5b5f73ffffffffffffffffffffffffffffffffffffffff168173ffffffffffffffffffffffffffffffffffffffff1603610c52576040517f08c379a0000000000000000000000000000000000000000000000000000000008152600401610c49906122cc565b60405180910390fd5b5f5b84849050811015610e45575f858583818110610c7357610c72611bab565b5b9050602002016020810190610c8891906119da565b90505f73ffffffffffffffffffffffffffffffffffffffff168173ffffffffffffffffffffffffffffffffffffffff1603610cf8576040517f08c379a0000000000000000000000000000000000000000000000000000000008152600401610cef90612334565b60405180910390fd5b60025f8273ffffffffffffffffffffffffffffffffffffffff1673ffffffffffffffffffffffffffffffffffffffff1681526020019081526020015f205f9054906101000a900460ff1615610d82576040517f08c379a0000000000000000000000000000000000000000000000000000000008152600401610d799061239c565b60405180910390fd5b600181908060018154018082558091505060019003905f5260205f20015f9091909190916101000a81548173ffffffffffffffffffffffffffffffffffffffff021916908373ffffffffffffffffffffffffffffffffffffffff160217905550600160025f8373ffffffffffffffffffffffffffffffffffffffff1673ffffffffffffffffffffffffffffffffffffffff1681526020019081526020015f205f6101000a81548160ff021916908315150217905550508080600101915050610c54565b5081600381905550805f806101000a81548173ffffffffffffffffffffffffffffffffffffffff021916908373ffffffffffffffffffffffffffffffffffffffff160217905550600160065f6101000a81548160ff02191690831515021790555050505050565b6002602052805f5260405f205f915054906101000a900460ff1681565b5f8054906101000a900473ffffffffffffffffffffffffffffffffffffffff1681565b60606001805480602002602001604051908101604052809291908181526020018280548015610f6d57602002820191905f5260205f20905b815f9054906101000a900473ffffffffffffffffffffffffffffffffffffffff1673ffffffffffffffffffffffffffffffffffffffff1681526020019060010190808311610f24575b5050505050905090565b60048181548110610f86575f80fd5b905f5260205f2090600502015f91509050805f015f9054906101000a900473ffffffffffffffffffffffffffffffffffffffff1690806001015490806002018054610fd090611c79565b80601f0160208091040260200160405190810160405280929190818152602001828054610ffc90611c79565b80156110475780601f1061101e57610100808354040283529160200191611047565b820191905f5260205f20905b81548152906001019060200180831161102a57829003601f168201915b505050505090806003015f9054906101000a900460ff16908060040154905085565b6005602052815f5260405f20602052805f5260405f205f915091509054906101000a900460ff1681565b61109b6114ca565b806110a581611555565b816110af8161159f565b60055f8481526020019081526020015f205f3373ffffffffffffffffffffffffffffffffffffffff1673ffffffffffffffffffffffffffffffffffffffff1681526020019081526020015f205f9054906101000a900460ff16611147576040517f08c379a000000000000000000000000000000000000000000000000000000000815260040161113e90612404565b60405180910390fd5b5f60055f8581526020019081526020015f205f3373ffffffffffffffffffffffffffffffffffffffff1673ffffffffffffffffffffffffffffffffffffffff1681526020019081526020015f205f6101000a81548160ff021916908315150217905550600483815481106111be576111bd611bab565b5b905f5260205f2090600502016004015f8154809291906111dd90612422565b91905055503373ffffffffffffffffffffffffffffffffffffffff16837f4cd471041f6b9ff47536a54a3d3ab62d0fa9dd5e36c0418b294b1673acb3188160405160405180910390a3505050565b5f8054906101000a900473ffffffffffffffffffffffffffffffffffffffff1673ffffffffffffffffffffffffffffffffffffffff163373ffffffffffffffffffffffffffffffffffffffff16146112b8576040517f08c379a00000000000000000000000000000000000000000000000000000000081526004016112af90612493565b60405180910390fd5b3373ffffffffffffffffffffffffffffffffffffffff167f2da466a7b24304f47e87fa2e1e5a81b9831ce54fec19055ce277ca2f39ba42c4346040516112fe919061162a565b60405180910390a2565b6113106114ca565b8061131a81611555565b816113248161159f565b5f6004848154811061133957611338611bab565b5b905f5260205f209060050201905060035481600401541015611390576040517f08c379a0000000000000000000000000000000000000000000000000000000008152600401611387906124fb565b60405180910390fd5b6001816003015f6101000a81548160ff0219169083151502179055505f815f015f9054906101000a900473ffffffffffffffffffffffffffffffffffffffff1673ffffffffffffffffffffffffffffffffffffffff168260010154836002016040516113fc9190612599565b5f6040518083038185875af1925050503d805f8114611436576040519150601f19603f3d011682016040523d82523d5f602084013e61143b565b606091505b505090508061147f576040517f08c379a0000000000000000000000000000000000000000000000000000000008152600401611476906125f9565b60405180910390fd5b3373ffffffffffffffffffffffffffffffffffffffff16857fefc13bdcf58f184ea7cae26b499fb33b539e01d0197cea456f3ada289b8cf19b60405160405180910390a35050505050565b60025f3373ffffffffffffffffffffffffffffffffffffffff1673ffffffffffffffffffffffffffffffffffffffff1681526020019081526020015f205f9054906101000a900460ff16611553576040517f08c379a000000000000000000000000000000000000000000000000000000000815260040161154a90612661565b60405180910390fd5b565b600480549050811061159c576040517f08c379a0000000000000000000000000000000000000000000000000000000008152600401611593906126c9565b60405180910390fd5b50565b600481815481106115b3576115b2611bab565b5b905f5260205f2090600502016003015f9054906101000a900460ff161561160f576040517f08c379a000000000000000000000000000000000000000000000000000000000815260040161160690612731565b60405180910390fd5b50565b5f819050919050565b61162481611612565b82525050565b5f60208201905061163d5f83018461161b565b92915050565b5f80fd5b5f80fd5b61165481611612565b811461165e575f80fd5b50565b5f8135905061166f8161164b565b92915050565b5f6020828403121561168a57611689611643565b5b5f61169784828501611661565b91505092915050565b5f73ffffffffffffffffffffffffffffffffffffffff82169050919050565b5f6116c9826116a0565b9050919050565b6116d9816116bf565b82525050565b5f6020820190506116f25f8301846116d0565b92915050565b5f81519050919050565b5f82825260208201905092915050565b8281835e5f83830152505050565b5f601f19601f8301169050919050565b5f61173a826116f8565b6117448185611702565b9350611754818560208601611712565b61175d81611720565b840191505092915050565b5f8115159050919050565b61177c81611768565b82525050565b5f60a0820190506117955f8301886116d0565b6117a2602083018761161b565b81810360408301526117b48186611730565b90506117c36060830185611773565b6117d0608083018461161b565b9695505050505050565b6117e3816116bf565b81146117ed575f80fd5b50565b5f813590506117fe816117da565b92915050565b5f806040838503121561181a57611819611643565b5b5f611827858286016117f0565b925050602061183885828601611661565b9150509250929050565b5f80fd5b5f80fd5b5f80fd5b5f8083601f84011261186357611862611842565b5b8235905067ffffffffffffffff8111156118805761187f611846565b5b60208301915083600182028301111561189c5761189b61184a565b5b9250929050565b5f805f80606085870312156118bb576118ba611643565b5b5f6118c8878288016117f0565b94505060206118d987828801611661565b935050604085013567ffffffffffffffff8111156118fa576118f9611647565b5b6119068782880161184e565b925092505092959194509250565b5f8083601f84011261192957611928611842565b5b8235905067ffffffffffffffff81111561194657611945611846565b5b6020830191508360208202830111156119625761196161184a565b5b9250929050565b5f805f806060858703121561198157611980611643565b5b5f85013567ffffffffffffffff81111561199e5761199d611647565b5b6119aa87828801611914565b945094505060206119bd87828801611661565b92505060406119ce878288016117f0565b91505092959194509250565b5f602082840312156119ef576119ee611643565b5b5f6119fc848285016117f0565b91505092915050565b5f602082019050611a185f830184611773565b92915050565b5f81519050919050565b5f82825260208201905092915050565b5f819050602082019050919050565b611a50816116bf565b82525050565b5f611a618383611a47565b60208301905092915050565b5f602082019050919050565b5f611a8382611a1e565b611a8d8185611a28565b9350611a9883611a38565b805f5b83811015611ac8578151611aaf8882611a56565b9750611aba83611a6d565b925050600181019050611a9b565b5085935050505092915050565b5f6020820190508181035f830152611aed8184611a79565b905092915050565b5f8060408385031215611b0b57611b0a611643565b5b5f611b1885828601611661565b9250506020611b29858286016117f0565b9150509250929050565b5f82825260208201905092915050565b7f416c726561647920617070726f766564000000000000000000000000000000005f82015250565b5f611b77601083611b33565b9150611b8282611b43565b602082019050919050565b5f6020820190508181035f830152611ba481611b6b565b9050919050565b7f4e487b71000000000000000000000000000000000000000000000000000000005f52603260045260245ffd5b7f4e487b71000000000000000000000000000000000000000000000000000000005f52601160045260245ffd5b5f611c0f82611612565b91507fffffffffffffffffffffffffffffffffffffffffffffffffffffffffffffffff8203611c4157611c40611bd8565b5b600182019050919050565b7f4e487b71000000000000000000000000000000000000000000000000000000005f52602260045260245ffd5b5f6002820490506001821680611c9057607f821691505b602082108103611ca357611ca2611c4c565b5b50919050565b7f4f6e6c792063616d706169676e2063616e20726566756e6400000000000000005f82015250565b5f611cdd601883611b33565b9150611ce882611ca9565b602082019050919050565b5f6020820190508181035f830152611d0a81611cd1565b9050919050565b7f496e73756666696369656e742062616c616e63650000000000000000000000005f82015250565b5f611d45601483611b33565b9150611d5082611d11565b602082019050919050565b5f6020820190508181035f830152611d7281611d39565b9050919050565b5f81905092915050565b50565b5f611d915f83611d79565b9150611d9c82611d83565b5f82019050919050565b5f611db082611d86565b9150819050919050565b7f526566756e64206661696c6564000000000000000000000000000000000000005f82015250565b5f611dee600d83611b33565b9150611df982611dba565b602082019050919050565b5f6020820190508181035f830152611e1b81611de2565b9050919050565b7f496e76616c696420726563697069656e740000000000000000000000000000005f82015250565b5f611e56601183611b33565b9150611e6182611e22565b602082019050919050565b5f6020820190508181035f830152611e8381611e4a565b9050919050565b7f4e487b71000000000000000000000000000000000000000000000000000000005f52604160045260245ffd5b5f819050815f5260205f209050919050565b5f6020601f8301049050919050565b5f82821b905092915050565b5f60088302611f137fffffffffffffffffffffffffffffffffffffffffffffffffffffffffffffffff82611ed8565b611f1d8683611ed8565b95508019841693508086168417925050509392505050565b5f819050919050565b5f611f58611f53611f4e84611612565b611f35565b611612565b9050919050565b5f819050919050565b611f7183611f3e565b611f85611f7d82611f5f565b848454611ee4565b825550505050565b5f90565b611f99611f8d565b611fa4818484611f68565b505050565b5b81811015611fc757611fbc5f82611f91565b600181019050611faa565b5050565b601f82111561200c57611fdd81611eb7565b611fe684611ec9565b81016020851015611ff5578190505b61200961200185611ec9565b830182611fa9565b50505b505050565b5f82821c905092915050565b5f61202c5f1984600802612011565b1980831691505092915050565b5f612044838361201d565b9150826002028217905092915050565b61205d826116f8565b67ffffffffffffffff81111561207657612075611e8a565b5b6120808254611c79565b61208b828285611fcb565b5f60209050601f8311600181146120bc575f84156120aa578287015190505b6120b48582612039565b86555061211b565b601f1984166120ca86611eb7565b5f5b828110156120f1578489015182556001820191506020850194506020810190506120cc565b8683101561210e578489015161210a601f89168261201d565b8355505b6001600288020188555050505b505050505050565b5f6040820190506121365f8301856116d0565b612143602083018461161b565b9392505050565b7f416c726561647920696e697469616c697a6564000000000000000000000000005f82015250565b5f61217e601383611b33565b91506121898261214a565b602082019050919050565b5f6020820190508181035f8301526121ab81612172565b9050919050565b7f4d7573742068617665206174206c65617374206f6e65207369676e65720000005f82015250565b5f6121e6601d83611b33565b91506121f1826121b2565b602082019050919050565b5f6020820190508181035f830152612213816121da565b9050919050565b7f496e76616c6964207468726573686f6c640000000000000000000000000000005f82015250565b5f61224e601183611b33565b91506122598261221a565b602082019050919050565b5f6020820190508181035f83015261227b81612242565b9050919050565b7f496e76616c69642063616d706169676e206164647265737300000000000000005f82015250565b5f6122b6601883611b33565b91506122c182612282565b602082019050919050565b5f6020820190508181035f8301526122e3816122aa565b9050919050565b7f496e76616c6964207369676e65720000000000000000000000000000000000005f82015250565b5f61231e600e83611b33565b9150612329826122ea565b602082019050919050565b5f6020820190508181035f83015261234b81612312565b9050919050565b7f4475706c6963617465207369676e6572000000000000000000000000000000005f82015250565b5f612386601083611b33565b915061239182612352565b602082019050919050565b5f6020820190508181035f8301526123b38161237a565b9050919050565b7f4e6f7420617070726f76656400000000000000000000000000000000000000005f82015250565b5f6123ee600c83611b33565b91506123f9826123ba565b602082019050919050565b5f6020820190508181035f83015261241b816123e2565b9050919050565b5f61242c82611612565b91505f820361243e5761243d611bd8565b5b600182039050919050565b7f4f6e6c792063616d706169676e2063616e206465706f736974000000000000005f82015250565b5f61247d601983611b33565b915061248882612449565b602082019050919050565b5f6020820190508181035f8301526124aa81612471565b9050919050565b7f4e6f7420656e6f75676820617070726f76616c730000000000000000000000005f82015250565b5f6124e5601483611b33565b91506124f0826124b1565b602082019050919050565b5f6020820190508181035f830152612512816124d9565b9050919050565b5f815461252581611c79565b61252f8186611d79565b9450600182165f8114612549576001811461255e57612590565b60ff1983168652811515820286019350612590565b61256785611eb7565b5f5b8381101561258857815481890152600182019150602081019050612569565b838801955050505b50505092915050565b5f6125a48284612519565b915081905092915050565b7f5472616e73616374696f6e206661696c656400000000000000000000000000005f82015250565b5f6125e3601283611b33565b91506125ee826125af565b602082019050919050565b5f6020820190508181035f830152612610816125d7565b9050919050565b7f4e6f742061207369676e657200000000000000000000000000000000000000005f82015250565b5f61264b600c83611b33565b915061265682612617565b602082019050919050565b5f6020820190508181035f8301526126788161263f565b9050919050565b7f5472616e73616374696f6e20646f6573206e6f742065786973740000000000005f82015250565b5f6126b3601a83611b33565b91506126be8261267f565b602082019050919050565b5f6020820190508181035f8301526126e0816126a7565b9050919050565b7f5472616e73616374696f6e20616c7265616479206578656375746564000000005f82015250565b5f61271b601c83611b33565b9150612726826126e7565b602082019050919050565b5f6020820190508181035f8301526127488161270f565b905091905056fea264697066735822122099216d894695568441be0f27cead2520182c7c70fc55311fb82366d7825a27f464736f6c6343000819003360a06040526040516118ea3803806118ea833981810160405281019061002591906106fd565b828161003782826100c160201b60201c565b50508160405161004690610549565b6100509190610778565b604051809103905ff080158015610069573d5f803e3d5ffd5b5073ffffffffffffffffffffffffffffffffffffffff1660808173ffffffffffffffffffffffffffffffffffffffff16815250506100b96100ae61014560201b60201c565b61014e60201b60201c565b5050506107b8565b6100d0826101a660201b60201c565b8173ffffffffffffffffffffffffffffffffffffffff167fbc7cd75a20ee27fd9adebab32041f755214dbc6bffa90cc0225b39da2e5c2d3b60405160405180910390a25f815111156101325761012c828261027560201b60201c565b50610141565b61014061038460201b60201c565b5b5050565b5f608051905090565b7f7e644d79422f17c01e4894b5f4f588d331ebfa28653d42ae832dc59e38c9798f61017d6103c060201b60201c565b8260405161018c929190610791565b60405180910390a16101a38161041960201b60201c565b50565b5f8173ffffffffffffffffffffffffffffffffffffffff163b0361020157806040517f4c9c8ce30000000000000000000000000000000000000000000000000000000081526004016101f89190610778565b60405180910390fd5b806102337f360894a13ba1a3210667c828492db98dca3e2076cc3735a920a3ca505d382bbc5f1b6104fd60201b60201c565b5f015f6101000a81548173ffffffffffffffffffffffffffffffffffffffff021916908373ffffffffffffffffffffffffffffffffffffffff16021790555050565b60605f610288848461050660201b60201c565b90508080156102c457505f6102a161051a60201b60201c565b11806102c357505f8473ffffffffffffffffffffffffffffffffffffffff163b115b5b156102df576102d761052160201b60201c565b91505061037e565b801561032257836040517f9996b3150000000000000000000000000000000000000000000000000000000081526004016103199190610778565b60405180910390fd5b5f61033161051a60201b60201c565b111561034a5761034561053e60201b60201c565b61037c565b6040517fd6bda27500000000000000000000000000000000000000000000000000000000815260040160405180910390fd5b505b92915050565b5f3411156103be576040517fb398979f00000000000000000000000000000000000000000000000000000000815260040160405180910390fd5b565b5f6103f27fb53127684a568b3173ae13b9f8a6016e243e63b6e8ee1178d6a717850b5d61035f1b6104fd60201b60201c565b5f015f9054906101000a900473ffffffffffffffffffffffffffffffffffffffff16905090565b5f73ffffffffffffffffffffffffffffffffffffffff168173ffffffffffffffffffffffffffffffffffffffff1603610489575f6040517f62e77ba20000000000000000000000000000000000000000000000000000000081526004016104809190610778565b60405180910390fd5b806104bb7fb53127684a568b3173ae13b9f8a6016e243e63b6e8ee1178d6a717850b5d61035f1b6104fd60201b60201c565b5f015f6101000a81548173ffffffffffffffffffffffffffffffffffffffff021916908373ffffffffffffffffffffffffffffffffffffffff16021790555050565b5f819050919050565b5f805f835160208501865af4905092915050565b5f3d905090565b606060405190503d81523d5f602083013e3d602001810160405290565b6040513d5f823e3d81fd5b6109c680610f2483390190565b5f604051905090565b5f80fd5b5f80fd5b5f73ffffffffffffffffffffffffffffffffffffffff82169050919050565b5f61059082610567565b9050919050565b6105a081610586565b81146105aa575f80fd5b50565b5f815190506105bb81610597565b92915050565b5f80fd5b5f80fd5b5f601f19601f8301169050919050565b7f4e487b71000000000000000000000000000000000000000000000000000000005f52604160045260245ffd5b61060f826105c9565b810181811067ffffffffffffffff8211171561062e5761062d6105d9565b5b80604052505050565b5f610640610556565b905061064c8282610606565b919050565b5f67ffffffffffffffff82111561066b5761066a6105d9565b5b610674826105c9565b9050602081019050919050565b8281835e5f83830152505050565b5f6106a161069c84610651565b610637565b9050828152602081018484840111156106bd576106bc6105c5565b5b6106c8848285610681565b509392505050565b5f82601f8301126106e4576106e36105c1565b5b81516106f484826020860161068f565b91505092915050565b5f805f606084860312156107145761071361055f565b5b5f610721868287016105ad565b9350506020610732868287016105ad565b925050604084015167ffffffffffffffff81111561075357610752610563565b5b61075f868287016106d0565b9150509250925092565b61077281610586565b82525050565b5f60208201905061078b5f830184610769565b92915050565b5f6040820190506107a45f830185610769565b6107b16020830184610769565b9392505050565b6080516107546107d05f395f61010401526107545ff3fe608060405261000c61000e565b005b610016610101565b73ffffffffffffffffffffffffffffffffffffffff163373ffffffffffffffffffffffffffffffffffffffff16036100f657634f1ef28660e01b7bffffffffffffffffffffffffffffffffffffffffffffffffffffffff19165f357fffffffff00000000000000000000000000000000000000000000000000000000167bffffffffffffffffffffffffffffffffffffffffffffffffffffffff1916146100e9576040517fd2b576ec00000000000000000000000000000000000000000000000000000000815260040160405180910390fd5b6100f1610128565b6100ff565b6100fe61015c565b5b565b5f7f0000000000000000000000000000000000000000000000000000000000000000905090565b5f805f36600490809261013d939291906104b3565b81019061014a919061068b565b91509150610158828261016e565b5050565b61016c6101676101e0565b6101ee565b565b6101778261020d565b8173ffffffffffffffffffffffffffffffffffffffff167fbc7cd75a20ee27fd9adebab32041f755214dbc6bffa90cc0225b39da2e5c2d3b60405160405180910390a25f815111156101d3576101cd82826102d6565b506101dc565b6101db6103c7565b5b5050565b5f6101e9610403565b905090565b365f80375f80365f845af43d5f803e805f8114610209573d5ff35b3d5ffd5b5f8173ffffffffffffffffffffffffffffffffffffffff163b0361026857806040517f4c9c8ce300000000000000000000000000000000000000000000000000000000815260040161025f9190610705565b60405180910390fd5b806102947f360894a13ba1a3210667c828492db98dca3e2076cc3735a920a3ca505d382bbc5f1b610456565b5f015f6101000a81548173ffffffffffffffffffffffffffffffffffffffff021916908373ffffffffffffffffffffffffffffffffffffffff16021790555050565b60605f6102e3848461045f565b905080801561031957505f6102f6610473565b118061031857505f8473ffffffffffffffffffffffffffffffffffffffff163b115b5b1561032e5761032661047a565b9150506103c1565b801561037157836040517f9996b3150000000000000000000000000000000000000000000000000000000081526004016103689190610705565b60405180910390fd5b5f61037a610473565b111561038d57610388610497565b6103bf565b6040517fd6bda27500000000000000000000000000000000000000000000000000000000815260040160405180910390fd5b505b92915050565b5f341115610401576040517fb398979f00000000000000000000000000000000000000000000000000000000815260040160405180910390fd5b565b5f61042f7f360894a13ba1a3210667c828492db98dca3e2076cc3735a920a3ca505d382bbc5f1b610456565b5f015f9054906101000a900473ffffffffffffffffffffffffffffffffffffffff16905090565b5f819050919050565b5f805f835160208501865af4905092915050565b5f3d905090565b606060405190503d81523d5f602083013e3d602001810160405290565b6040513d5f823e3d81fd5b5f604051905090565b5f80fd5b5f80fd5b5f80858511156104c6576104c56104ab565b5b838611156104d7576104d66104af565b5b6001850283019150848603905094509492505050565b5f80fd5b5f80fd5b5f73ffffffffffffffffffffffffffffffffffffffff82169050919050565b5f61051e826104f5565b9050919050565b61052e81610514565b8114610538575f80fd5b50565b5f8135905061054981610525565b92915050565b5f80fd5b5f80fd5b5f601f19601f8301169050919050565b7f4e487b71000000000000000000000000000000000000000000000000000000005f52604160045260245ffd5b61059d82610557565b810181811067ffffffffffffffff821117156105bc576105bb610567565b5b80604052505050565b5f6105ce6104a2565b90506105da8282610594565b919050565b5f67ffffffffffffffff8211156105f9576105f8610567565b5b61060282610557565b9050602081019050919050565b828183375f83830152505050565b5f61062f61062a846105df565b6105c5565b90508281526020810184848401111561064b5761064a610553565b5b61065684828561060f565b509392505050565b5f82601f8301126106725761067161054f565b5b813561068284826020860161061d565b91505092915050565b5f80604083850312156106a1576106a06104ed565b5b5f6106ae8582860161053b565b925050602083013567ffffffffffffffff8111156106cf576106ce6104f1565b5b6106db8582860161065e565b9150509250929050565b5f6106ef826104f5565b9050919050565b6106ff816106e5565b82525050565b5f6020820190506107185f8301846106f6565b9291505056fea264697066735822122060d9500a829d3e9ab4c68691d1fda78deaeea7cfb1bb46447d0beab5bbf6d5d364736f6c63430008190033608060405234801561000f575f80fd5b506040516109c63803806109c6833981810160405281019061003191906101d7565b805f73ffffffffffffffffffffffffffffffffffffffff168173ffffffffffffffffffffffffffffffffffffffff16036100a2575f6040517f1e4fbdf70000000000000000000000000000000000000000000000000000000081526004016100999190610211565b60405180910390fd5b6100b1816100b860201b60201c565b505061022a565b5f805f9054906101000a900473ffffffffffffffffffffffffffffffffffffffff169050815f806101000a81548173ffffffffffffffffffffffffffffffffffffffff021916908373ffffffffffffffffffffffffffffffffffffffff1602179055508173ffffffffffffffffffffffffffffffffffffffff168173ffffffffffffffffffffffffffffffffffffffff167f8be0079c531659141344cd1fd0a4f28419497f9722a3daafe3b4186f6b6457e060405160405180910390a35050565b5f80fd5b5f73ffffffffffffffffffffffffffffffffffffffff82169050919050565b5f6101a68261017d565b9050919050565b6101b68161019c565b81146101c0575f80fd5b50565b5f815190506101d1816101ad565b92915050565b5f602082840312156101ec576101eb610179565b5b5f6101f9848285016101c3565b91505092915050565b61020b8161019c565b82525050565b5f6020820190506102245f830184610202565b92915050565b61078f806102375f395ff3fe608060405260043610610049575f3560e01c8063715018a61461004d5780638da5cb5b146100635780639623609d1461008d578063ad3cb1cc146100a9578063f2fde38b146100d3575b5f80fd5b348015610058575f80fd5b506100616100fb565b005b34801561006e575f80fd5b5061007761010e565b60405161008491906103f7565b60405180910390f35b6100a760048036038101906100a291906105c2565b610135565b005b3480156100b4575f80fd5b506100bd6101ac565b6040516100ca919061068e565b60405180910390f35b3480156100de575f80fd5b506100f960048036038101906100f491906106ae565b6101e5565b005b610103610269565b61010c5f6102f0565b565b5f805f9054906101000a900473ffffffffffffffffffffffffffffffffffffffff16905090565b61013d610269565b8273ffffffffffffffffffffffffffffffffffffffff16634f1ef2863484846040518463ffffffff1660e01b815260040161017992919061072b565b5f604051808303818588803b158015610190575f80fd5b505af11580156101a2573d5f803e3d5ffd5b5050505050505050565b6040518060400160405280600581526020017f352e302e3000000000000000000000000000000000000000000000000000000081525081565b6101ed610269565b5f73ffffffffffffffffffffffffffffffffffffffff168173ffffffffffffffffffffffffffffffffffffffff160361025d575f6040517f1e4fbdf700000000000000000000000000000000000000000000000000000000815260040161025491906103f7565b60405180910390fd5b610266816102f0565b50565b6102716103b1565b73ffffffffffffffffffffffffffffffffffffffff1661028f61010e565b73ffffffffffffffffffffffffffffffffffffffff16146102ee576102b26103b1565b6040517f118cdaa70000000000000000000000000000000000000000000000000000000081526004016102e591906103f7565b60405180910390fd5b565b5f805f9054906101000a900473ffffffffffffffffffffffffffffffffffffffff169050815f806101000a81548173ffffffffffffffffffffffffffffffffffffffff021916908373ffffffffffffffffffffffffffffffffffffffff1602179055508173ffffffffffffffffffffffffffffffffffffffff168173ffffffffffffffffffffffffffffffffffffffff167f8be0079c531659141344cd1fd0a4f28419497f9722a3daafe3b4186f6b6457e060405160405180910390a35050565b5f33905090565b5f73ffffffffffffffffffffffffffffffffffffffff82169050919050565b5f6103e1826103b8565b9050919050565b6103f1816103d7565b82525050565b5f60208201905061040a5f8301846103e8565b92915050565b5f604051905090565b5f80fd5b5f80fd5b5f61042b826103d7565b9050919050565b61043b81610421565b8114610445575f80fd5b50565b5f8135905061045681610432565b92915050565b610465816103d7565b811461046f575f80fd5b50565b5f813590506104808161045c565b92915050565b5f80fd5b5f80fd5b5f601f19601f8301169050919050565b7f4e487b71000000000000000000000000000000000000000000000000000000005f52604160045260245ffd5b6104d48261048e565b810181811067ffffffffffffffff821117156104f3576104f261049e565b5b80604052505050565b5f610505610410565b905061051182826104cb565b919050565b5f67ffffffffffffffff8211156105305761052f61049e565b5b6105398261048e565b9050602081019050919050565b828183375f83830152505050565b5f61056661056184610516565b6104fc565b9050828152602081018484840111156105825761058161048a565b5b61058d848285610546565b509392505050565b5f82601f8301126105a9576105a8610486565b5b81356105b9848260208601610554565b91505092915050565b5f805f606084860312156105d9576105d8610419565b5b5f6105e686828701610448565b93505060206105f786828701610472565b925050604084013567ffffffffffffffff8111156106185761061761041d565b5b61062486828701610595565b9150509250925092565b5f81519050919050565b5f82825260208201905092915050565b8281835e5f83830152505050565b5f6106608261062e565b61066a8185610638565b935061067a818560208601610648565b6106838161048e565b840191505092915050565b5f6020820190508181035f8301526106a68184610656565b905092915050565b5f602082840312156106c3576106c2610419565b5b5f6106d084828501610472565b91505092915050565b5f81519050919050565b5f82825260208201905092915050565b5f6106fd826106d9565b61070781856106e3565b9350610717818560208601610648565b6107208161048e565b840191505092915050565b5f60408201905061073e5f8301856103e8565b818103602083015261075081846106f3565b9050939250505056fea26469706673582212203a2a520e6e9c563f1facc651531336714ee2fc9df5415865d6e1ad88bae05b8e64736f6c63430008190033a2646970667358221220f12b62d0306dd7c3b0b045fe7da41b1d48c8b705d52ca5b842b26afa64a6ee1764736f6c63430008190033","linkReferences":{}},"methodIdentifiers":{"admin()":"f851a440","campaignImplementation()":"62a6e065","campaigns(uint256)":"141961bc","createCampaign(address,uint256,uint256,address[],uint256,address,string)":"1acc25fc","upgradeCampaign(uint256,address)":"6a241089"},"id":61}