{"abi":[{"type":"constructor","inputs":[{"name":"_campaignImplementation","type":"address","internalType":"address"},{"name":"_admin","type":"address","internalType":"address"}],"stateMutability":"nonpayable"},{"type":"function","name":"admin","inputs":[],"outputs":[{"name":"","type":"address","internalType":"address"}],"stateMutability":"view"},{"type":"function","name":"campaignImplementation","inputs":[],"outputs":[{"name":"","type":"address","internalType":"address"}],"stateMutability":"view"},{"type":"function","name":"campaigns","inputs":[{"name":"","type":"uint256","internalType":"uint256"}],"outputs":[{"name":"campaignAddress","type":"address","internalType":"address"},{"name":"treasuryAddress","type":"address","internalType":"address"},{"name":"owner","type":"address","internalType":"address"},{"name":"name","type":"string","internalType":"string"}],"stateMutability":"view"},{"type":"function","name":"createCampaign","inputs":[{"name":"creator","type":"address","internalType":"address"},{"name":"fundingGoal","type":"uint256","internalType":"uint256"},{"name":"duration","type":"uint256","internalType":"uint256"},{"name":"signers","type":"address[]","internalType":"address[]"},{"name":"threshold","type":"uint256","internalType":"uint256"},{"name":"rewardToken","type":"address","internalType":"address"},{"name":"name","type":"string","internalType":"string"}],"outputs":[],"stateMutability":"nonpayable"}],"bytecode":{"object":"0x608060405234801561000f575f80fd5b5060405161530938038061530983398181016040528101906100319190610115565b815f806101000a81548173ffffffffffffffffffffffffffffffffffffffff021916908373ffffffffffffffffffffffffffffffffffffffff1602179055508060015f6101000a81548173ffffffffffffffffffffffffffffffffffffffff021916908373ffffffffffffffffffffffffffffffffffffffff1602179055505050610153565b5f80fd5b5f73ffffffffffffffffffffffffffffffffffffffff82169050919050565b5f6100e4826100bb565b9050919050565b6100f4816100da565b81146100fe575f80fd5b50565b5f8151905061010f816100eb565b92915050565b5f806040838503121561012b5761012a6100b7565b5b5f61013885828601610101565b925050602061014985828601610101565b9150509250929050565b6151a9806101605f395ff3fe608060405234801561000f575f80fd5b506004361061004a575f3560e01c8063141961bc1461004e5780631acc25fc1461008157806362a6e0651461009d578063f851a440146100bb575b5f80fd5b610068600480360381019061006391906105ae565b6100d9565b6040516100789493929190610688565b60405180910390f35b61009b60048036038101906100969190610885565b6101f7565b005b6100a5610508565b6040516100b2919061095e565b60405180910390f35b6100c361052b565b6040516100d0919061095e565b60405180910390f35b600281815481106100e8575f80fd5b905f5260205f2090600402015f91509050805f015f9054906101000a900473ffffffffffffffffffffffffffffffffffffffff1690806001015f9054906101000a900473ffffffffffffffffffffffffffffffffffffffff1690806002015f9054906101000a900473ffffffffffffffffffffffffffffffffffffffff1690806003018054610176906109a4565b80601f01602080910402602001604051908101604052809291908181526020018280546101a2906109a4565b80156101ed5780601f106101c4576101008083540402835291602001916101ed565b820191905f5260205f20905b8154815290600101906020018083116101d057829003601f168201915b5050505050905084565b5f60405161020490610550565b604051809103905ff08015801561021d573d5f803e3d5ffd5b5090505f638163ac5560e01b8a8a8a858888604051602401610244969594939291906109e3565b604051602081830303815290604052907bffffffffffffffffffffffffffffffffffffffffffffffffffffffff19166020820180517bffffffffffffffffffffffffffffffffffffffffffffffffffffffff838183161783525050505090505f805f9054906101000a900473ffffffffffffffffffffffffffffffffffffffff1660015f9054906101000a900473ffffffffffffffffffffffffffffffffffffffff16836040516102f49061055d565b61030093929190610a9b565b604051809103905ff080158015610319573d5f803e3d5ffd5b5090508273ffffffffffffffffffffffffffffffffffffffff166372483bf9898989856040518563ffffffff1660e01b815260040161035b9493929190610b93565b5f604051808303815f87803b158015610372575f80fd5b505af1158015610384573d5f803e3d5ffd5b50505050600260405180608001604052808373ffffffffffffffffffffffffffffffffffffffff1681526020018573ffffffffffffffffffffffffffffffffffffffff1681526020018d73ffffffffffffffffffffffffffffffffffffffff16815260200186815250908060018154018082558091505060019003905f5260205f2090600402015f909190919091505f820151815f015f6101000a81548173ffffffffffffffffffffffffffffffffffffffff021916908373ffffffffffffffffffffffffffffffffffffffff1602179055506020820151816001015f6101000a81548173ffffffffffffffffffffffffffffffffffffffff021916908373ffffffffffffffffffffffffffffffffffffffff1602179055506040820151816002015f6101000a81548173ffffffffffffffffffffffffffffffffffffffff021916908373ffffffffffffffffffffffffffffffffffffffff16021790555060608201518160030190816104f89190610d6e565b5050505050505050505050505050565b5f8054906101000a900473ffffffffffffffffffffffffffffffffffffffff1681565b60015f9054906101000a900473ffffffffffffffffffffffffffffffffffffffff1681565b612a4c80610e3e83390190565b6118ea8061388a83390190565b5f604051905090565b5f80fd5b5f80fd5b5f819050919050565b61058d8161057b565b8114610597575f80fd5b50565b5f813590506105a881610584565b92915050565b5f602082840312156105c3576105c2610573565b5b5f6105d08482850161059a565b91505092915050565b5f73ffffffffffffffffffffffffffffffffffffffff82169050919050565b5f610602826105d9565b9050919050565b610612816105f8565b82525050565b5f81519050919050565b5f82825260208201905092915050565b8281835e5f83830152505050565b5f601f19601f8301169050919050565b5f61065a82610618565b6106648185610622565b9350610674818560208601610632565b61067d81610640565b840191505092915050565b5f60808201905061069b5f830187610609565b6106a86020830186610609565b6106b56040830185610609565b81810360608301526106c78184610650565b905095945050505050565b6106db816105f8565b81146106e5575f80fd5b50565b5f813590506106f6816106d2565b92915050565b5f80fd5b5f80fd5b5f80fd5b5f8083601f84011261071d5761071c6106fc565b5b8235905067ffffffffffffffff81111561073a57610739610700565b5b60208301915083602082028301111561075657610755610704565b5b9250929050565b5f80fd5b7f4e487b71000000000000000000000000000000000000000000000000000000005f52604160045260245ffd5b61079782610640565b810181811067ffffffffffffffff821117156107b6576107b5610761565b5b80604052505050565b5f6107c861056a565b90506107d4828261078e565b919050565b5f67ffffffffffffffff8211156107f3576107f2610761565b5b6107fc82610640565b9050602081019050919050565b828183375f83830152505050565b5f610829610824846107d9565b6107bf565b9050828152602081018484840111156108455761084461075d565b5b610850848285610809565b509392505050565b5f82601f83011261086c5761086b6106fc565b5b813561087c848260208601610817565b91505092915050565b5f805f805f805f8060e0898b0312156108a1576108a0610573565b5b5f6108ae8b828c016106e8565b98505060206108bf8b828c0161059a565b97505060406108d08b828c0161059a565b965050606089013567ffffffffffffffff8111156108f1576108f0610577565b5b6108fd8b828c01610708565b955095505060806109108b828c0161059a565b93505060a06109218b828c016106e8565b92505060c089013567ffffffffffffffff81111561094257610941610577565b5b61094e8b828c01610858565b9150509295985092959890939650565b5f6020820190506109715f830184610609565b92915050565b7f4e487b71000000000000000000000000000000000000000000000000000000005f52602260045260245ffd5b5f60028204905060018216806109bb57607f821691505b6020821081036109ce576109cd610977565b5b50919050565b6109dd8161057b565b82525050565b5f60c0820190506109f65f830189610609565b610a0360208301886109d4565b610a1060408301876109d4565b610a1d6060830186610609565b610a2a6080830185610609565b81810360a0830152610a3c8184610650565b9050979650505050505050565b5f81519050919050565b5f82825260208201905092915050565b5f610a6d82610a49565b610a778185610a53565b9350610a87818560208601610632565b610a9081610640565b840191505092915050565b5f606082019050610aae5f830186610609565b610abb6020830185610609565b8181036040830152610acd8184610a63565b9050949350505050565b5f82825260208201905092915050565b5f819050919050565b610af9816105f8565b82525050565b5f610b0a8383610af0565b60208301905092915050565b5f610b2460208401846106e8565b905092915050565b5f602082019050919050565b5f610b438385610ad7565b9350610b4e82610ae7565b805f5b85811015610b8657610b638284610b16565b610b6d8882610aff565b9750610b7883610b2c565b925050600181019050610b51565b5085925050509392505050565b5f6060820190508181035f830152610bac818688610b38565b9050610bbb60208301856109d4565b610bc86040830184610609565b95945050505050565b5f819050815f5260205f209050919050565b5f6020601f8301049050919050565b5f82821b905092915050565b5f60088302610c2d7fffffffffffffffffffffffffffffffffffffffffffffffffffffffffffffffff82610bf2565b610c378683610bf2565b95508019841693508086168417925050509392505050565b5f819050919050565b5f610c72610c6d610c688461057b565b610c4f565b61057b565b9050919050565b5f819050919050565b610c8b83610c58565b610c9f610c9782610c79565b848454610bfe565b825550505050565b5f90565b610cb3610ca7565b610cbe818484610c82565b505050565b5b81811015610ce157610cd65f82610cab565b600181019050610cc4565b5050565b601f821115610d2657610cf781610bd1565b610d0084610be3565b81016020851015610d0f578190505b610d23610d1b85610be3565b830182610cc3565b50505b505050565b5f82821c905092915050565b5f610d465f1984600802610d2b565b1980831691505092915050565b5f610d5e8383610d37565b9150826002028217905092915050565b610d7782610618565b67ffffffffffffffff811115610d9057610d8f610761565b5b610d9a82546109a4565b610da5828285610ce5565b5f60209050601f831160018114610dd6575f8415610dc4578287015190505b610dce8582610d53565b865550610e35565b601f198416610de486610bd1565b5f5b82811015610e0b57848901518255600182019150602085019450602081019050610de6565b86831015610e285784890151610e24601f891682610d37565b8355505b6001600288020188555050505b50505050505056fe6080604052348015600e575f80fd5b50612a308061001c5f395ff3fe6080604052600436106100f6575f3560e01c80637df73e2711610089578063ab2850da11610058578063ab2850da146103a3578063b1e130fc146103df578063d0e30db014610407578063ee22610b146104115761014b565b80637df73e27146102d3578063811e539c1461030f57806394cf795e146103395780639ace38c2146103635761014b565b8063410085df116100c5578063410085df1461021d57806342cde4e8146102455780635e90852d1461026f57806372483bf9146102ab5761014b565b80632079fb9a1461014f578063242232d11461018b5780632e7700f0146101b357806333ea3dc8146101dd5761014b565b3661014b573373ffffffffffffffffffffffffffffffffffffffff167f2da466a7b24304f47e87fa2e1e5a81b9831ce54fec19055ce277ca2f39ba42c43460405161014191906118d5565b60405180910390a2005b5f80fd5b34801561015a575f80fd5b5061017560048036038101906101709190611920565b610439565b604051610182919061198a565b60405180910390f35b348015610196575f80fd5b506101b160048036038101906101ac9190611920565b610474565b005b3480156101be575f80fd5b506101c7610734565b6040516101d491906118d5565b60405180910390f35b3480156101e8575f80fd5b5061020360048036038101906101fe9190611920565b610740565b604051610214959493929190611a2d565b60405180910390f35b348015610228575f80fd5b50610243600480360381019061023e9190611aaf565b610849565b005b348015610250575f80fd5b506102596109c6565b60405161026691906118d5565b60405180910390f35b34801561027a575f80fd5b5061029560048036038101906102909190611b4e565b6109cc565b6040516102a291906118d5565b60405180910390f35b3480156102b6575f80fd5b506102d160048036038101906102cc9190611c14565b610ca6565b005b3480156102de575f80fd5b506102f960048036038101906102f49190611c85565b611053565b6040516103069190611cb0565b60405180910390f35b34801561031a575f80fd5b50610323611070565b604051610330919061198a565b60405180910390f35b348015610344575f80fd5b5061034d611093565b60405161035a9190611d80565b60405180910390f35b34801561036e575f80fd5b5061038960048036038101906103849190611920565b61111e565b60405161039a959493929190611a2d565b60405180910390f35b3480156103ae575f80fd5b506103c960048036038101906103c49190611da0565b611210565b6040516103d69190611cb0565b60405180910390f35b3480156103ea575f80fd5b5061040560048036038101906104009190611920565b61123a565b005b61040f6114f8565b005b34801561041c575f80fd5b5061043760048036038101906104329190611920565b6115d5565b005b60018181548110610448575f80fd5b905f5260205f20015f915054906101000a900473ffffffffffffffffffffffffffffffffffffffff1681565b60025f3373ffffffffffffffffffffffffffffffffffffffff1673ffffffffffffffffffffffffffffffffffffffff1681526020019081526020015f205f9054906101000a900460ff166104fd576040517f08c379a00000000000000000000000000000000000000000000000000000000081526004016104f490611e38565b60405180910390fd5b806004805490508110610545576040517f08c379a000000000000000000000000000000000000000000000000000000000815260040161053c90611ea0565b60405180910390fd5b816004818154811061055a57610559611ebe565b5b905f5260205f2090600502016003015f9054906101000a900460ff16156105b6576040517f08c379a00000000000000000000000000000000000000000000000000000000081526004016105ad90611f35565b60405180910390fd5b60055f8481526020019081526020015f205f3373ffffffffffffffffffffffffffffffffffffffff1673ffffffffffffffffffffffffffffffffffffffff1681526020019081526020015f205f9054906101000a900460ff161561064f576040517f08c379a000000000000000000000000000000000000000000000000000000000815260040161064690611f9d565b60405180910390fd5b600160055f8581526020019081526020015f205f3373ffffffffffffffffffffffffffffffffffffffff1673ffffffffffffffffffffffffffffffffffffffff1681526020019081526020015f205f6101000a81548160ff021916908315150217905550600483815481106106c7576106c6611ebe565b5b905f5260205f2090600502016004015f8154809291906106e690611fe8565b91905055503373ffffffffffffffffffffffffffffffffffffffff16837f924813d717e221b5f46dcd8a56da1679e4612584ab3237d55e5faabf6f6a307960405160405180910390a3505050565b5f600480549050905090565b5f8060605f805f6004878154811061075b5761075a611ebe565b5b905f5260205f2090600502019050805f015f9054906101000a900473ffffffffffffffffffffffffffffffffffffffff16816001015482600201836003015f9054906101000a900460ff1684600401548280546107b79061205c565b80601f01602080910402602001604051908101604052809291908181526020018280546107e39061205c565b801561082e5780601f106108055761010080835404028352916020019161082e565b820191905f5260205f20905b81548152906001019060200180831161081157829003601f168201915b50505050509250955095509550955095505091939590929450565b5f8054906101000a900473ffffffffffffffffffffffffffffffffffffffff1673ffffffffffffffffffffffffffffffffffffffff163373ffffffffffffffffffffffffffffffffffffffff16146108d6576040517f08c379a00000000000000000000000000000000000000000000000000000000081526004016108cd906120d6565b60405180910390fd5b47811115610919576040517f08c379a00000000000000000000000000000000000000000000000000000000081526004016109109061213e565b60405180910390fd5b5f8273ffffffffffffffffffffffffffffffffffffffff168260405161093e90612189565b5f6040518083038185875af1925050503d805f8114610978576040519150601f19603f3d011682016040523d82523d5f602084013e61097d565b606091505b50509050806109c1576040517f08c379a00000000000000000000000000000000000000000000000000000000081526004016109b8906121e7565b60405180910390fd5b505050565b60035481565b5f60025f3373ffffffffffffffffffffffffffffffffffffffff1673ffffffffffffffffffffffffffffffffffffffff1681526020019081526020015f205f9054906101000a900460ff16610a56576040517f08c379a0000000000000000000000000000000000000000000000000000000008152600401610a4d90611e38565b60405180910390fd5b5f73ffffffffffffffffffffffffffffffffffffffff168573ffffffffffffffffffffffffffffffffffffffff1603610ac4576040517f08c379a0000000000000000000000000000000000000000000000000000000008152600401610abb9061224f565b60405180910390fd5b47841115610b07576040517f08c379a0000000000000000000000000000000000000000000000000000000008152600401610afe9061213e565b60405180910390fd5b5f600480549050905060046040518060a001604052808873ffffffffffffffffffffffffffffffffffffffff16815260200187815260200186868080601f0160208091040260200160405190810160405280939291908181526020018383808284375f81840152601f19601f8201169050808301925050505050505081526020015f151581526020015f815250908060018154018082558091505060019003905f5260205f2090600502015f909190919091505f820151815f015f6101000a81548173ffffffffffffffffffffffffffffffffffffffff021916908373ffffffffffffffffffffffffffffffffffffffff160217905550602082015181600101556040820151816002019081610c1d9190612437565b506060820151816003015f6101000a81548160ff0219169083151502179055506080820151816004015550503373ffffffffffffffffffffffffffffffffffffffff16817f08754d66a328b07857be590cc17e0bb798e0ec9cb30ac8e5af7afd3481d1c6bd8888604051610c92929190612506565b60405180910390a380915050949350505050565b60065f9054906101000a900460ff1615610cf5576040517f08c379a0000000000000000000000000000000000000000000000000000000008152600401610cec90612577565b60405180910390fd5b5f8484905011610d3a576040517f08c379a0000000000000000000000000000000000000000000000000000000008152600401610d31906125df565b60405180910390fd5b5f82118015610d4c5750838390508211155b610d8b576040517f08c379a0000000000000000000000000000000000000000000000000000000008152600401610d8290612647565b60405180910390fd5b5f73ffffffffffffffffffffffffffffffffffffffff168173ffffffffffffffffffffffffffffffffffffffff1603610df9576040517f08c379a0000000000000000000000000000000000000000000000000000000008152600401610df0906126af565b60405180910390fd5b5f5b84849050811015610fec575f858583818110610e1a57610e19611ebe565b5b9050602002016020810190610e2f9190611c85565b90505f73ffffffffffffffffffffffffffffffffffffffff168173ffffffffffffffffffffffffffffffffffffffff1603610e9f576040517f08c379a0000000000000000000000000000000000000000000000000000000008152600401610e9690612717565b60405180910390fd5b60025f8273ffffffffffffffffffffffffffffffffffffffff1673ffffffffffffffffffffffffffffffffffffffff1681526020019081526020015f205f9054906101000a900460ff1615610f29576040517f08c379a0000000000000000000000000000000000000000000000000000000008152600401610f209061277f565b60405180910390fd5b600181908060018154018082558091505060019003905f5260205f20015f9091909190916101000a81548173ffffffffffffffffffffffffffffffffffffffff021916908373ffffffffffffffffffffffffffffffffffffffff160217905550600160025f8373ffffffffffffffffffffffffffffffffffffffff1673ffffffffffffffffffffffffffffffffffffffff1681526020019081526020015f205f6101000a81548160ff021916908315150217905550508080600101915050610dfb565b5081600381905550805f806101000a81548173ffffffffffffffffffffffffffffffffffffffff021916908373ffffffffffffffffffffffffffffffffffffffff160217905550600160065f6101000a81548160ff02191690831515021790555050505050565b6002602052805f5260405f205f915054906101000a900460ff1681565b5f8054906101000a900473ffffffffffffffffffffffffffffffffffffffff1681565b6060600180548060200260200160405190810160405280929190818152602001828054801561111457602002820191905f5260205f20905b815f9054906101000a900473ffffffffffffffffffffffffffffffffffffffff1673ffffffffffffffffffffffffffffffffffffffff16815260200190600101908083116110cb575b5050505050905090565b6004818154811061112d575f80fd5b905f5260205f2090600502015f91509050805f015f9054906101000a900473ffffffffffffffffffffffffffffffffffffffff16908060010154908060020180546111779061205c565b80601f01602080910402602001604051908101604052809291908181526020018280546111a39061205c565b80156111ee5780601f106111c5576101008083540402835291602001916111ee565b820191905f5260205f20905b8154815290600101906020018083116111d157829003601f168201915b505050505090806003015f9054906101000a900460ff16908060040154905085565b6005602052815f5260405f20602052805f5260405f205f915091509054906101000a900460ff1681565b60025f3373ffffffffffffffffffffffffffffffffffffffff1673ffffffffffffffffffffffffffffffffffffffff1681526020019081526020015f205f9054906101000a900460ff166112c3576040517f08c379a00000000000000000000000000000000000000000000000000000000081526004016112ba90611e38565b60405180910390fd5b80600480549050811061130b576040517f08c379a000000000000000000000000000000000000000000000000000000000815260040161130290611ea0565b60405180910390fd5b81600481815481106113205761131f611ebe565b5b905f5260205f2090600502016003015f9054906101000a900460ff161561137c576040517f08c379a000000000000000000000000000000000000000000000000000000000815260040161137390611f35565b60405180910390fd5b60055f8481526020019081526020015f205f3373ffffffffffffffffffffffffffffffffffffffff1673ffffffffffffffffffffffffffffffffffffffff1681526020019081526020015f205f9054906101000a900460ff16611414576040517f08c379a000000000000000000000000000000000000000000000000000000000815260040161140b906127e7565b60405180910390fd5b5f60055f8581526020019081526020015f205f3373ffffffffffffffffffffffffffffffffffffffff1673ffffffffffffffffffffffffffffffffffffffff1681526020019081526020015f205f6101000a81548160ff0219169083151502179055506004838154811061148b5761148a611ebe565b5b905f5260205f2090600502016004015f8154809291906114aa90612805565b91905055503373ffffffffffffffffffffffffffffffffffffffff16837f4cd471041f6b9ff47536a54a3d3ab62d0fa9dd5e36c0418b294b1673acb3188160405160405180910390a3505050565b5f8054906101000a900473ffffffffffffffffffffffffffffffffffffffff1673ffffffffffffffffffffffffffffffffffffffff163373ffffffffffffffffffffffffffffffffffffffff1614611585576040517f08c379a000000000000000000000000000000000000000000000000000000000815260040161157c90612876565b60405180910390fd5b3373ffffffffffffffffffffffffffffffffffffffff167f2da466a7b24304f47e87fa2e1e5a81b9831ce54fec19055ce277ca2f39ba42c4346040516115cb91906118d5565b60405180910390a2565b60025f3373ffffffffffffffffffffffffffffffffffffffff1673ffffffffffffffffffffffffffffffffffffffff1681526020019081526020015f205f9054906101000a900460ff1661165e576040517f08c379a000000000000000000000000000000000000000000000000000000000815260040161165590611e38565b60405180910390fd5b8060048054905081106116a6576040517f08c379a000000000000000000000000000000000000000000000000000000000815260040161169d90611ea0565b60405180910390fd5b81600481815481106116bb576116ba611ebe565b5b905f5260205f2090600502016003015f9054906101000a900460ff1615611717576040517f08c379a000000000000000000000000000000000000000000000000000000000815260040161170e90611f35565b60405180910390fd5b5f6004848154811061172c5761172b611ebe565b5b905f5260205f209060050201905060035481600401541015611783576040517f08c379a000000000000000000000000000000000000000000000000000000000815260040161177a906128de565b60405180910390fd5b6001816003015f6101000a81548160ff0219169083151502179055505f815f015f9054906101000a900473ffffffffffffffffffffffffffffffffffffffff1673ffffffffffffffffffffffffffffffffffffffff168260010154836002016040516117ef919061297c565b5f6040518083038185875af1925050503d805f8114611829576040519150601f19603f3d011682016040523d82523d5f602084013e61182e565b606091505b5050905080611872576040517f08c379a0000000000000000000000000000000000000000000000000000000008152600401611869906129dc565b60405180910390fd5b3373ffffffffffffffffffffffffffffffffffffffff16857fefc13bdcf58f184ea7cae26b499fb33b539e01d0197cea456f3ada289b8cf19b60405160405180910390a35050505050565b5f819050919050565b6118cf816118bd565b82525050565b5f6020820190506118e85f8301846118c6565b92915050565b5f80fd5b5f80fd5b6118ff816118bd565b8114611909575f80fd5b50565b5f8135905061191a816118f6565b92915050565b5f60208284031215611935576119346118ee565b5b5f6119428482850161190c565b91505092915050565b5f73ffffffffffffffffffffffffffffffffffffffff82169050919050565b5f6119748261194b565b9050919050565b6119848161196a565b82525050565b5f60208201905061199d5f83018461197b565b92915050565b5f81519050919050565b5f82825260208201905092915050565b8281835e5f83830152505050565b5f601f19601f8301169050919050565b5f6119e5826119a3565b6119ef81856119ad565b93506119ff8185602086016119bd565b611a08816119cb565b840191505092915050565b5f8115159050919050565b611a2781611a13565b82525050565b5f60a082019050611a405f83018861197b565b611a4d60208301876118c6565b8181036040830152611a5f81866119db565b9050611a6e6060830185611a1e565b611a7b60808301846118c6565b9695505050505050565b611a8e8161196a565b8114611a98575f80fd5b50565b5f81359050611aa981611a85565b92915050565b5f8060408385031215611ac557611ac46118ee565b5b5f611ad285828601611a9b565b9250506020611ae38582860161190c565b9150509250929050565b5f80fd5b5f80fd5b5f80fd5b5f8083601f840112611b0e57611b0d611aed565b5b8235905067ffffffffffffffff811115611b2b57611b2a611af1565b5b602083019150836001820283011115611b4757611b46611af5565b5b9250929050565b5f805f8060608587031215611b6657611b656118ee565b5b5f611b7387828801611a9b565b9450506020611b848782880161190c565b935050604085013567ffffffffffffffff811115611ba557611ba46118f2565b5b611bb187828801611af9565b925092505092959194509250565b5f8083601f840112611bd457611bd3611aed565b5b8235905067ffffffffffffffff811115611bf157611bf0611af1565b5b602083019150836020820283011115611c0d57611c0c611af5565b5b9250929050565b5f805f8060608587031215611c2c57611c2b6118ee565b5b5f85013567ffffffffffffffff811115611c4957611c486118f2565b5b611c5587828801611bbf565b94509450506020611c688782880161190c565b9250506040611c7987828801611a9b565b91505092959194509250565b5f60208284031215611c9a57611c996118ee565b5b5f611ca784828501611a9b565b91505092915050565b5f602082019050611cc35f830184611a1e565b92915050565b5f81519050919050565b5f82825260208201905092915050565b5f819050602082019050919050565b611cfb8161196a565b82525050565b5f611d0c8383611cf2565b60208301905092915050565b5f602082019050919050565b5f611d2e82611cc9565b611d388185611cd3565b9350611d4383611ce3565b805f5b83811015611d73578151611d5a8882611d01565b9750611d6583611d18565b925050600181019050611d46565b5085935050505092915050565b5f6020820190508181035f830152611d988184611d24565b905092915050565b5f8060408385031215611db657611db56118ee565b5b5f611dc38582860161190c565b9250506020611dd485828601611a9b565b9150509250929050565b5f82825260208201905092915050565b7f4e6f742061207369676e657200000000000000000000000000000000000000005f82015250565b5f611e22600c83611dde565b9150611e2d82611dee565b602082019050919050565b5f6020820190508181035f830152611e4f81611e16565b9050919050565b7f5472616e73616374696f6e20646f6573206e6f742065786973740000000000005f82015250565b5f611e8a601a83611dde565b9150611e9582611e56565b602082019050919050565b5f6020820190508181035f830152611eb781611e7e565b9050919050565b7f4e487b71000000000000000000000000000000000000000000000000000000005f52603260045260245ffd5b7f5472616e73616374696f6e20616c7265616479206578656375746564000000005f82015250565b5f611f1f601c83611dde565b9150611f2a82611eeb565b602082019050919050565b5f6020820190508181035f830152611f4c81611f13565b9050919050565b7f416c726561647920617070726f766564000000000000000000000000000000005f82015250565b5f611f87601083611dde565b9150611f9282611f53565b602082019050919050565b5f6020820190508181035f830152611fb481611f7b565b9050919050565b7f4e487b71000000000000000000000000000000000000000000000000000000005f52601160045260245ffd5b5f611ff2826118bd565b91507fffffffffffffffffffffffffffffffffffffffffffffffffffffffffffffffff820361202457612023611fbb565b5b600182019050919050565b7f4e487b71000000000000000000000000000000000000000000000000000000005f52602260045260245ffd5b5f600282049050600182168061207357607f821691505b6020821081036120865761208561202f565b5b50919050565b7f4f6e6c792063616d706169676e2063616e20726566756e6400000000000000005f82015250565b5f6120c0601883611dde565b91506120cb8261208c565b602082019050919050565b5f6020820190508181035f8301526120ed816120b4565b9050919050565b7f496e73756666696369656e742062616c616e63650000000000000000000000005f82015250565b5f612128601483611dde565b9150612133826120f4565b602082019050919050565b5f6020820190508181035f8301526121558161211c565b9050919050565b5f81905092915050565b50565b5f6121745f8361215c565b915061217f82612166565b5f82019050919050565b5f61219382612169565b9150819050919050565b7f526566756e64206661696c6564000000000000000000000000000000000000005f82015250565b5f6121d1600d83611dde565b91506121dc8261219d565b602082019050919050565b5f6020820190508181035f8301526121fe816121c5565b9050919050565b7f496e76616c696420726563697069656e740000000000000000000000000000005f82015250565b5f612239601183611dde565b915061224482612205565b602082019050919050565b5f6020820190508181035f8301526122668161222d565b9050919050565b7f4e487b71000000000000000000000000000000000000000000000000000000005f52604160045260245ffd5b5f819050815f5260205f209050919050565b5f6020601f8301049050919050565b5f82821b905092915050565b5f600883026122f67fffffffffffffffffffffffffffffffffffffffffffffffffffffffffffffffff826122bb565b61230086836122bb565b95508019841693508086168417925050509392505050565b5f819050919050565b5f61233b612336612331846118bd565b612318565b6118bd565b9050919050565b5f819050919050565b61235483612321565b61236861236082612342565b8484546122c7565b825550505050565b5f90565b61237c612370565b61238781848461234b565b505050565b5b818110156123aa5761239f5f82612374565b60018101905061238d565b5050565b601f8211156123ef576123c08161229a565b6123c9846122ac565b810160208510156123d8578190505b6123ec6123e4856122ac565b83018261238c565b50505b505050565b5f82821c905092915050565b5f61240f5f19846008026123f4565b1980831691505092915050565b5f6124278383612400565b9150826002028217905092915050565b612440826119a3565b67ffffffffffffffff8111156124595761245861226d565b5b612463825461205c565b61246e8282856123ae565b5f60209050601f83116001811461249f575f841561248d578287015190505b612497858261241c565b8655506124fe565b601f1984166124ad8661229a565b5f5b828110156124d4578489015182556001820191506020850194506020810190506124af565b868310156124f157848901516124ed601f891682612400565b8355505b6001600288020188555050505b505050505050565b5f6040820190506125195f83018561197b565b61252660208301846118c6565b9392505050565b7f416c726561647920696e697469616c697a6564000000000000000000000000005f82015250565b5f612561601383611dde565b915061256c8261252d565b602082019050919050565b5f6020820190508181035f83015261258e81612555565b9050919050565b7f4d7573742068617665206174206c65617374206f6e65207369676e65720000005f82015250565b5f6125c9601d83611dde565b91506125d482612595565b602082019050919050565b5f6020820190508181035f8301526125f6816125bd565b9050919050565b7f496e76616c6964207468726573686f6c640000000000000000000000000000005f82015250565b5f612631601183611dde565b915061263c826125fd565b602082019050919050565b5f6020820190508181035f83015261265e81612625565b9050919050565b7f496e76616c69642063616d706169676e206164647265737300000000000000005f82015250565b5f612699601883611dde565b91506126a482612665565b602082019050919050565b5f6020820190508181035f8301526126c68161268d565b9050919050565b7f496e76616c6964207369676e65720000000000000000000000000000000000005f82015250565b5f612701600e83611dde565b915061270c826126cd565b602082019050919050565b5f6020820190508181035f83015261272e816126f5565b9050919050565b7f4475706c6963617465207369676e6572000000000000000000000000000000005f82015250565b5f612769601083611dde565b915061277482612735565b602082019050919050565b5f6020820190508181035f8301526127968161275d565b9050919050565b7f4e6f7420617070726f76656400000000000000000000000000000000000000005f82015250565b5f6127d1600c83611dde565b91506127dc8261279d565b602082019050919050565b5f6020820190508181035f8301526127fe816127c5565b9050919050565b5f61280f826118bd565b91505f820361282157612820611fbb565b5b600182039050919050565b7f4f6e6c792063616d706169676e2063616e206465706f736974000000000000005f82015250565b5f612860601983611dde565b915061286b8261282c565b602082019050919050565b5f6020820190508181035f83015261288d81612854565b9050919050565b7f4e6f7420656e6f75676820617070726f76616c730000000000000000000000005f82015250565b5f6128c8601483611dde565b91506128d382612894565b602082019050919050565b5f6020820190508181035f8301526128f5816128bc565b9050919050565b5f81546129088161205c565b612912818661215c565b9450600182165f811461292c576001811461294157612973565b60ff1983168652811515820286019350612973565b61294a8561229a565b5f5b8381101561296b5781548189015260018201915060208101905061294c565b838801955050505b50505092915050565b5f61298782846128fc565b915081905092915050565b7f5472616e73616374696f6e206661696c656400000000000000000000000000005f82015250565b5f6129c6601283611dde565b91506129d182612992565b602082019050919050565b5f6020820190508181035f8301526129f3816129ba565b905091905056fea2646970667358221220fbd9e32566c62f39cdf0371dc73569d52c4a25d221e0bbe3fd62a803bea93ab164736f6c6343000819003360a06040526040516118ea3803806118ea833981810160405281019061002591906106fd565b828161003782826100c160201b60201c565b50508160405161004690610549565b6100509190610778565b604051809103905ff080158015610069573d5f803e3d5ffd5b5073ffffffffffffffffffffffffffffffffffffffff1660808173ffffffffffffffffffffffffffffffffffffffff16815250506100b96100ae61014560201b60201c565b61014e60201b60201c565b5050506107b8565b6100d0826101a660201b60201c565b8173ffffffffffffffffffffffffffffffffffffffff167fbc7cd75a20ee27fd9adebab32041f755214dbc6bffa90cc0225b39da2e5c2d3b60405160405180910390a25f815111156101325761012c828261027560201b60201c565b50610141565b61014061038460201b60201c565b5b5050565b5f608051905090565b7f7e644d79422f17c01e4894b5f4f588d331ebfa28653d42ae832dc59e38c9798f61017d6103c060201b60201c565b8260405161018c929190610791565b60405180910390a16101a38161041960201b60201c565b50565b5f8173ffffffffffffffffffffffffffffffffffffffff163b0361020157806040517f4c9c8ce30000000000000000000000000000000000000000000000000000000081526004016101f89190610778565b60405180910390fd5b806102337f360894a13ba1a3210667c828492db98dca3e2076cc3735a920a3ca505d382bbc5f1b6104fd60201b60201c565b5f015f6101000a81548173ffffffffffffffffffffffffffffffffffffffff021916908373ffffffffffffffffffffffffffffffffffffffff16021790555050565b60605f610288848461050660201b60201c565b90508080156102c457505f6102a161051a60201b60201c565b11806102c357505f8473ffffffffffffffffffffffffffffffffffffffff163b115b5b156102df576102d761052160201b60201c565b91505061037e565b801561032257836040517f9996b3150000000000000000000000000000000000000000000000000000000081526004016103199190610778565b60405180910390fd5b5f61033161051a60201b60201c565b111561034a5761034561053e60201b60201c565b61037c565b6040517fd6bda27500000000000000000000000000000000000000000000000000000000815260040160405180910390fd5b505b92915050565b5f3411156103be576040517fb398979f00000000000000000000000000000000000000000000000000000000815260040160405180910390fd5b565b5f6103f27fb53127684a568b3173ae13b9f8a6016e243e63b6e8ee1178d6a717850b5d61035f1b6104fd60201b60201c565b5f015f9054906101000a900473ffffffffffffffffffffffffffffffffffffffff16905090565b5f73ffffffffffffffffffffffffffffffffffffffff168173ffffffffffffffffffffffffffffffffffffffff1603610489575f6040517f62e77ba20000000000000000000000000000000000000000000000000000000081526004016104809190610778565b60405180910390fd5b806104bb7fb53127684a568b3173ae13b9f8a6016e243e63b6e8ee1178d6a717850b5d61035f1b6104fd60201b60201c565b5f015f6101000a81548173ffffffffffffffffffffffffffffffffffffffff021916908373ffffffffffffffffffffffffffffffffffffffff16021790555050565b5f819050919050565b5f805f835160208501865af4905092915050565b5f3d905090565b606060405190503d81523d5f602083013e3d602001810160405290565b6040513d5f823e3d81fd5b6109c680610f2483390190565b5f604051905090565b5f80fd5b5f80fd5b5f73ffffffffffffffffffffffffffffffffffffffff82169050919050565b5f61059082610567565b9050919050565b6105a081610586565b81146105aa575f80fd5b50565b5f815190506105bb81610597565b92915050565b5f80fd5b5f80fd5b5f601f19601f8301169050919050565b7f4e487b71000000000000000000000000000000000000000000000000000000005f52604160045260245ffd5b61060f826105c9565b810181811067ffffffffffffffff8211171561062e5761062d6105d9565b5b80604052505050565b5f610640610556565b905061064c8282610606565b919050565b5f67ffffffffffffffff82111561066b5761066a6105d9565b5b610674826105c9565b9050602081019050919050565b8281835e5f83830152505050565b5f6106a161069c84610651565b610637565b9050828152602081018484840111156106bd576106bc6105c5565b5b6106c8848285610681565b509392505050565b5f82601f8301126106e4576106e36105c1565b5b81516106f484826020860161068f565b91505092915050565b5f805f606084860312156107145761071361055f565b5b5f610721868287016105ad565b9350506020610732868287016105ad565b925050604084015167ffffffffffffffff81111561075357610752610563565b5b61075f868287016106d0565b9150509250925092565b61077281610586565b82525050565b5f60208201905061078b5f830184610769565b92915050565b5f6040820190506107a45f830185610769565b6107b16020830184610769565b9392505050565b6080516107546107d05f395f61010401526107545ff3fe608060405261000c61000e565b005b610016610101565b73ffffffffffffffffffffffffffffffffffffffff163373ffffffffffffffffffffffffffffffffffffffff16036100f657634f1ef28660e01b7bffffffffffffffffffffffffffffffffffffffffffffffffffffffff19165f357fffffffff00000000000000000000000000000000000000000000000000000000167bffffffffffffffffffffffffffffffffffffffffffffffffffffffff1916146100e9576040517fd2b576ec00000000000000000000000000000000000000000000000000000000815260040160405180910390fd5b6100f1610128565b6100ff565b6100fe61015c565b5b565b5f7f0000000000000000000000000000000000000000000000000000000000000000905090565b5f805f36600490809261013d939291906104b3565b81019061014a919061068b565b91509150610158828261016e565b5050565b61016c6101676101e0565b6101ee565b565b6101778261020d565b8173ffffffffffffffffffffffffffffffffffffffff167fbc7cd75a20ee27fd9adebab32041f755214dbc6bffa90cc0225b39da2e5c2d3b60405160405180910390a25f815111156101d3576101cd82826102d6565b506101dc565b6101db6103c7565b5b5050565b5f6101e9610403565b905090565b365f80375f80365f845af43d5f803e805f8114610209573d5ff35b3d5ffd5b5f8173ffffffffffffffffffffffffffffffffffffffff163b0361026857806040517f4c9c8ce300000000000000000000000000000000000000000000000000000000815260040161025f9190610705565b60405180910390fd5b806102947f360894a13ba1a3210667c828492db98dca3e2076cc3735a920a3ca505d382bbc5f1b610456565b5f015f6101000a81548173ffffffffffffffffffffffffffffffffffffffff021916908373ffffffffffffffffffffffffffffffffffffffff16021790555050565b60605f6102e3848461045f565b905080801561031957505f6102f6610473565b118061031857505f8473ffffffffffffffffffffffffffffffffffffffff163b115b5b1561032e5761032661047a565b9150506103c1565b801561037157836040517f9996b3150000000000000000000000000000000000000000000000000000000081526004016103689190610705565b60405180910390fd5b5f61037a610473565b111561038d57610388610497565b6103bf565b6040517fd6bda27500000000000000000000000000000000000000000000000000000000815260040160405180910390fd5b505b92915050565b5f341115610401576040517fb398979f00000000000000000000000000000000000000000000000000000000815260040160405180910390fd5b565b5f61042f7f360894a13ba1a3210667c828492db98dca3e2076cc3735a920a3ca505d382bbc5f1b610456565b5f015f9054906101000a900473ffffffffffffffffffffffffffffffffffffffff16905090565b5f819050919050565b5f805f835160208501865af4905092915050565b5f3d905090565b606060405190503d81523d5f602083013e3d602001810160405290565b6040513d5f823e3d81fd5b5f604051905090565b5f80fd5b5f80fd5b5f80858511156104c6576104c56104ab565b5b838611156104d7576104d66104af565b5b6001850283019150848603905094509492505050565b5f80fd5b5f80fd5b5f73ffffffffffffffffffffffffffffffffffffffff82169050919050565b5f61051e826104f5565b9050919050565b61052e81610514565b8114610538575f80fd5b50565b5f8135905061054981610525565b92915050565b5f80fd5b5f80fd5b5f601f19601f8301169050919050565b7f4e487b71000000000000000000000000000000000000000000000000000000005f52604160045260245ffd5b61059d82610557565b810181811067ffffffffffffffff821117156105bc576105bb610567565b5b80604052505050565b5f6105ce6104a2565b90506105da8282610594565b919050565b5f67ffffffffffffffff8211156105f9576105f8610567565b5b61060282610557565b9050602081019050919050565b828183375f83830152505050565b5f61062f61062a846105df565b6105c5565b90508281526020810184848401111561064b5761064a610553565b5b61065684828561060f565b509392505050565b5f82601f8301126106725761067161054f565b5b813561068284826020860161061d565b91505092915050565b5f80604083850312156106a1576106a06104ed565b5b5f6106ae8582860161053b565b925050602083013567ffffffffffffffff8111156106cf576106ce6104f1565b5b6106db8582860161065e565b9150509250929050565b5f6106ef826104f5565b9050919050565b6106ff816106e5565b82525050565b5f6020820190506107185f8301846106f6565b9291505056fea264697066735822122060d9500a829d3e9ab4c68691d1fda78deaeea7cfb1bb46447d0beab5bbf6d5d364736f6c63430008190033608060405234801561000f575f80fd5b506040516109c63803806109c6833981810160405281019061003191906101d7565b805f73ffffffffffffffffffffffffffffffffffffffff168173ffffffffffffffffffffffffffffffffffffffff16036100a2575f6040517f1e4fbdf70000000000000000000000000000000000000000000000000000000081526004016100999190610211565b60405180910390fd5b6100b1816100b860201b60201c565b505061022a565b5f805f9054906101000a900473ffffffffffffffffffffffffffffffffffffffff169050815f806101000a81548173ffffffffffffffffffffffffffffffffffffffff021916908373ffffffffffffffffffffffffffffffffffffffff1602179055508173ffffffffffffffffffffffffffffffffffffffff168173ffffffffffffffffffffffffffffffffffffffff167f8be0079c531659141344cd1fd0a4f28419497f9722a3daafe3b4186f6b6457e060405160405180910390a35050565b5f80fd5b5f73ffffffffffffffffffffffffffffffffffffffff82169050919050565b5f6101a68261017d565b9050919050565b6101b68161019c565b81146101c0575f80fd5b50565b5f815190506101d1816101ad565b92915050565b5f602082840312156101ec576101eb610179565b5b5f6101f9848285016101c3565b91505092915050565b61020b8161019c565b82525050565b5f6020820190506102245f830184610202565b92915050565b61078f806102375f395ff3fe608060405260043610610049575f3560e01c8063715018a61461004d5780638da5cb5b146100635780639623609d1461008d578063ad3cb1cc146100a9578063f2fde38b146100d3575b5f80fd5b348015610058575f80fd5b506100616100fb565b005b34801561006e575f80fd5b5061007761010e565b60405161008491906103f7565b60405180910390f35b6100a760048036038101906100a291906105c2565b610135565b005b3480156100b4575f80fd5b506100bd6101ac565b6040516100ca919061068e565b60405180910390f35b3480156100de575f80fd5b506100f960048036038101906100f491906106ae565b6101e5565b005b610103610269565b61010c5f6102f0565b565b5f805f9054906101000a900473ffffffffffffffffffffffffffffffffffffffff16905090565b61013d610269565b8273ffffffffffffffffffffffffffffffffffffffff16634f1ef2863484846040518463ffffffff1660e01b815260040161017992919061072b565b5f604051808303818588803b158015610190575f80fd5b505af11580156101a2573d5f803e3d5ffd5b5050505050505050565b6040518060400160405280600581526020017f352e302e3000000000000000000000000000000000000000000000000000000081525081565b6101ed610269565b5f73ffffffffffffffffffffffffffffffffffffffff168173ffffffffffffffffffffffffffffffffffffffff160361025d575f6040517f1e4fbdf700000000000000000000000000000000000000000000000000000000815260040161025491906103f7565b60405180910390fd5b610266816102f0565b50565b6102716103b1565b73ffffffffffffffffffffffffffffffffffffffff1661028f61010e565b73ffffffffffffffffffffffffffffffffffffffff16146102ee576102b26103b1565b6040517f118cdaa70000000000000000000000000000000000000000000000000000000081526004016102e591906103f7565b60405180910390fd5b565b5f805f9054906101000a900473ffffffffffffffffffffffffffffffffffffffff169050815f806101000a81548173ffffffffffffffffffffffffffffffffffffffff021916908373ffffffffffffffffffffffffffffffffffffffff1602179055508173ffffffffffffffffffffffffffffffffffffffff168173ffffffffffffffffffffffffffffffffffffffff167f8be0079c531659141344cd1fd0a4f28419497f9722a3daafe3b4186f6b6457e060405160405180910390a35050565b5f33905090565b5f73ffffffffffffffffffffffffffffffffffffffff82169050919050565b5f6103e1826103b8565b9050919050565b6103f1816103d7565b82525050565b5f60208201905061040a5f8301846103e8565b92915050565b5f604051905090565b5f80fd5b5f80fd5b5f61042b826103d7565b9050919050565b61043b81610421565b8114610445575f80fd5b50565b5f8135905061045681610432565b92915050565b610465816103d7565b811461046f575f80fd5b50565b5f813590506104808161045c565b92915050565b5f80fd5b5f80fd5b5f601f19601f8301169050919050565b7f4e487b71000000000000000000000000000000000000000000000000000000005f52604160045260245ffd5b6104d48261048e565b810181811067ffffffffffffffff821117156104f3576104f261049e565b5b80604052505050565b5f610505610410565b905061051182826104cb565b919050565b5f67ffffffffffffffff8211156105305761052f61049e565b5b6105398261048e565b9050602081019050919050565b828183375f83830152505050565b5f61056661056184610516565b6104fc565b9050828152602081018484840111156105825761058161048a565b5b61058d848285610546565b509392505050565b5f82601f8301126105a9576105a8610486565b5b81356105b9848260208601610554565b91505092915050565b5f805f606084860312156105d9576105d8610419565b5b5f6105e686828701610448565b93505060206105f786828701610472565b925050604084013567ffffffffffffffff8111156106185761061761041d565b5b61062486828701610595565b9150509250925092565b5f81519050919050565b5f82825260208201905092915050565b8281835e5f83830152505050565b5f6106608261062e565b61066a8185610638565b935061067a818560208601610648565b6106838161048e565b840191505092915050565b5f6020820190508181035f8301526106a68184610656565b905092915050565b5f602082840312156106c3576106c2610419565b5b5f6106d084828501610472565b91505092915050565b5f81519050919050565b5f82825260208201905092915050565b5f6106fd826106d9565b61070781856106e3565b9350610717818560208601610648565b6107208161048e565b840191505092915050565b5f60408201905061073e5f8301856103e8565b818103602083015261075081846106f3565b9050939250505056fea26469706673582212203a2a520e6e9c563f1facc651531336714ee2fc9df5415865d6e1ad88bae05b8e64736f6c63430008190033a264697066735822122058d579d0b05bd7e82177a789780af436df133c3f6b7fb8521347ed37e39f876c64736f6c63430008190033","linkReferences":{}},"methodIdentifiers":{"admin()":"f851a440","campaignImplementation()":"62a6e065","campaigns(uint256)":"141961bc","createCampaign(address,uint256,uint256,address[],uint256,address,string)":"1acc25fc"},"id":58}