{"abi":[{"type":"constructor","inputs":[{"name":"initialOwner","type":"address","internalType":"address"}],"stateMutability":"nonpayable"},{"type":"function","name":"DOMAIN_SEPARATOR","inputs":[],"outputs":[{"name":"","type":"bytes32","internalType":"bytes32"}],"stateMutability":"view"},{"type":"function","name":"allowance","inputs":[{"name":"owner","type":"address","internalType":"address"},{"name":"spender","type":"address","internalType":"address"}],"outputs":[{"name":"","type":"uint256","internalType":"uint256"}],"stateMutability":"view"},{"type":"function","name":"approve","inputs":[{"name":"spender","type":"address","internalType":"address"},{"name":"value","type":"uint256","internalType":"uint256"}],"outputs":[{"name":"","type":"bool","internalType":"bool"}],"stateMutability":"nonpayable"},{"type":"function","name":"balanceOf","inputs":[{"name":"account","type":"address","internalType":"address"}],"outputs":[{"name":"","type":"uint256","internalType":"uint256"}],"stateMutability":"view"},{"type":"function","name":"decimals","inputs":[],"outputs":[{"name":"","type":"uint8","internalType":"uint8"}],"stateMutability":"view"},{"type":"function","name":"eip712Domain","inputs":[],"outputs":[{"name":"fields","type":"bytes1","internalType":"bytes1"},{"name":"name","type":"string","internalType":"string"},{"name":"version","type":"string","internalType":"string"},{"name":"chainId","type":"uint256","internalType":"uint256"},{"name":"verifyingContract","type":"address","internalType":"address"},{"name":"salt","type":"bytes32","internalType":"bytes32"},{"name":"extensions","type":"uint256[]","internalType":"uint256[]"}],"stateMutability":"view"},{"type":"function","name":"mint","inputs":[{"name":"to","type":"address","internalType":"address"},{"name":"amount","type":"uint256","internalType":"uint256"}],"outputs":[],"stateMutability":"nonpayable"},{"type":"function","name":"name","inputs":[],"outputs":[{"name":"","type":"string","internalType":"string"}],"stateMutability":"view"},{"type":"function","name":"nonces","inputs":[{"name":"owner","type":"address","internalType":"address"}],"outputs":[{"name":"","type":"uint256","internalType":"uint256"}],"stateMutability":"view"},{"type":"function","name":"owner","inputs":[],"outputs":[{"name":"","type":"address","internalType":"address"}],"stateMutability":"view"},{"type":"function","name":"permit","inputs":[{"name":"owner","type":"address","internalType":"address"},{"name":"spender","type":"address","internalType":"address"},{"name":"value","type":"uint256","internalType":"uint256"},{"name":"deadline","type":"uint256","internalType":"uint256"},{"name":"v","type":"uint8","internalType":"uint8"},{"name":"r","type":"bytes32","internalType":"bytes32"},{"name":"s","type":"bytes32","internalType":"bytes32"}],"outputs":[],"stateMutability":"nonpayable"},{"type":"function","name":"renounceOwnership","inputs":[],"outputs":[],"stateMutability":"nonpayable"},{"type":"function","name":"symbol","inputs":[],"outputs":[{"name":"","type":"string","internalType":"string"}],"stateMutability":"view"},{"type":"function","name":"totalSupply","inputs":[],"outputs":[{"name":"","type":"uint256","internalType":"uint256"}],"stateMutability":"view"},{"type":"function","name":"transfer","inputs":[{"name":"to","type":"address","internalType":"address"},{"name":"value","type":"uint256","internalType":"uint256"}],"outputs":[{"name":"","type":"bool","internalType":"bool"}],"stateMutability":"nonpayable"},{"type":"function","name":"transferFrom","inputs":[{"name":"from","type":"address","internalType":"address"},{"name":"to","type":"address","internalType":"address"},{"name":"value","type":"uint256","internalType":"uint256"}],"outputs":[{"name":"","type":"bool","internalType":"bool"}],"stateMutability":"nonpayable"},{"type":"function","name":"transferOwnership","inputs":[{"name":"newOwner","type":"address","internalType":"address"}],"outputs":[],"stateMutability":"nonpayable"},{"type":"event","name":"Approval","inputs":[{"name":"owner","type":"address","indexed":true,"internalType":"address"},{"name":"spender","type":"address","indexed":true,"internalType":"address"},{"name":"value","type":"uint256","indexed":false,"internalType":"uint256"}],"anonymous":false},{"type":"event","name":"EIP712DomainChanged","inputs":[],"anonymous":false},{"type":"event","name":"OwnershipTransferred","inputs":[{"name":"previousOwner","type":"address","indexed":true,"internalType":"address"},{"name":"newOwner","type":"address","indexed":true,"internalType":"address"}],"anonymous":false},{"type":"event","name":"Transfer","inputs":[{"name":"from","type":"address","indexed":true,"internalType":"address"},{"name":"to","type":"address","indexed":true,"internalType":"address"},{"name":"value","type":"uint256","indexed":false,"internalType":"uint256"}],"anonymous":false},{"type":"error","name":"ECDSAInvalidSignature","inputs":[]},{"type":"error","name":"ECDSAInvalidSignatureLength","inputs":[{"name":"length","type":"uint256","internalType":"uint256"}]},{"type":"error","name":"ECDSAInvalidSignatureS","inputs":[{"name":"s","type":"bytes32","internalType":"bytes32"}]},{"type":"error","name":"ERC20InsufficientAllowance","inputs":[{"name":"spender","type":"address","internalType":"address"},{"name":"allowance","type":"uint256","internalType":"uint256"},{"name":"needed","type":"uint256","internalType":"uint256"}]},{"type":"error","name":"ERC20InsufficientBalance","inputs":[{"name":"sender","type":"address","internalType":"address"},{"name":"balance","type":"uint256","internalType":"uint256"},{"name":"needed","type":"uint256","internalType":"uint256"}]},{"type":"error","name":"ERC20InvalidApprover","inputs":[{"name":"approver","type":"address","internalType":"address"}]},{"type":"error","name":"ERC20InvalidReceiver","inputs":[{"name":"receiver","type":"address","internalType":"address"}]},{"type":"error","name":"ERC20InvalidSender","inputs":[{"name":"sender","type":"address","internalType":"address"}]},{"type":"error","name":"ERC20InvalidSpender","inputs":[{"name":"spender","type":"address","internalType":"address"}]},{"type":"error","name":"ERC2612ExpiredSignature","inputs":[{"name":"deadline","type":"uint256","internalType":"uint256"}]},{"type":"error","name":"ERC2612InvalidSigner","inputs":[{"name":"signer","type":"address","internalType":"address"},{"name":"owner","type":"address","internalType":"address"}]},{"type":"error","name":"InvalidAccountNonce","inputs":[{"name":"account","type":"address","internalType":"address"},{"name":"currentNonce","type":"uint256","internalType":"uint256"}]},{"type":"error","name":"InvalidShortString","inputs":[]},{"type":"error","name":"OwnableInvalidOwner","inputs":[{"name":"owner","type":"address","internalType":"address"}]},{"type":"error","name":"OwnableUnauthorizedAccount","inputs":[{"name":"account","type":"address","internalType":"address"}]},{"type":"error","name":"StringTooLong","inputs":[{"name":"str","type":"string","internalType":"string"}]}],"bytecode":{"object":"0x610160604052348015610010575f5ffd5b5060405161286538038061286583398181016040528101906100329190610495565b6040518060400160405280600b81526020017f526577617264546f6b656e000000000000000000000000000000000000000000815250806040518060400160405280600181526020017f3100000000000000000000000000000000000000000000000000000000000000815250836040518060400160405280600b81526020017f526577617264546f6b656e0000000000000000000000000000000000000000008152506040518060400160405280600381526020017f5257440000000000000000000000000000000000000000000000000000000000815250816003908161011b91906106fd565b50806004908161012b91906106fd565b5050505f73ffffffffffffffffffffffffffffffffffffffff168173ffffffffffffffffffffffffffffffffffffffff160361019e575f6040517f1e4fbdf700000000000000000000000000000000000000000000000000000000815260040161019591906107db565b60405180910390fd5b6101ad8161025f60201b60201c565b506101c260068361032260201b90919060201c565b61012081815250506101de60078261032260201b90919060201c565b6101408181525050818051906020012060e08181525050808051906020012061010081815250504660a0818152505061021b61036f60201b60201c565b608081815250503073ffffffffffffffffffffffffffffffffffffffff1660c08173ffffffffffffffffffffffffffffffffffffffff168152505050505050610985565b5f60055f9054906101000a900473ffffffffffffffffffffffffffffffffffffffff1690508160055f6101000a81548173ffffffffffffffffffffffffffffffffffffffff021916908373ffffffffffffffffffffffffffffffffffffffff1602179055508173ffffffffffffffffffffffffffffffffffffffff168173ffffffffffffffffffffffffffffffffffffffff167f8be0079c531659141344cd1fd0a4f28419497f9722a3daafe3b4186f6b6457e060405160405180910390a35050565b5f6020835110156103435761033c836103c960201b60201c565b9050610369565b826103538361042e60201b60201c565b5f01908161036191906106fd565b5060ff5f1b90505b92915050565b5f7f8b73c3c69bb8fe3d512ecc4cf759cc79239f7b179b0ffacaa9a75d522b39400f60e0516101005146306040516020016103ae95949392919061081b565b60405160208183030381529060405280519060200120905090565b5f5f829050601f8151111561041557826040517f305a27a900000000000000000000000000000000000000000000000000000000815260040161040c91906108d2565b60405180910390fd5b8051816104219061091f565b5f1c175f1b915050919050565b5f819050919050565b5f5ffd5b5f73ffffffffffffffffffffffffffffffffffffffff82169050919050565b5f6104648261043b565b9050919050565b6104748161045a565b811461047e575f5ffd5b50565b5f8151905061048f8161046b565b92915050565b5f602082840312156104aa576104a9610437565b5b5f6104b784828501610481565b91505092915050565b5f81519050919050565b7f4e487b71000000000000000000000000000000000000000000000000000000005f52604160045260245ffd5b7f4e487b71000000000000000000000000000000000000000000000000000000005f52602260045260245ffd5b5f600282049050600182168061053b57607f821691505b60208210810361054e5761054d6104f7565b5b50919050565b5f819050815f5260205f209050919050565b5f6020601f8301049050919050565b5f82821b905092915050565b5f600883026105b07fffffffffffffffffffffffffffffffffffffffffffffffffffffffffffffffff82610575565b6105ba8683610575565b95508019841693508086168417925050509392505050565b5f819050919050565b5f819050919050565b5f6105fe6105f96105f4846105d2565b6105db565b6105d2565b9050919050565b5f819050919050565b610617836105e4565b61062b61062382610605565b848454610581565b825550505050565b5f5f905090565b610642610633565b61064d81848461060e565b505050565b5b81811015610670576106655f8261063a565b600181019050610653565b5050565b601f8211156106b55761068681610554565b61068f84610566565b8101602085101561069e578190505b6106b26106aa85610566565b830182610652565b50505b505050565b5f82821c905092915050565b5f6106d55f19846008026106ba565b1980831691505092915050565b5f6106ed83836106c6565b9150826002028217905092915050565b610706826104c0565b67ffffffffffffffff81111561071f5761071e6104ca565b5b6107298254610524565b610734828285610674565b5f60209050601f831160018114610765575f8415610753578287015190505b61075d85826106e2565b8655506107c4565b601f19841661077386610554565b5f5b8281101561079a57848901518255600182019150602085019450602081019050610775565b868310156107b757848901516107b3601f8916826106c6565b8355505b6001600288020188555050505b505050505050565b6107d58161045a565b82525050565b5f6020820190506107ee5f8301846107cc565b92915050565b5f819050919050565b610806816107f4565b82525050565b610815816105d2565b82525050565b5f60a08201905061082e5f8301886107fd565b61083b60208301876107fd565b61084860408301866107fd565b610855606083018561080c565b61086260808301846107cc565b9695505050505050565b5f82825260208201905092915050565b8281835e5f83830152505050565b5f601f19601f8301169050919050565b5f6108a4826104c0565b6108ae818561086c565b93506108be81856020860161087c565b6108c78161088a565b840191505092915050565b5f6020820190508181035f8301526108ea818461089a565b905092915050565b5f81519050919050565b5f819050602082019050919050565b5f61091682516107f4565b80915050919050565b5f610929826108f2565b82610933846108fc565b905061093e8161090b565b9250602082101561097e576109797fffffffffffffffffffffffffffffffffffffffffffffffffffffffffffffffff83602003600802610575565b831692505b5050919050565b60805160a05160c05160e051610100516101205161014051611e8f6109d65f395f610d5001525f610d1501525f61124901525f61122801525f610a4a01525f610aa001525f610ac90152611e8f5ff3fe608060405234801561000f575f5ffd5b5060043610610109575f3560e01c8063715018a6116100a057806395d89b411161006f57806395d89b41146102ad578063a9059cbb146102cb578063d505accf146102fb578063dd62ed3e14610317578063f2fde38b1461034757610109565b8063715018a6146102315780637ecebe001461023b57806384b0196e1461026b5780638da5cb5b1461028f57610109565b8063313ce567116100dc578063313ce567146101a95780633644e515146101c757806340c10f19146101e557806370a082311461020157610109565b806306fdde031461010d578063095ea7b31461012b57806318160ddd1461015b57806323b872dd14610179575b5f5ffd5b610115610363565b60405161012291906116ff565b60405180910390f35b610145600480360381019061014091906117b0565b6103f3565b6040516101529190611808565b60405180910390f35b610163610415565b6040516101709190611830565b60405180910390f35b610193600480360381019061018e9190611849565b61041e565b6040516101a09190611808565b60405180910390f35b6101b161044c565b6040516101be91906118b4565b60405180910390f35b6101cf610454565b6040516101dc91906118e5565b60405180910390f35b6101ff60048036038101906101fa91906117b0565b610462565b005b61021b600480360381019061021691906118fe565b610478565b6040516102289190611830565b60405180910390f35b6102396104bd565b005b610255600480360381019061025091906118fe565b6104d0565b6040516102629190611830565b60405180910390f35b6102736104e1565b6040516102869796959493929190611a29565b60405180910390f35b610297610586565b6040516102a49190611aab565b60405180910390f35b6102b56105ae565b6040516102c291906116ff565b60405180910390f35b6102e560048036038101906102e091906117b0565b61063e565b6040516102f29190611808565b60405180910390f35b61031560048036038101906103109190611b18565b610660565b005b610331600480360381019061032c9190611bb5565b6107a5565b60405161033e9190611830565b60405180910390f35b610361600480360381019061035c91906118fe565b610827565b005b60606003805461037290611c20565b80601f016020809104026020016040519081016040528092919081815260200182805461039e90611c20565b80156103e95780601f106103c0576101008083540402835291602001916103e9565b820191905f5260205f20905b8154815290600101906020018083116103cc57829003601f168201915b5050505050905090565b5f5f6103fd6108ab565b905061040a8185856108b2565b600191505092915050565b5f600254905090565b5f5f6104286108ab565b90506104358582856108c4565b610440858585610957565b60019150509392505050565b5f6012905090565b5f61045d610a47565b905090565b61046a610afd565b6104748282610b84565b5050565b5f5f5f8373ffffffffffffffffffffffffffffffffffffffff1673ffffffffffffffffffffffffffffffffffffffff1681526020019081526020015f20549050919050565b6104c5610afd565b6104ce5f610c03565b565b5f6104da82610cc6565b9050919050565b5f6060805f5f5f60606104f2610d0c565b6104fa610d47565b46305f5f1b5f67ffffffffffffffff81111561051957610518611c50565b5b6040519080825280602002602001820160405280156105475781602001602082028036833780820191505090505b507f0f00000000000000000000000000000000000000000000000000000000000000959493929190965096509650965096509650965090919293949596565b5f60055f9054906101000a900473ffffffffffffffffffffffffffffffffffffffff16905090565b6060600480546105bd90611c20565b80601f01602080910402602001604051908101604052809291908181526020018280546105e990611c20565b80156106345780601f1061060b57610100808354040283529160200191610634565b820191905f5260205f20905b81548152906001019060200180831161061757829003601f168201915b5050505050905090565b5f5f6106486108ab565b9050610655818585610957565b600191505092915050565b834211156106a557836040517f6279130200000000000000000000000000000000000000000000000000000000815260040161069c9190611830565b60405180910390fd5b5f7f6e71edae12b1b97f4d1f60370fef10105fa2faae0126114a169c64845d6126c98888886106d38c610d82565b896040516020016106e996959493929190611c7d565b6040516020818303038152906040528051906020012090505f61070b82610dd5565b90505f61071a82878787610dee565b90508973ffffffffffffffffffffffffffffffffffffffff168173ffffffffffffffffffffffffffffffffffffffff161461078e57808a6040517f4b800e46000000000000000000000000000000000000000000000000000000008152600401610785929190611cdc565b60405180910390fd5b6107998a8a8a6108b2565b50505050505050505050565b5f60015f8473ffffffffffffffffffffffffffffffffffffffff1673ffffffffffffffffffffffffffffffffffffffff1681526020019081526020015f205f8373ffffffffffffffffffffffffffffffffffffffff1673ffffffffffffffffffffffffffffffffffffffff1681526020019081526020015f2054905092915050565b61082f610afd565b5f73ffffffffffffffffffffffffffffffffffffffff168173ffffffffffffffffffffffffffffffffffffffff160361089f575f6040517f1e4fbdf70000000000000000000000000000000000000000000000000000000081526004016108969190611aab565b60405180910390fd5b6108a881610c03565b50565b5f33905090565b6108bf8383836001610e1c565b505050565b5f6108cf84846107a5565b90507fffffffffffffffffffffffffffffffffffffffffffffffffffffffffffffffff8110156109515781811015610942578281836040517ffb8f41b200000000000000000000000000000000000000000000000000000000815260040161093993929190611d03565b60405180910390fd5b61095084848484035f610e1c565b5b50505050565b5f73ffffffffffffffffffffffffffffffffffffffff168373ffffffffffffffffffffffffffffffffffffffff16036109c7575f6040517f96c6fd1e0000000000000000000000000000000000000000000000000000000081526004016109be9190611aab565b60405180910390fd5b5f73ffffffffffffffffffffffffffffffffffffffff168273ffffffffffffffffffffffffffffffffffffffff1603610a37575f6040517fec442f05000000000000000000000000000000000000000000000000000000008152600401610a2e9190611aab565b60405180910390fd5b610a42838383610feb565b505050565b5f7f000000000000000000000000000000000000000000000000000000000000000073ffffffffffffffffffffffffffffffffffffffff163073ffffffffffffffffffffffffffffffffffffffff16148015610ac257507f000000000000000000000000000000000000000000000000000000000000000046145b15610aef577f00000000000000000000000000000000000000000000000000000000000000009050610afa565b610af7611204565b90505b90565b610b056108ab565b73ffffffffffffffffffffffffffffffffffffffff16610b23610586565b73ffffffffffffffffffffffffffffffffffffffff1614610b8257610b466108ab565b6040517f118cdaa7000000000000000000000000000000000000000000000000000000008152600401610b799190611aab565b60405180910390fd5b565b5f73ffffffffffffffffffffffffffffffffffffffff168273ffffffffffffffffffffffffffffffffffffffff1603610bf4575f6040517fec442f05000000000000000000000000000000000000000000000000000000008152600401610beb9190611aab565b60405180910390fd5b610bff5f8383610feb565b5050565b5f60055f9054906101000a900473ffffffffffffffffffffffffffffffffffffffff1690508160055f6101000a81548173ffffffffffffffffffffffffffffffffffffffff021916908373ffffffffffffffffffffffffffffffffffffffff1602179055508173ffffffffffffffffffffffffffffffffffffffff168173ffffffffffffffffffffffffffffffffffffffff167f8be0079c531659141344cd1fd0a4f28419497f9722a3daafe3b4186f6b6457e060405160405180910390a35050565b5f60085f8373ffffffffffffffffffffffffffffffffffffffff1673ffffffffffffffffffffffffffffffffffffffff1681526020019081526020015f20549050919050565b6060610d4260067f000000000000000000000000000000000000000000000000000000000000000061129990919063ffffffff16565b905090565b6060610d7d60077f000000000000000000000000000000000000000000000000000000000000000061129990919063ffffffff16565b905090565b5f60085f8373ffffffffffffffffffffffffffffffffffffffff1673ffffffffffffffffffffffffffffffffffffffff1681526020019081526020015f205f815480929190600101919050559050919050565b5f610de7610de1610a47565b83611346565b9050919050565b5f5f5f5f610dfe88888888611386565b925092509250610e0e828261146d565b829350505050949350505050565b5f73ffffffffffffffffffffffffffffffffffffffff168473ffffffffffffffffffffffffffffffffffffffff1603610e8c575f6040517fe602df05000000000000000000000000000000000000000000000000000000008152600401610e839190611aab565b60405180910390fd5b5f73ffffffffffffffffffffffffffffffffffffffff168373ffffffffffffffffffffffffffffffffffffffff1603610efc575f6040517f94280d62000000000000000000000000000000000000000000000000000000008152600401610ef39190611aab565b60405180910390fd5b8160015f8673ffffffffffffffffffffffffffffffffffffffff1673ffffffffffffffffffffffffffffffffffffffff1681526020019081526020015f205f8573ffffffffffffffffffffffffffffffffffffffff1673ffffffffffffffffffffffffffffffffffffffff1681526020019081526020015f20819055508015610fe5578273ffffffffffffffffffffffffffffffffffffffff168473ffffffffffffffffffffffffffffffffffffffff167f8c5be1e5ebec7d5bd14f71427d1e84f3dd0314c0f7b2291e5b200ac8c7c3b92584604051610fdc9190611830565b60405180910390a35b50505050565b5f73ffffffffffffffffffffffffffffffffffffffff168373ffffffffffffffffffffffffffffffffffffffff160361103b578060025f82825461102f9190611d65565b92505081905550611109565b5f5f5f8573ffffffffffffffffffffffffffffffffffffffff1673ffffffffffffffffffffffffffffffffffffffff1681526020019081526020015f20549050818110156110c4578381836040517fe450d38c0000000000000000000000000000000000000000000000000000000081526004016110bb93929190611d03565b60405180910390fd5b8181035f5f8673ffffffffffffffffffffffffffffffffffffffff1673ffffffffffffffffffffffffffffffffffffffff1681526020019081526020015f2081905550505b5f73ffffffffffffffffffffffffffffffffffffffff168273ffffffffffffffffffffffffffffffffffffffff1603611150578060025f828254039250508190555061119a565b805f5f8473ffffffffffffffffffffffffffffffffffffffff1673ffffffffffffffffffffffffffffffffffffffff1681526020019081526020015f205f82825401925050819055505b8173ffffffffffffffffffffffffffffffffffffffff168373ffffffffffffffffffffffffffffffffffffffff167fddf252ad1be2c89b69c2b068fc378daa952ba7f163c4a11628f55a4df523b3ef836040516111f79190611830565b60405180910390a3505050565b5f7f8b73c3c69bb8fe3d512ecc4cf759cc79239f7b179b0ffacaa9a75d522b39400f7f00000000000000000000000000000000000000000000000000000000000000007f0000000000000000000000000000000000000000000000000000000000000000463060405160200161127e959493929190611d98565b60405160208183030381529060405280519060200120905090565b606060ff5f1b83146112b5576112ae836115cf565b9050611340565b8180546112c190611c20565b80601f01602080910402602001604051908101604052809291908181526020018280546112ed90611c20565b80156113385780601f1061130f57610100808354040283529160200191611338565b820191905f5260205f20905b81548152906001019060200180831161131b57829003601f168201915b505050505090505b92915050565b5f6040517f190100000000000000000000000000000000000000000000000000000000000081528360028201528260228201526042812091505092915050565b5f5f5f7f7fffffffffffffffffffffffffffffff5d576e7357a4501ddfe92f46681b20a0845f1c11156113c2575f600385925092509250611463565b5f6001888888886040515f81526020016040526040516113e59493929190611de9565b6020604051602081039080840390855afa158015611405573d5f5f3e3d5ffd5b5050506020604051035190505f73ffffffffffffffffffffffffffffffffffffffff168173ffffffffffffffffffffffffffffffffffffffff1603611456575f60015f5f1b93509350935050611463565b805f5f5f1b935093509350505b9450945094915050565b5f60038111156114805761147f611e2c565b5b82600381111561149357611492611e2c565b5b03156115cb57600160038111156114ad576114ac611e2c565b5b8260038111156114c0576114bf611e2c565b5b036114f7576040517ff645eedf00000000000000000000000000000000000000000000000000000000815260040160405180910390fd5b6002600381111561150b5761150a611e2c565b5b82600381111561151e5761151d611e2c565b5b0361156257805f1c6040517ffce698f70000000000000000000000000000000000000000000000000000000081526004016115599190611830565b60405180910390fd5b60038081111561157557611574611e2c565b5b82600381111561158857611587611e2c565b5b036115ca57806040517fd78bce0c0000000000000000000000000000000000000000000000000000000081526004016115c191906118e5565b60405180910390fd5b5b5050565b60605f6115db83611641565b90505f602067ffffffffffffffff8111156115f9576115f8611c50565b5b6040519080825280601f01601f19166020018201604052801561162b5781602001600182028036833780820191505090505b5090508181528360208201528092505050919050565b5f5f60ff835f1c169050601f811115611686576040517fb3512b0c00000000000000000000000000000000000000000000000000000000815260040160405180910390fd5b80915050919050565b5f81519050919050565b5f82825260208201905092915050565b8281835e5f83830152505050565b5f601f19601f8301169050919050565b5f6116d18261168f565b6116db8185611699565b93506116eb8185602086016116a9565b6116f4816116b7565b840191505092915050565b5f6020820190508181035f83015261171781846116c7565b905092915050565b5f5ffd5b5f73ffffffffffffffffffffffffffffffffffffffff82169050919050565b5f61174c82611723565b9050919050565b61175c81611742565b8114611766575f5ffd5b50565b5f8135905061177781611753565b92915050565b5f819050919050565b61178f8161177d565b8114611799575f5ffd5b50565b5f813590506117aa81611786565b92915050565b5f5f604083850312156117c6576117c561171f565b5b5f6117d385828601611769565b92505060206117e48582860161179c565b9150509250929050565b5f8115159050919050565b611802816117ee565b82525050565b5f60208201905061181b5f8301846117f9565b92915050565b61182a8161177d565b82525050565b5f6020820190506118435f830184611821565b92915050565b5f5f5f606084860312156118605761185f61171f565b5b5f61186d86828701611769565b935050602061187e86828701611769565b925050604061188f8682870161179c565b9150509250925092565b5f60ff82169050919050565b6118ae81611899565b82525050565b5f6020820190506118c75f8301846118a5565b92915050565b5f819050919050565b6118df816118cd565b82525050565b5f6020820190506118f85f8301846118d6565b92915050565b5f602082840312156119135761191261171f565b5b5f61192084828501611769565b91505092915050565b5f7fff0000000000000000000000000000000000000000000000000000000000000082169050919050565b61195d81611929565b82525050565b61196c81611742565b82525050565b5f81519050919050565b5f82825260208201905092915050565b5f819050602082019050919050565b6119a48161177d565b82525050565b5f6119b5838361199b565b60208301905092915050565b5f602082019050919050565b5f6119d782611972565b6119e1818561197c565b93506119ec8361198c565b805f5b83811015611a1c578151611a0388826119aa565b9750611a0e836119c1565b9250506001810190506119ef565b5085935050505092915050565b5f60e082019050611a3c5f83018a611954565b8181036020830152611a4e81896116c7565b90508181036040830152611a6281886116c7565b9050611a716060830187611821565b611a7e6080830186611963565b611a8b60a08301856118d6565b81810360c0830152611a9d81846119cd565b905098975050505050505050565b5f602082019050611abe5f830184611963565b92915050565b611acd81611899565b8114611ad7575f5ffd5b50565b5f81359050611ae881611ac4565b92915050565b611af7816118cd565b8114611b01575f5ffd5b50565b5f81359050611b1281611aee565b92915050565b5f5f5f5f5f5f5f60e0888a031215611b3357611b3261171f565b5b5f611b408a828b01611769565b9750506020611b518a828b01611769565b9650506040611b628a828b0161179c565b9550506060611b738a828b0161179c565b9450506080611b848a828b01611ada565b93505060a0611b958a828b01611b04565b92505060c0611ba68a828b01611b04565b91505092959891949750929550565b5f5f60408385031215611bcb57611bca61171f565b5b5f611bd885828601611769565b9250506020611be985828601611769565b9150509250929050565b7f4e487b71000000000000000000000000000000000000000000000000000000005f52602260045260245ffd5b5f6002820490506001821680611c3757607f821691505b602082108103611c4a57611c49611bf3565b5b50919050565b7f4e487b71000000000000000000000000000000000000000000000000000000005f52604160045260245ffd5b5f60c082019050611c905f8301896118d6565b611c9d6020830188611963565b611caa6040830187611963565b611cb76060830186611821565b611cc46080830185611821565b611cd160a0830184611821565b979650505050505050565b5f604082019050611cef5f830185611963565b611cfc6020830184611963565b9392505050565b5f606082019050611d165f830186611963565b611d236020830185611821565b611d306040830184611821565b949350505050565b7f4e487b71000000000000000000000000000000000000000000000000000000005f52601160045260245ffd5b5f611d6f8261177d565b9150611d7a8361177d565b9250828201905080821115611d9257611d91611d38565b5b92915050565b5f60a082019050611dab5f8301886118d6565b611db860208301876118d6565b611dc560408301866118d6565b611dd26060830185611821565b611ddf6080830184611963565b9695505050505050565b5f608082019050611dfc5f8301876118d6565b611e0960208301866118a5565b611e1660408301856118d6565b611e2360608301846118d6565b95945050505050565b7f4e487b71000000000000000000000000000000000000000000000000000000005f52602160045260245ffdfea2646970667358221220fc69f14a74677e1b200f2ea1733d0bc445a5a1ea74868f800d95150822fabb4f64736f6c634300081e0033","linkReferences":{}},"methodIdentifiers":{"DOMAIN_SEPARATOR()":"3644e515","allowance(address,address)":"dd62ed3e","approve(address,uint256)":"095ea7b3","balanceOf(address)":"70a08231","decimals()":"313ce567","eip712Domain()":"84b0196e","mint(address,uint256)":"40c10f19","name()":"06fdde03","nonces(address)":"7ecebe00","owner()":"8da5cb5b","permit(address,address,uint256,uint256,uint8,bytes32,bytes32)":"d505accf","renounceOwnership()":"715018a6","symbol()":"95d89b41","totalSupply()":"18160ddd","transfer(address,uint256)":"a9059cbb","transferFrom(address,address,uint256)":"23b872dd","transferOwnership(address)":"f2fde38b"},"id":32}