{"abi":[{"type":"receive","stateMutability":"payable"},{"type":"function","name":"approvals","inputs":[{"name":"","type":"uint256","internalType":"uint256"},{"name":"","type":"address","internalType":"address"}],"outputs":[{"name":"","type":"bool","internalType":"bool"}],"stateMutability":"view"},{"type":"function","name":"approveTransaction","inputs":[{"name":"txId","type":"uint256","internalType":"uint256"}],"outputs":[],"stateMutability":"nonpayable"},{"type":"function","name":"campaign","inputs":[],"outputs":[{"name":"","type":"address","internalType":"address"}],"stateMutability":"view"},{"type":"function","name":"deposit","inputs":[],"outputs":[],"stateMutability":"payable"},{"type":"function","name":"executeTransaction","inputs":[{"name":"txId","type":"uint256","internalType":"uint256"}],"outputs":[],"stateMutability":"nonpayable"},{"type":"function","name":"getSigners","inputs":[],"outputs":[{"name":"","type":"address[]","internalType":"address[]"}],"stateMutability":"view"},{"type":"function","name":"getTransaction","inputs":[{"name":"txId","type":"uint256","internalType":"uint256"}],"outputs":[{"name":"to","type":"address","internalType":"address"},{"name":"value","type":"uint256","internalType":"uint256"},{"name":"data","type":"bytes","internalType":"bytes"},{"name":"executed","type":"bool","internalType":"bool"},{"name":"approvalCount","type":"uint256","internalType":"uint256"}],"stateMutability":"view"},{"type":"function","name":"getTransactionCount","inputs":[],"outputs":[{"name":"","type":"uint256","internalType":"uint256"}],"stateMutability":"view"},{"type":"function","name":"initialize","inputs":[{"name":"_signers","type":"address[]","internalType":"address[]"},{"name":"_threshold","type":"uint256","internalType":"uint256"},{"name":"_campaign","type":"address","internalType":"address"}],"outputs":[],"stateMutability":"nonpayable"},{"type":"function","name":"isSigner","inputs":[{"name":"","type":"address","internalType":"address"}],"outputs":[{"name":"","type":"bool","internalType":"bool"}],"stateMutability":"view"},{"type":"function","name":"proposeTransaction","inputs":[{"name":"to","type":"address","internalType":"address"},{"name":"value","type":"uint256","internalType":"uint256"},{"name":"data","type":"bytes","internalType":"bytes"}],"outputs":[{"name":"","type":"uint256","internalType":"uint256"}],"stateMutability":"nonpayable"},{"type":"function","name":"revokeApproval","inputs":[{"name":"txId","type":"uint256","internalType":"uint256"}],"outputs":[],"stateMutability":"nonpayable"},{"type":"function","name":"signers","inputs":[{"name":"","type":"uint256","internalType":"uint256"}],"outputs":[{"name":"","type":"address","internalType":"address"}],"stateMutability":"view"},{"type":"function","name":"threshold","inputs":[],"outputs":[{"name":"","type":"uint256","internalType":"uint256"}],"stateMutability":"view"},{"type":"function","name":"transactions","inputs":[{"name":"","type":"uint256","internalType":"uint256"}],"outputs":[{"name":"to","type":"address","internalType":"address"},{"name":"value","type":"uint256","internalType":"uint256"},{"name":"data","type":"bytes","internalType":"bytes"},{"name":"executed","type":"bool","internalType":"bool"},{"name":"approvalCount","type":"uint256","internalType":"uint256"}],"stateMutability":"view"},{"type":"event","name":"Deposited","inputs":[{"name":"from","type":"address","indexed":true,"internalType":"address"},{"name":"amount","type":"uint256","indexed":false,"internalType":"uint256"}],"anonymous":false},{"type":"event","name":"TransactionApproved","inputs":[{"name":"txId","type":"uint256","indexed":true,"internalType":"uint256"},{"name":"signer","type":"address","indexed":true,"internalType":"address"}],"anonymous":false},{"type":"event","name":"TransactionExecuted","inputs":[{"name":"txId","type":"uint256","indexed":true,"internalType":"uint256"},{"name":"executor","type":"address","indexed":true,"internalType":"address"}],"anonymous":false},{"type":"event","name":"TransactionProposed","inputs":[{"name":"txId","type":"uint256","indexed":true,"internalType":"uint256"},{"name":"proposer","type":"address","indexed":true,"internalType":"address"},{"name":"to","type":"address","indexed":false,"internalType":"address"},{"name":"value","type":"uint256","indexed":false,"internalType":"uint256"}],"anonymous":false},{"type":"event","name":"TransactionRevoked","inputs":[{"name":"txId","type":"uint256","indexed":true,"internalType":"uint256"},{"name":"signer","type":"address","indexed":true,"internalType":"address"}],"anonymous":false}],"bytecode":{"object":"0x6080604052348015600e575f80fd5b5061273b8061001c5f395ff3fe6080604052600436106100eb575f3560e01c80637df73e2711610089578063ab2850da11610058578063ab2850da14610370578063b1e130fc146103ac578063d0e30db0146103d4578063ee22610b146103de57610140565b80637df73e27146102a0578063811e539c146102dc57806394cf795e146103065780639ace38c21461033057610140565b806333ea3dc8116100c557806333ea3dc8146101d257806342cde4e8146102125780635e90852d1461023c57806372483bf91461027857610140565b80632079fb9a14610144578063242232d1146101805780632e7700f0146101a857610140565b36610140573373ffffffffffffffffffffffffffffffffffffffff167f2da466a7b24304f47e87fa2e1e5a81b9831ce54fec19055ce277ca2f39ba42c4346040516101369190611725565b60405180910390a2005b5f80fd5b34801561014f575f80fd5b5061016a60048036038101906101659190611770565b610406565b60405161017791906117da565b60405180910390f35b34801561018b575f80fd5b506101a660048036038101906101a19190611770565b610441565b005b3480156101b3575f80fd5b506101bc610701565b6040516101c99190611725565b60405180910390f35b3480156101dd575f80fd5b506101f860048036038101906101f39190611770565b61070d565b60405161020995949392919061187d565b60405180910390f35b34801561021d575f80fd5b50610226610816565b6040516102339190611725565b60405180910390f35b348015610247575f80fd5b50610262600480360381019061025d9190611960565b61081c565b60405161026f9190611725565b60405180910390f35b348015610283575f80fd5b5061029e60048036038101906102999190611a26565b610af6565b005b3480156102ab575f80fd5b506102c660048036038101906102c19190611a97565b610ea3565b6040516102d39190611ac2565b60405180910390f35b3480156102e7575f80fd5b506102f0610ec0565b6040516102fd91906117da565b60405180910390f35b348015610311575f80fd5b5061031a610ee3565b6040516103279190611b92565b60405180910390f35b34801561033b575f80fd5b5061035660048036038101906103519190611770565b610f6e565b60405161036795949392919061187d565b60405180910390f35b34801561037b575f80fd5b5061039660048036038101906103919190611bb2565b611060565b6040516103a39190611ac2565b60405180910390f35b3480156103b7575f80fd5b506103d260048036038101906103cd9190611770565b61108a565b005b6103dc611348565b005b3480156103e9575f80fd5b5061040460048036038101906103ff9190611770565b611425565b005b60018181548110610415575f80fd5b905f5260205f20015f915054906101000a900473ffffffffffffffffffffffffffffffffffffffff1681565b60025f3373ffffffffffffffffffffffffffffffffffffffff1673ffffffffffffffffffffffffffffffffffffffff1681526020019081526020015f205f9054906101000a900460ff166104ca576040517f08c379a00000000000000000000000000000000000000000000000000000000081526004016104c190611c4a565b60405180910390fd5b806004805490508110610512576040517f08c379a000000000000000000000000000000000000000000000000000000000815260040161050990611cb2565b60405180910390fd5b816004818154811061052757610526611cd0565b5b905f5260205f2090600502016003015f9054906101000a900460ff1615610583576040517f08c379a000000000000000000000000000000000000000000000000000000000815260040161057a90611d47565b60405180910390fd5b60055f8481526020019081526020015f205f3373ffffffffffffffffffffffffffffffffffffffff1673ffffffffffffffffffffffffffffffffffffffff1681526020019081526020015f205f9054906101000a900460ff161561061c576040517f08c379a000000000000000000000000000000000000000000000000000000000815260040161061390611daf565b60405180910390fd5b600160055f8581526020019081526020015f205f3373ffffffffffffffffffffffffffffffffffffffff1673ffffffffffffffffffffffffffffffffffffffff1681526020019081526020015f205f6101000a81548160ff0219169083151502179055506004838154811061069457610693611cd0565b5b905f5260205f2090600502016004015f8154809291906106b390611dfa565b91905055503373ffffffffffffffffffffffffffffffffffffffff16837f924813d717e221b5f46dcd8a56da1679e4612584ab3237d55e5faabf6f6a307960405160405180910390a3505050565b5f600480549050905090565b5f8060605f805f6004878154811061072857610727611cd0565b5b905f5260205f2090600502019050805f015f9054906101000a900473ffffffffffffffffffffffffffffffffffffffff16816001015482600201836003015f9054906101000a900460ff16846004015482805461078490611e6e565b80601f01602080910402602001604051908101604052809291908181526020018280546107b090611e6e565b80156107fb5780601f106107d2576101008083540402835291602001916107fb565b820191905f5260205f20905b8154815290600101906020018083116107de57829003601f168201915b50505050509250955095509550955095505091939590929450565b60035481565b5f60025f3373ffffffffffffffffffffffffffffffffffffffff1673ffffffffffffffffffffffffffffffffffffffff1681526020019081526020015f205f9054906101000a900460ff166108a6576040517f08c379a000000000000000000000000000000000000000000000000000000000815260040161089d90611c4a565b60405180910390fd5b5f73ffffffffffffffffffffffffffffffffffffffff168573ffffffffffffffffffffffffffffffffffffffff1603610914576040517f08c379a000000000000000000000000000000000000000000000000000000000815260040161090b90611ee8565b60405180910390fd5b47841115610957576040517f08c379a000000000000000000000000000000000000000000000000000000000815260040161094e90611f50565b60405180910390fd5b5f600480549050905060046040518060a001604052808873ffffffffffffffffffffffffffffffffffffffff16815260200187815260200186868080601f0160208091040260200160405190810160405280939291908181526020018383808284375f81840152601f19601f8201169050808301925050505050505081526020015f151581526020015f815250908060018154018082558091505060019003905f5260205f2090600502015f909190919091505f820151815f015f6101000a81548173ffffffffffffffffffffffffffffffffffffffff021916908373ffffffffffffffffffffffffffffffffffffffff160217905550602082015181600101556040820151816002019081610a6d9190612138565b506060820151816003015f6101000a81548160ff0219169083151502179055506080820151816004015550503373ffffffffffffffffffffffffffffffffffffffff16817f08754d66a328b07857be590cc17e0bb798e0ec9cb30ac8e5af7afd3481d1c6bd8888604051610ae2929190612207565b60405180910390a380915050949350505050565b60065f9054906101000a900460ff1615610b45576040517f08c379a0000000000000000000000000000000000000000000000000000000008152600401610b3c90612278565b60405180910390fd5b5f8484905011610b8a576040517f08c379a0000000000000000000000000000000000000000000000000000000008152600401610b81906122e0565b60405180910390fd5b5f82118015610b9c5750838390508211155b610bdb576040517f08c379a0000000000000000000000000000000000000000000000000000000008152600401610bd290612348565b60405180910390fd5b5f73ffffffffffffffffffffffffffffffffffffffff168173ffffffffffffffffffffffffffffffffffffffff1603610c49576040517f08c379a0000000000000000000000000000000000000000000000000000000008152600401610c40906123b0565b60405180910390fd5b5f5b84849050811015610e3c575f858583818110610c6a57610c69611cd0565b5b9050602002016020810190610c7f9190611a97565b90505f73ffffffffffffffffffffffffffffffffffffffff168173ffffffffffffffffffffffffffffffffffffffff1603610cef576040517f08c379a0000000000000000000000000000000000000000000000000000000008152600401610ce690612418565b60405180910390fd5b60025f8273ffffffffffffffffffffffffffffffffffffffff1673ffffffffffffffffffffffffffffffffffffffff1681526020019081526020015f205f9054906101000a900460ff1615610d79576040517f08c379a0000000000000000000000000000000000000000000000000000000008152600401610d7090612480565b60405180910390fd5b600181908060018154018082558091505060019003905f5260205f20015f9091909190916101000a81548173ffffffffffffffffffffffffffffffffffffffff021916908373ffffffffffffffffffffffffffffffffffffffff160217905550600160025f8373ffffffffffffffffffffffffffffffffffffffff1673ffffffffffffffffffffffffffffffffffffffff1681526020019081526020015f205f6101000a81548160ff021916908315150217905550508080600101915050610c4b565b5081600381905550805f806101000a81548173ffffffffffffffffffffffffffffffffffffffff021916908373ffffffffffffffffffffffffffffffffffffffff160217905550600160065f6101000a81548160ff02191690831515021790555050505050565b6002602052805f5260405f205f915054906101000a900460ff1681565b5f8054906101000a900473ffffffffffffffffffffffffffffffffffffffff1681565b60606001805480602002602001604051908101604052809291908181526020018280548015610f6457602002820191905f5260205f20905b815f9054906101000a900473ffffffffffffffffffffffffffffffffffffffff1673ffffffffffffffffffffffffffffffffffffffff1681526020019060010190808311610f1b575b5050505050905090565b60048181548110610f7d575f80fd5b905f5260205f2090600502015f91509050805f015f9054906101000a900473ffffffffffffffffffffffffffffffffffffffff1690806001015490806002018054610fc790611e6e565b80601f0160208091040260200160405190810160405280929190818152602001828054610ff390611e6e565b801561103e5780601f106110155761010080835404028352916020019161103e565b820191905f5260205f20905b81548152906001019060200180831161102157829003601f168201915b505050505090806003015f9054906101000a900460ff16908060040154905085565b6005602052815f5260405f20602052805f5260405f205f915091509054906101000a900460ff1681565b60025f3373ffffffffffffffffffffffffffffffffffffffff1673ffffffffffffffffffffffffffffffffffffffff1681526020019081526020015f205f9054906101000a900460ff16611113576040517f08c379a000000000000000000000000000000000000000000000000000000000815260040161110a90611c4a565b60405180910390fd5b80600480549050811061115b576040517f08c379a000000000000000000000000000000000000000000000000000000000815260040161115290611cb2565b60405180910390fd5b81600481815481106111705761116f611cd0565b5b905f5260205f2090600502016003015f9054906101000a900460ff16156111cc576040517f08c379a00000000000000000000000000000000000000000000000000000000081526004016111c390611d47565b60405180910390fd5b60055f8481526020019081526020015f205f3373ffffffffffffffffffffffffffffffffffffffff1673ffffffffffffffffffffffffffffffffffffffff1681526020019081526020015f205f9054906101000a900460ff16611264576040517f08c379a000000000000000000000000000000000000000000000000000000000815260040161125b906124e8565b60405180910390fd5b5f60055f8581526020019081526020015f205f3373ffffffffffffffffffffffffffffffffffffffff1673ffffffffffffffffffffffffffffffffffffffff1681526020019081526020015f205f6101000a81548160ff021916908315150217905550600483815481106112db576112da611cd0565b5b905f5260205f2090600502016004015f8154809291906112fa90612506565b91905055503373ffffffffffffffffffffffffffffffffffffffff16837f4cd471041f6b9ff47536a54a3d3ab62d0fa9dd5e36c0418b294b1673acb3188160405160405180910390a3505050565b5f8054906101000a900473ffffffffffffffffffffffffffffffffffffffff1673ffffffffffffffffffffffffffffffffffffffff163373ffffffffffffffffffffffffffffffffffffffff16146113d5576040517f08c379a00000000000000000000000000000000000000000000000000000000081526004016113cc90612577565b60405180910390fd5b3373ffffffffffffffffffffffffffffffffffffffff167f2da466a7b24304f47e87fa2e1e5a81b9831ce54fec19055ce277ca2f39ba42c43460405161141b9190611725565b60405180910390a2565b60025f3373ffffffffffffffffffffffffffffffffffffffff1673ffffffffffffffffffffffffffffffffffffffff1681526020019081526020015f205f9054906101000a900460ff166114ae576040517f08c379a00000000000000000000000000000000000000000000000000000000081526004016114a590611c4a565b60405180910390fd5b8060048054905081106114f6576040517f08c379a00000000000000000000000000000000000000000000000000000000081526004016114ed90611cb2565b60405180910390fd5b816004818154811061150b5761150a611cd0565b5b905f5260205f2090600502016003015f9054906101000a900460ff1615611567576040517f08c379a000000000000000000000000000000000000000000000000000000000815260040161155e90611d47565b60405180910390fd5b5f6004848154811061157c5761157b611cd0565b5b905f5260205f2090600502019050600354816004015410156115d3576040517f08c379a00000000000000000000000000000000000000000000000000000000081526004016115ca906125df565b60405180910390fd5b6001816003015f6101000a81548160ff0219169083151502179055505f815f015f9054906101000a900473ffffffffffffffffffffffffffffffffffffffff1673ffffffffffffffffffffffffffffffffffffffff1682600101548360020160405161163f9190612687565b5f6040518083038185875af1925050503d805f8114611679576040519150601f19603f3d011682016040523d82523d5f602084013e61167e565b606091505b50509050806116c2576040517f08c379a00000000000000000000000000000000000000000000000000000000081526004016116b9906126e7565b60405180910390fd5b3373ffffffffffffffffffffffffffffffffffffffff16857fefc13bdcf58f184ea7cae26b499fb33b539e01d0197cea456f3ada289b8cf19b60405160405180910390a35050505050565b5f819050919050565b61171f8161170d565b82525050565b5f6020820190506117385f830184611716565b92915050565b5f80fd5b5f80fd5b61174f8161170d565b8114611759575f80fd5b50565b5f8135905061176a81611746565b92915050565b5f602082840312156117855761178461173e565b5b5f6117928482850161175c565b91505092915050565b5f73ffffffffffffffffffffffffffffffffffffffff82169050919050565b5f6117c48261179b565b9050919050565b6117d4816117ba565b82525050565b5f6020820190506117ed5f8301846117cb565b92915050565b5f81519050919050565b5f82825260208201905092915050565b8281835e5f83830152505050565b5f601f19601f8301169050919050565b5f611835826117f3565b61183f81856117fd565b935061184f81856020860161180d565b6118588161181b565b840191505092915050565b5f8115159050919050565b61187781611863565b82525050565b5f60a0820190506118905f8301886117cb565b61189d6020830187611716565b81810360408301526118af818661182b565b90506118be606083018561186e565b6118cb6080830184611716565b9695505050505050565b6118de816117ba565b81146118e8575f80fd5b50565b5f813590506118f9816118d5565b92915050565b5f80fd5b5f80fd5b5f80fd5b5f8083601f8401126119205761191f6118ff565b5b8235905067ffffffffffffffff81111561193d5761193c611903565b5b60208301915083600182028301111561195957611958611907565b5b9250929050565b5f805f80606085870312156119785761197761173e565b5b5f611985878288016118eb565b94505060206119968782880161175c565b935050604085013567ffffffffffffffff8111156119b7576119b6611742565b5b6119c38782880161190b565b925092505092959194509250565b5f8083601f8401126119e6576119e56118ff565b5b8235905067ffffffffffffffff811115611a0357611a02611903565b5b602083019150836020820283011115611a1f57611a1e611907565b5b9250929050565b5f805f8060608587031215611a3e57611a3d61173e565b5b5f85013567ffffffffffffffff811115611a5b57611a5a611742565b5b611a67878288016119d1565b94509450506020611a7a8782880161175c565b9250506040611a8b878288016118eb565b91505092959194509250565b5f60208284031215611aac57611aab61173e565b5b5f611ab9848285016118eb565b91505092915050565b5f602082019050611ad55f83018461186e565b92915050565b5f81519050919050565b5f82825260208201905092915050565b5f819050602082019050919050565b611b0d816117ba565b82525050565b5f611b1e8383611b04565b60208301905092915050565b5f602082019050919050565b5f611b4082611adb565b611b4a8185611ae5565b9350611b5583611af5565b805f5b83811015611b85578151611b6c8882611b13565b9750611b7783611b2a565b925050600181019050611b58565b5085935050505092915050565b5f6020820190508181035f830152611baa8184611b36565b905092915050565b5f8060408385031215611bc857611bc761173e565b5b5f611bd58582860161175c565b9250506020611be6858286016118eb565b9150509250929050565b5f82825260208201905092915050565b7f4e6f742061207369676e657200000000000000000000000000000000000000005f82015250565b5f611c34600c83611bf0565b9150611c3f82611c00565b602082019050919050565b5f6020820190508181035f830152611c6181611c28565b9050919050565b7f5472616e73616374696f6e20646f6573206e6f742065786973740000000000005f82015250565b5f611c9c601a83611bf0565b9150611ca782611c68565b602082019050919050565b5f6020820190508181035f830152611cc981611c90565b9050919050565b7f4e487b71000000000000000000000000000000000000000000000000000000005f52603260045260245ffd5b7f5472616e73616374696f6e20616c7265616479206578656375746564000000005f82015250565b5f611d31601c83611bf0565b9150611d3c82611cfd565b602082019050919050565b5f6020820190508181035f830152611d5e81611d25565b9050919050565b7f416c726561647920617070726f766564000000000000000000000000000000005f82015250565b5f611d99601083611bf0565b9150611da482611d65565b602082019050919050565b5f6020820190508181035f830152611dc681611d8d565b9050919050565b7f4e487b71000000000000000000000000000000000000000000000000000000005f52601160045260245ffd5b5f611e048261170d565b91507fffffffffffffffffffffffffffffffffffffffffffffffffffffffffffffffff8203611e3657611e35611dcd565b5b600182019050919050565b7f4e487b71000000000000000000000000000000000000000000000000000000005f52602260045260245ffd5b5f6002820490506001821680611e8557607f821691505b602082108103611e9857611e97611e41565b5b50919050565b7f496e76616c696420726563697069656e740000000000000000000000000000005f82015250565b5f611ed2601183611bf0565b9150611edd82611e9e565b602082019050919050565b5f6020820190508181035f830152611eff81611ec6565b9050919050565b7f496e73756666696369656e742062616c616e63650000000000000000000000005f82015250565b5f611f3a601483611bf0565b9150611f4582611f06565b602082019050919050565b5f6020820190508181035f830152611f6781611f2e565b9050919050565b7f4e487b71000000000000000000000000000000000000000000000000000000005f52604160045260245ffd5b5f819050815f5260205f209050919050565b5f6020601f8301049050919050565b5f82821b905092915050565b5f60088302611ff77fffffffffffffffffffffffffffffffffffffffffffffffffffffffffffffffff82611fbc565b6120018683611fbc565b95508019841693508086168417925050509392505050565b5f819050919050565b5f61203c6120376120328461170d565b612019565b61170d565b9050919050565b5f819050919050565b61205583612022565b61206961206182612043565b848454611fc8565b825550505050565b5f90565b61207d612071565b61208881848461204c565b505050565b5b818110156120ab576120a05f82612075565b60018101905061208e565b5050565b601f8211156120f0576120c181611f9b565b6120ca84611fad565b810160208510156120d9578190505b6120ed6120e585611fad565b83018261208d565b50505b505050565b5f82821c905092915050565b5f6121105f19846008026120f5565b1980831691505092915050565b5f6121288383612101565b9150826002028217905092915050565b612141826117f3565b67ffffffffffffffff81111561215a57612159611f6e565b5b6121648254611e6e565b61216f8282856120af565b5f60209050601f8311600181146121a0575f841561218e578287015190505b612198858261211d565b8655506121ff565b601f1984166121ae86611f9b565b5f5b828110156121d5578489015182556001820191506020850194506020810190506121b0565b868310156121f257848901516121ee601f891682612101565b8355505b6001600288020188555050505b505050505050565b5f60408201905061221a5f8301856117cb565b6122276020830184611716565b9392505050565b7f416c726561647920696e697469616c697a6564000000000000000000000000005f82015250565b5f612262601383611bf0565b915061226d8261222e565b602082019050919050565b5f6020820190508181035f83015261228f81612256565b9050919050565b7f4d7573742068617665206174206c65617374206f6e65207369676e65720000005f82015250565b5f6122ca601d83611bf0565b91506122d582612296565b602082019050919050565b5f6020820190508181035f8301526122f7816122be565b9050919050565b7f496e76616c6964207468726573686f6c640000000000000000000000000000005f82015250565b5f612332601183611bf0565b915061233d826122fe565b602082019050919050565b5f6020820190508181035f83015261235f81612326565b9050919050565b7f496e76616c69642063616d706169676e206164647265737300000000000000005f82015250565b5f61239a601883611bf0565b91506123a582612366565b602082019050919050565b5f6020820190508181035f8301526123c78161238e565b9050919050565b7f496e76616c6964207369676e65720000000000000000000000000000000000005f82015250565b5f612402600e83611bf0565b915061240d826123ce565b602082019050919050565b5f6020820190508181035f83015261242f816123f6565b9050919050565b7f4475706c6963617465207369676e6572000000000000000000000000000000005f82015250565b5f61246a601083611bf0565b915061247582612436565b602082019050919050565b5f6020820190508181035f8301526124978161245e565b9050919050565b7f4e6f7420617070726f76656400000000000000000000000000000000000000005f82015250565b5f6124d2600c83611bf0565b91506124dd8261249e565b602082019050919050565b5f6020820190508181035f8301526124ff816124c6565b9050919050565b5f6125108261170d565b91505f820361252257612521611dcd565b5b600182039050919050565b7f4f6e6c792063616d706169676e2063616e206465706f736974000000000000005f82015250565b5f612561601983611bf0565b915061256c8261252d565b602082019050919050565b5f6020820190508181035f83015261258e81612555565b9050919050565b7f4e6f7420656e6f75676820617070726f76616c730000000000000000000000005f82015250565b5f6125c9601483611bf0565b91506125d482612595565b602082019050919050565b5f6020820190508181035f8301526125f6816125bd565b9050919050565b5f81905092915050565b5f815461261381611e6e565b61261d81866125fd565b9450600182165f8114612637576001811461264c5761267e565b60ff198316865281151582028601935061267e565b61265585611f9b565b5f5b8381101561267657815481890152600182019150602081019050612657565b838801955050505b50505092915050565b5f6126928284612607565b915081905092915050565b7f5472616e73616374696f6e206661696c656400000000000000000000000000005f82015250565b5f6126d1601283611bf0565b91506126dc8261269d565b602082019050919050565b5f6020820190508181035f8301526126fe816126c5565b905091905056fea2646970667358221220598469a36cbfa4eacb977f500bf503c0243a3b6b70c7cfd700e48bb4a107ae4e64736f6c63430008190033","linkReferences":{}},"methodIdentifiers":{"approvals(uint256,address)":"ab2850da","approveTransaction(uint256)":"242232d1","campaign()":"811e539c","deposit()":"d0e30db0","executeTransaction(uint256)":"ee22610b","getSigners()":"94cf795e","getTransaction(uint256)":"33ea3dc8","getTransactionCount()":"2e7700f0","initialize(address[],uint256,address)":"72483bf9","isSigner(address)":"7df73e27","proposeTransaction(address,uint256,bytes)":"5e90852d","revokeApproval(uint256)":"b1e130fc","signers(uint256)":"2079fb9a","threshold()":"42cde4e8","transactions(uint256)":"9ace38c2"},"id":42}