{"abi":[{"type":"function","name":"approveTransaction","inputs":[{"name":"txId","type":"uint256","internalType":"uint256"}],"outputs":[],"stateMutability":"nonpayable"},{"type":"function","name":"executeTransaction","inputs":[{"name":"txId","type":"uint256","internalType":"uint256"}],"outputs":[],"stateMutability":"nonpayable"},{"type":"function","name":"proposeTransaction","inputs":[{"name":"to","type":"address","internalType":"address"},{"name":"value","type":"uint256","internalType":"uint256"}],"outputs":[{"name":"","type":"uint256","internalType":"uint256"}],"stateMutability":"nonpayable"}],"bytecode":{"object":"0x6080604052348015600e575f5ffd5b506102148061001c5f395ff3fe608060405234801561000f575f5ffd5b506004361061003f575f3560e01c8063242232d114610043578063ee22610b1461005f578063f19a66821461007b575b5f5ffd5b61005d600480360381019061005891906100f3565b6100ab565b005b610079600480360381019061007491906100f3565b6100ae565b005b61009560048036038101906100909190610178565b6100b1565b6040516100a291906101c5565b60405180910390f35b50565b50565b5f600c905092915050565b5f5ffd5b5f819050919050565b6100d2816100c0565b81146100dc575f5ffd5b50565b5f813590506100ed816100c9565b92915050565b5f60208284031215610108576101076100bc565b5b5f610115848285016100df565b91505092915050565b5f73ffffffffffffffffffffffffffffffffffffffff82169050919050565b5f6101478261011e565b9050919050565b6101578161013d565b8114610161575f5ffd5b50565b5f813590506101728161014e565b92915050565b5f5f6040838503121561018e5761018d6100bc565b5b5f61019b85828601610164565b92505060206101ac858286016100df565b9150509250929050565b6101bf816100c0565b82525050565b5f6020820190506101d85f8301846101b6565b9291505056fea26469706673582212201798f4e614a5017d69a9351f1e08ce8c4288c98edccf23cb68cc0bb8a803453164736f6c634300081e0033","linkReferences":{}},"methodIdentifiers":{"approveTransaction(uint256)":"242232d1","executeTransaction(uint256)":"ee22610b","proposeTransaction(address,uint256)":"f19a6682"},"id":33}