{"abi":[{"type":"receive","stateMutability":"payable"},{"type":"function","name":"approvals","inputs":[{"name":"","type":"uint256","internalType":"uint256"},{"name":"","type":"address","internalType":"address"}],"outputs":[{"name":"","type":"bool","internalType":"bool"}],"stateMutability":"view"},{"type":"function","name":"approveTransaction","inputs":[{"name":"txId","type":"uint256","internalType":"uint256"}],"outputs":[],"stateMutability":"nonpayable"},{"type":"function","name":"campaign","inputs":[],"outputs":[{"name":"","type":"address","internalType":"address"}],"stateMutability":"view"},{"type":"function","name":"deposit","inputs":[],"outputs":[],"stateMutability":"payable"},{"type":"function","name":"executeTransaction","inputs":[{"name":"txId","type":"uint256","internalType":"uint256"}],"outputs":[],"stateMutability":"nonpayable"},{"type":"function","name":"getSigners","inputs":[],"outputs":[{"name":"","type":"address[]","internalType":"address[]"}],"stateMutability":"view"},{"type":"function","name":"getTransaction","inputs":[{"name":"txId","type":"uint256","internalType":"uint256"}],"outputs":[{"name":"to","type":"address","internalType":"address"},{"name":"value","type":"uint256","internalType":"uint256"},{"name":"data","type":"bytes","internalType":"bytes"},{"name":"executed","type":"bool","internalType":"bool"},{"name":"approvalCount","type":"uint256","internalType":"uint256"}],"stateMutability":"view"},{"type":"function","name":"getTransactionCount","inputs":[],"outputs":[{"name":"","type":"uint256","internalType":"uint256"}],"stateMutability":"view"},{"type":"function","name":"initialize","inputs":[{"name":"_signers","type":"address[]","internalType":"address[]"},{"name":"_threshold","type":"uint256","internalType":"uint256"},{"name":"_campaign","type":"address","internalType":"address"}],"outputs":[],"stateMutability":"nonpayable"},{"type":"function","name":"isSigner","inputs":[{"name":"","type":"address","internalType":"address"}],"outputs":[{"name":"","type":"bool","internalType":"bool"}],"stateMutability":"view"},{"type":"function","name":"proposeTransaction","inputs":[{"name":"to","type":"address","internalType":"address"},{"name":"value","type":"uint256","internalType":"uint256"},{"name":"data","type":"bytes","internalType":"bytes"}],"outputs":[{"name":"","type":"uint256","internalType":"uint256"}],"stateMutability":"nonpayable"},{"type":"function","name":"refund","inputs":[{"name":"to","type":"address","internalType":"address"},{"name":"amount","type":"uint256","internalType":"uint256"}],"outputs":[],"stateMutability":"nonpayable"},{"type":"function","name":"revokeApproval","inputs":[{"name":"txId","type":"uint256","internalType":"uint256"}],"outputs":[],"stateMutability":"nonpayable"},{"type":"function","name":"signers","inputs":[{"name":"","type":"uint256","internalType":"uint256"}],"outputs":[{"name":"","type":"address","internalType":"address"}],"stateMutability":"view"},{"type":"function","name":"threshold","inputs":[],"outputs":[{"name":"","type":"uint256","internalType":"uint256"}],"stateMutability":"view"},{"type":"function","name":"transactions","inputs":[{"name":"","type":"uint256","internalType":"uint256"}],"outputs":[{"name":"to","type":"address","internalType":"address"},{"name":"value","type":"uint256","internalType":"uint256"},{"name":"data","type":"bytes","internalType":"bytes"},{"name":"executed","type":"bool","internalType":"bool"},{"name":"approvalCount","type":"uint256","internalType":"uint256"}],"stateMutability":"view"},{"type":"event","name":"Deposited","inputs":[{"name":"from","type":"address","indexed":true,"internalType":"address"},{"name":"amount","type":"uint256","indexed":false,"internalType":"uint256"}],"anonymous":false},{"type":"event","name":"TransactionApproved","inputs":[{"name":"txId","type":"uint256","indexed":true,"internalType":"uint256"},{"name":"signer","type":"address","indexed":true,"internalType":"address"}],"anonymous":false},{"type":"event","name":"TransactionExecuted","inputs":[{"name":"txId","type":"uint256","indexed":true,"internalType":"uint256"},{"name":"executor","type":"address","indexed":true,"internalType":"address"}],"anonymous":false},{"type":"event","name":"TransactionProposed","inputs":[{"name":"txId","type":"uint256","indexed":true,"internalType":"uint256"},{"name":"proposer","type":"address","indexed":true,"internalType":"address"},{"name":"to","type":"address","indexed":false,"internalType":"address"},{"name":"value","type":"uint256","indexed":false,"internalType":"uint256"}],"anonymous":false},{"type":"event","name":"TransactionRevoked","inputs":[{"name":"txId","type":"uint256","indexed":true,"internalType":"uint256"},{"name":"signer","type":"address","indexed":true,"internalType":"address"}],"anonymous":false}],"bytecode":{"object":"0x6080604052348015600e575f80fd5b506127858061001c5f395ff3fe6080604052600436106100f6575f3560e01c80637df73e2711610089578063ab2850da11610058578063ab2850da146103a3578063b1e130fc146103df578063d0e30db014610407578063ee22610b146104115761014b565b80637df73e27146102d3578063811e539c1461030f57806394cf795e146103395780639ace38c2146103635761014b565b8063410085df116100c5578063410085df1461021d57806342cde4e8146102455780635e90852d1461026f57806372483bf9146102ab5761014b565b80632079fb9a1461014f578063242232d11461018b5780632e7700f0146101b357806333ea3dc8146101dd5761014b565b3661014b573373ffffffffffffffffffffffffffffffffffffffff167f2da466a7b24304f47e87fa2e1e5a81b9831ce54fec19055ce277ca2f39ba42c434604051610141919061162a565b60405180910390a2005b5f80fd5b34801561015a575f80fd5b5061017560048036038101906101709190611675565b610439565b60405161018291906116df565b60405180910390f35b348015610196575f80fd5b506101b160048036038101906101ac9190611675565b610474565b005b3480156101be575f80fd5b506101c761060e565b6040516101d4919061162a565b60405180910390f35b3480156101e8575f80fd5b5061020360048036038101906101fe9190611675565b61061a565b604051610214959493929190611782565b60405180910390f35b348015610228575f80fd5b50610243600480360381019061023e9190611804565b610723565b005b348015610250575f80fd5b506102596108a0565b604051610266919061162a565b60405180910390f35b34801561027a575f80fd5b50610295600480360381019061029091906118a3565b6108a6565b6040516102a2919061162a565b60405180910390f35b3480156102b6575f80fd5b506102d160048036038101906102cc9190611969565b610aff565b005b3480156102de575f80fd5b506102f960048036038101906102f491906119da565b610eac565b6040516103069190611a05565b60405180910390f35b34801561031a575f80fd5b50610323610ec9565b60405161033091906116df565b60405180910390f35b348015610344575f80fd5b5061034d610eec565b60405161035a9190611ad5565b60405180910390f35b34801561036e575f80fd5b5061038960048036038101906103849190611675565b610f77565b60405161039a959493929190611782565b60405180910390f35b3480156103ae575f80fd5b506103c960048036038101906103c49190611af5565b611069565b6040516103d69190611a05565b60405180910390f35b3480156103ea575f80fd5b5061040560048036038101906104009190611675565b611093565b005b61040f61122b565b005b34801561041c575f80fd5b5061043760048036038101906104329190611675565b611308565b005b60018181548110610448575f80fd5b905f5260205f20015f915054906101000a900473ffffffffffffffffffffffffffffffffffffffff1681565b61047c6114ca565b8061048681611555565b816104908161159f565b60055f8481526020019081526020015f205f3373ffffffffffffffffffffffffffffffffffffffff1673ffffffffffffffffffffffffffffffffffffffff1681526020019081526020015f205f9054906101000a900460ff1615610529576040517f08c379a000000000000000000000000000000000000000000000000000000000815260040161052090611b8d565b60405180910390fd5b600160055f8581526020019081526020015f205f3373ffffffffffffffffffffffffffffffffffffffff1673ffffffffffffffffffffffffffffffffffffffff1681526020019081526020015f205f6101000a81548160ff021916908315150217905550600483815481106105a1576105a0611bab565b5b905f5260205f2090600502016004015f8154809291906105c090611c05565b91905055503373ffffffffffffffffffffffffffffffffffffffff16837f924813d717e221b5f46dcd8a56da1679e4612584ab3237d55e5faabf6f6a307960405160405180910390a3505050565b5f600480549050905090565b5f8060605f805f6004878154811061063557610634611bab565b5b905f5260205f2090600502019050805f015f9054906101000a900473ffffffffffffffffffffffffffffffffffffffff16816001015482600201836003015f9054906101000a900460ff16846004015482805461069190611c79565b80601f01602080910402602001604051908101604052809291908181526020018280546106bd90611c79565b80156107085780601f106106df57610100808354040283529160200191610708565b820191905f5260205f20905b8154815290600101906020018083116106eb57829003601f168201915b50505050509250955095509550955095505091939590929450565b5f8054906101000a900473ffffffffffffffffffffffffffffffffffffffff1673ffffffffffffffffffffffffffffffffffffffff163373ffffffffffffffffffffffffffffffffffffffff16146107b0576040517f08c379a00000000000000000000000000000000000000000000000000000000081526004016107a790611cf3565b60405180910390fd5b478111156107f3576040517f08c379a00000000000000000000000000000000000000000000000000000000081526004016107ea90611d5b565b60405180910390fd5b5f8273ffffffffffffffffffffffffffffffffffffffff168260405161081890611da6565b5f6040518083038185875af1925050503d805f8114610852576040519150601f19603f3d011682016040523d82523d5f602084013e610857565b606091505b505090508061089b576040517f08c379a000000000000000000000000000000000000000000000000000000000815260040161089290611e04565b60405180910390fd5b505050565b60035481565b5f6108af6114ca565b5f73ffffffffffffffffffffffffffffffffffffffff168573ffffffffffffffffffffffffffffffffffffffff160361091d576040517f08c379a000000000000000000000000000000000000000000000000000000000815260040161091490611e6c565b60405180910390fd5b47841115610960576040517f08c379a000000000000000000000000000000000000000000000000000000000815260040161095790611d5b565b60405180910390fd5b5f600480549050905060046040518060a001604052808873ffffffffffffffffffffffffffffffffffffffff16815260200187815260200186868080601f0160208091040260200160405190810160405280939291908181526020018383808284375f81840152601f19601f8201169050808301925050505050505081526020015f151581526020015f815250908060018154018082558091505060019003905f5260205f2090600502015f909190919091505f820151815f015f6101000a81548173ffffffffffffffffffffffffffffffffffffffff021916908373ffffffffffffffffffffffffffffffffffffffff160217905550602082015181600101556040820151816002019081610a769190612054565b506060820151816003015f6101000a81548160ff0219169083151502179055506080820151816004015550503373ffffffffffffffffffffffffffffffffffffffff16817f08754d66a328b07857be590cc17e0bb798e0ec9cb30ac8e5af7afd3481d1c6bd8888604051610aeb929190612123565b60405180910390a380915050949350505050565b60065f9054906101000a900460ff1615610b4e576040517f08c379a0000000000000000000000000000000000000000000000000000000008152600401610b4590612194565b60405180910390fd5b5f8484905011610b93576040517f08c379a0000000000000000000000000000000000000000000000000000000008152600401610b8a906121fc565b60405180910390fd5b5f82118015610ba55750838390508211155b610be4576040517f08c379a0000000000000000000000000000000000000000000000000000000008152600401610bdb90612264565b60405180910390fd5b5f73ffffffffffffffffffffffffffffffffffffffff168173ffffffffffffffffffffffffffffffffffffffff1603610c52576040517f08c379a0000000000000000000000000000000000000000000000000000000008152600401610c49906122cc565b60405180910390fd5b5f5b84849050811015610e45575f858583818110610c7357610c72611bab565b5b9050602002016020810190610c8891906119da565b90505f73ffffffffffffffffffffffffffffffffffffffff168173ffffffffffffffffffffffffffffffffffffffff1603610cf8576040517f08c379a0000000000000000000000000000000000000000000000000000000008152600401610cef90612334565b60405180910390fd5b60025f8273ffffffffffffffffffffffffffffffffffffffff1673ffffffffffffffffffffffffffffffffffffffff1681526020019081526020015f205f9054906101000a900460ff1615610d82576040517f08c379a0000000000000000000000000000000000000000000000000000000008152600401610d799061239c565b60405180910390fd5b600181908060018154018082558091505060019003905f5260205f20015f9091909190916101000a81548173ffffffffffffffffffffffffffffffffffffffff021916908373ffffffffffffffffffffffffffffffffffffffff160217905550600160025f8373ffffffffffffffffffffffffffffffffffffffff1673ffffffffffffffffffffffffffffffffffffffff1681526020019081526020015f205f6101000a81548160ff021916908315150217905550508080600101915050610c54565b5081600381905550805f806101000a81548173ffffffffffffffffffffffffffffffffffffffff021916908373ffffffffffffffffffffffffffffffffffffffff160217905550600160065f6101000a81548160ff02191690831515021790555050505050565b6002602052805f5260405f205f915054906101000a900460ff1681565b5f8054906101000a900473ffffffffffffffffffffffffffffffffffffffff1681565b60606001805480602002602001604051908101604052809291908181526020018280548015610f6d57602002820191905f5260205f20905b815f9054906101000a900473ffffffffffffffffffffffffffffffffffffffff1673ffffffffffffffffffffffffffffffffffffffff1681526020019060010190808311610f24575b5050505050905090565b60048181548110610f86575f80fd5b905f5260205f2090600502015f91509050805f015f9054906101000a900473ffffffffffffffffffffffffffffffffffffffff1690806001015490806002018054610fd090611c79565b80601f0160208091040260200160405190810160405280929190818152602001828054610ffc90611c79565b80156110475780601f1061101e57610100808354040283529160200191611047565b820191905f5260205f20905b81548152906001019060200180831161102a57829003601f168201915b505050505090806003015f9054906101000a900460ff16908060040154905085565b6005602052815f5260405f20602052805f5260405f205f915091509054906101000a900460ff1681565b61109b6114ca565b806110a581611555565b816110af8161159f565b60055f8481526020019081526020015f205f3373ffffffffffffffffffffffffffffffffffffffff1673ffffffffffffffffffffffffffffffffffffffff1681526020019081526020015f205f9054906101000a900460ff16611147576040517f08c379a000000000000000000000000000000000000000000000000000000000815260040161113e90612404565b60405180910390fd5b5f60055f8581526020019081526020015f205f3373ffffffffffffffffffffffffffffffffffffffff1673ffffffffffffffffffffffffffffffffffffffff1681526020019081526020015f205f6101000a81548160ff021916908315150217905550600483815481106111be576111bd611bab565b5b905f5260205f2090600502016004015f8154809291906111dd90612422565b91905055503373ffffffffffffffffffffffffffffffffffffffff16837f4cd471041f6b9ff47536a54a3d3ab62d0fa9dd5e36c0418b294b1673acb3188160405160405180910390a3505050565b5f8054906101000a900473ffffffffffffffffffffffffffffffffffffffff1673ffffffffffffffffffffffffffffffffffffffff163373ffffffffffffffffffffffffffffffffffffffff16146112b8576040517f08c379a00000000000000000000000000000000000000000000000000000000081526004016112af90612493565b60405180910390fd5b3373ffffffffffffffffffffffffffffffffffffffff167f2da466a7b24304f47e87fa2e1e5a81b9831ce54fec19055ce277ca2f39ba42c4346040516112fe919061162a565b60405180910390a2565b6113106114ca565b8061131a81611555565b816113248161159f565b5f6004848154811061133957611338611bab565b5b905f5260205f209060050201905060035481600401541015611390576040517f08c379a0000000000000000000000000000000000000000000000000000000008152600401611387906124fb565b60405180910390fd5b6001816003015f6101000a81548160ff0219169083151502179055505f815f015f9054906101000a900473ffffffffffffffffffffffffffffffffffffffff1673ffffffffffffffffffffffffffffffffffffffff168260010154836002016040516113fc9190612599565b5f6040518083038185875af1925050503d805f8114611436576040519150601f19603f3d011682016040523d82523d5f602084013e61143b565b606091505b505090508061147f576040517f08c379a0000000000000000000000000000000000000000000000000000000008152600401611476906125f9565b60405180910390fd5b3373ffffffffffffffffffffffffffffffffffffffff16857fefc13bdcf58f184ea7cae26b499fb33b539e01d0197cea456f3ada289b8cf19b60405160405180910390a35050505050565b60025f3373ffffffffffffffffffffffffffffffffffffffff1673ffffffffffffffffffffffffffffffffffffffff1681526020019081526020015f205f9054906101000a900460ff16611553576040517f08c379a000000000000000000000000000000000000000000000000000000000815260040161154a90612661565b60405180910390fd5b565b600480549050811061159c576040517f08c379a0000000000000000000000000000000000000000000000000000000008152600401611593906126c9565b60405180910390fd5b50565b600481815481106115b3576115b2611bab565b5b905f5260205f2090600502016003015f9054906101000a900460ff161561160f576040517f08c379a000000000000000000000000000000000000000000000000000000000815260040161160690612731565b60405180910390fd5b50565b5f819050919050565b61162481611612565b82525050565b5f60208201905061163d5f83018461161b565b92915050565b5f80fd5b5f80fd5b61165481611612565b811461165e575f80fd5b50565b5f8135905061166f8161164b565b92915050565b5f6020828403121561168a57611689611643565b5b5f61169784828501611661565b91505092915050565b5f73ffffffffffffffffffffffffffffffffffffffff82169050919050565b5f6116c9826116a0565b9050919050565b6116d9816116bf565b82525050565b5f6020820190506116f25f8301846116d0565b92915050565b5f81519050919050565b5f82825260208201905092915050565b8281835e5f83830152505050565b5f601f19601f8301169050919050565b5f61173a826116f8565b6117448185611702565b9350611754818560208601611712565b61175d81611720565b840191505092915050565b5f8115159050919050565b61177c81611768565b82525050565b5f60a0820190506117955f8301886116d0565b6117a2602083018761161b565b81810360408301526117b48186611730565b90506117c36060830185611773565b6117d0608083018461161b565b9695505050505050565b6117e3816116bf565b81146117ed575f80fd5b50565b5f813590506117fe816117da565b92915050565b5f806040838503121561181a57611819611643565b5b5f611827858286016117f0565b925050602061183885828601611661565b9150509250929050565b5f80fd5b5f80fd5b5f80fd5b5f8083601f84011261186357611862611842565b5b8235905067ffffffffffffffff8111156118805761187f611846565b5b60208301915083600182028301111561189c5761189b61184a565b5b9250929050565b5f805f80606085870312156118bb576118ba611643565b5b5f6118c8878288016117f0565b94505060206118d987828801611661565b935050604085013567ffffffffffffffff8111156118fa576118f9611647565b5b6119068782880161184e565b925092505092959194509250565b5f8083601f84011261192957611928611842565b5b8235905067ffffffffffffffff81111561194657611945611846565b5b6020830191508360208202830111156119625761196161184a565b5b9250929050565b5f805f806060858703121561198157611980611643565b5b5f85013567ffffffffffffffff81111561199e5761199d611647565b5b6119aa87828801611914565b945094505060206119bd87828801611661565b92505060406119ce878288016117f0565b91505092959194509250565b5f602082840312156119ef576119ee611643565b5b5f6119fc848285016117f0565b91505092915050565b5f602082019050611a185f830184611773565b92915050565b5f81519050919050565b5f82825260208201905092915050565b5f819050602082019050919050565b611a50816116bf565b82525050565b5f611a618383611a47565b60208301905092915050565b5f602082019050919050565b5f611a8382611a1e565b611a8d8185611a28565b9350611a9883611a38565b805f5b83811015611ac8578151611aaf8882611a56565b9750611aba83611a6d565b925050600181019050611a9b565b5085935050505092915050565b5f6020820190508181035f830152611aed8184611a79565b905092915050565b5f8060408385031215611b0b57611b0a611643565b5b5f611b1885828601611661565b9250506020611b29858286016117f0565b9150509250929050565b5f82825260208201905092915050565b7f416c726561647920617070726f766564000000000000000000000000000000005f82015250565b5f611b77601083611b33565b9150611b8282611b43565b602082019050919050565b5f6020820190508181035f830152611ba481611b6b565b9050919050565b7f4e487b71000000000000000000000000000000000000000000000000000000005f52603260045260245ffd5b7f4e487b71000000000000000000000000000000000000000000000000000000005f52601160045260245ffd5b5f611c0f82611612565b91507fffffffffffffffffffffffffffffffffffffffffffffffffffffffffffffffff8203611c4157611c40611bd8565b5b600182019050919050565b7f4e487b71000000000000000000000000000000000000000000000000000000005f52602260045260245ffd5b5f6002820490506001821680611c9057607f821691505b602082108103611ca357611ca2611c4c565b5b50919050565b7f4f6e6c792063616d706169676e2063616e20726566756e6400000000000000005f82015250565b5f611cdd601883611b33565b9150611ce882611ca9565b602082019050919050565b5f6020820190508181035f830152611d0a81611cd1565b9050919050565b7f496e73756666696369656e742062616c616e63650000000000000000000000005f82015250565b5f611d45601483611b33565b9150611d5082611d11565b602082019050919050565b5f6020820190508181035f830152611d7281611d39565b9050919050565b5f81905092915050565b50565b5f611d915f83611d79565b9150611d9c82611d83565b5f82019050919050565b5f611db082611d86565b9150819050919050565b7f526566756e64206661696c6564000000000000000000000000000000000000005f82015250565b5f611dee600d83611b33565b9150611df982611dba565b602082019050919050565b5f6020820190508181035f830152611e1b81611de2565b9050919050565b7f496e76616c696420726563697069656e740000000000000000000000000000005f82015250565b5f611e56601183611b33565b9150611e6182611e22565b602082019050919050565b5f6020820190508181035f830152611e8381611e4a565b9050919050565b7f4e487b71000000000000000000000000000000000000000000000000000000005f52604160045260245ffd5b5f819050815f5260205f209050919050565b5f6020601f8301049050919050565b5f82821b905092915050565b5f60088302611f137fffffffffffffffffffffffffffffffffffffffffffffffffffffffffffffffff82611ed8565b611f1d8683611ed8565b95508019841693508086168417925050509392505050565b5f819050919050565b5f611f58611f53611f4e84611612565b611f35565b611612565b9050919050565b5f819050919050565b611f7183611f3e565b611f85611f7d82611f5f565b848454611ee4565b825550505050565b5f90565b611f99611f8d565b611fa4818484611f68565b505050565b5b81811015611fc757611fbc5f82611f91565b600181019050611faa565b5050565b601f82111561200c57611fdd81611eb7565b611fe684611ec9565b81016020851015611ff5578190505b61200961200185611ec9565b830182611fa9565b50505b505050565b5f82821c905092915050565b5f61202c5f1984600802612011565b1980831691505092915050565b5f612044838361201d565b9150826002028217905092915050565b61205d826116f8565b67ffffffffffffffff81111561207657612075611e8a565b5b6120808254611c79565b61208b828285611fcb565b5f60209050601f8311600181146120bc575f84156120aa578287015190505b6120b48582612039565b86555061211b565b601f1984166120ca86611eb7565b5f5b828110156120f1578489015182556001820191506020850194506020810190506120cc565b8683101561210e578489015161210a601f89168261201d565b8355505b6001600288020188555050505b505050505050565b5f6040820190506121365f8301856116d0565b612143602083018461161b565b9392505050565b7f416c726561647920696e697469616c697a6564000000000000000000000000005f82015250565b5f61217e601383611b33565b91506121898261214a565b602082019050919050565b5f6020820190508181035f8301526121ab81612172565b9050919050565b7f4d7573742068617665206174206c65617374206f6e65207369676e65720000005f82015250565b5f6121e6601d83611b33565b91506121f1826121b2565b602082019050919050565b5f6020820190508181035f830152612213816121da565b9050919050565b7f496e76616c6964207468726573686f6c640000000000000000000000000000005f82015250565b5f61224e601183611b33565b91506122598261221a565b602082019050919050565b5f6020820190508181035f83015261227b81612242565b9050919050565b7f496e76616c69642063616d706169676e206164647265737300000000000000005f82015250565b5f6122b6601883611b33565b91506122c182612282565b602082019050919050565b5f6020820190508181035f8301526122e3816122aa565b9050919050565b7f496e76616c6964207369676e65720000000000000000000000000000000000005f82015250565b5f61231e600e83611b33565b9150612329826122ea565b602082019050919050565b5f6020820190508181035f83015261234b81612312565b9050919050565b7f4475706c6963617465207369676e6572000000000000000000000000000000005f82015250565b5f612386601083611b33565b915061239182612352565b602082019050919050565b5f6020820190508181035f8301526123b38161237a565b9050919050565b7f4e6f7420617070726f76656400000000000000000000000000000000000000005f82015250565b5f6123ee600c83611b33565b91506123f9826123ba565b602082019050919050565b5f6020820190508181035f83015261241b816123e2565b9050919050565b5f61242c82611612565b91505f820361243e5761243d611bd8565b5b600182039050919050565b7f4f6e6c792063616d706169676e2063616e206465706f736974000000000000005f82015250565b5f61247d601983611b33565b915061248882612449565b602082019050919050565b5f6020820190508181035f8301526124aa81612471565b9050919050565b7f4e6f7420656e6f75676820617070726f76616c730000000000000000000000005f82015250565b5f6124e5601483611b33565b91506124f0826124b1565b602082019050919050565b5f6020820190508181035f830152612512816124d9565b9050919050565b5f815461252581611c79565b61252f8186611d79565b9450600182165f8114612549576001811461255e57612590565b60ff1983168652811515820286019350612590565b61256785611eb7565b5f5b8381101561258857815481890152600182019150602081019050612569565b838801955050505b50505092915050565b5f6125a48284612519565b915081905092915050565b7f5472616e73616374696f6e206661696c656400000000000000000000000000005f82015250565b5f6125e3601283611b33565b91506125ee826125af565b602082019050919050565b5f6020820190508181035f830152612610816125d7565b9050919050565b7f4e6f742061207369676e657200000000000000000000000000000000000000005f82015250565b5f61264b600c83611b33565b915061265682612617565b602082019050919050565b5f6020820190508181035f8301526126788161263f565b9050919050565b7f5472616e73616374696f6e20646f6573206e6f742065786973740000000000005f82015250565b5f6126b3601a83611b33565b91506126be8261267f565b602082019050919050565b5f6020820190508181035f8301526126e0816126a7565b9050919050565b7f5472616e73616374696f6e20616c7265616479206578656375746564000000005f82015250565b5f61271b601c83611b33565b9150612726826126e7565b602082019050919050565b5f6020820190508181035f8301526127488161270f565b905091905056fea2646970667358221220f8c61893d73cac41dd9292307598dc7f23afc7261d92d388c4a210740064bd6764736f6c63430008190033","linkReferences":{}},"methodIdentifiers":{"approvals(uint256,address)":"ab2850da","approveTransaction(uint256)":"242232d1","campaign()":"811e539c","deposit()":"d0e30db0","executeTransaction(uint256)":"ee22610b","getSigners()":"94cf795e","getTransaction(uint256)":"33ea3dc8","getTransactionCount()":"2e7700f0","initialize(address[],uint256,address)":"72483bf9","isSigner(address)":"7df73e27","proposeTransaction(address,uint256,bytes)":"5e90852d","refund(address,uint256)":"410085df","revokeApproval(uint256)":"b1e130fc","signers(uint256)":"2079fb9a","threshold()":"42cde4e8","transactions(uint256)":"9ace38c2"},"id":68}