{"abi":[{"type":"receive","stateMutability":"payable"},{"type":"function","name":"approvals","inputs":[{"name":"","type":"uint256","internalType":"uint256"},{"name":"","type":"address","internalType":"address"}],"outputs":[{"name":"","type":"bool","internalType":"bool"}],"stateMutability":"view"},{"type":"function","name":"approveTransaction","inputs":[{"name":"txId","type":"uint256","internalType":"uint256"}],"outputs":[],"stateMutability":"nonpayable"},{"type":"function","name":"campaign","inputs":[],"outputs":[{"name":"","type":"address","internalType":"address"}],"stateMutability":"view"},{"type":"function","name":"deposit","inputs":[],"outputs":[],"stateMutability":"payable"},{"type":"function","name":"executeTransaction","inputs":[{"name":"txId","type":"uint256","internalType":"uint256"}],"outputs":[],"stateMutability":"nonpayable"},{"type":"function","name":"getSigners","inputs":[],"outputs":[{"name":"","type":"address[]","internalType":"address[]"}],"stateMutability":"view"},{"type":"function","name":"getTransaction","inputs":[{"name":"txId","type":"uint256","internalType":"uint256"}],"outputs":[{"name":"to","type":"address","internalType":"address"},{"name":"value","type":"uint256","internalType":"uint256"},{"name":"data","type":"bytes","internalType":"bytes"},{"name":"executed","type":"bool","internalType":"bool"},{"name":"approvalCount","type":"uint256","internalType":"uint256"}],"stateMutability":"view"},{"type":"function","name":"getTransactionCount","inputs":[],"outputs":[{"name":"","type":"uint256","internalType":"uint256"}],"stateMutability":"view"},{"type":"function","name":"initialize","inputs":[{"name":"_signers","type":"address[]","internalType":"address[]"},{"name":"_threshold","type":"uint256","internalType":"uint256"},{"name":"_campaign","type":"address","internalType":"address"}],"outputs":[],"stateMutability":"nonpayable"},{"type":"function","name":"isSigner","inputs":[{"name":"","type":"address","internalType":"address"}],"outputs":[{"name":"","type":"bool","internalType":"bool"}],"stateMutability":"view"},{"type":"function","name":"proposeTransaction","inputs":[{"name":"to","type":"address","internalType":"address"},{"name":"value","type":"uint256","internalType":"uint256"},{"name":"data","type":"bytes","internalType":"bytes"}],"outputs":[{"name":"","type":"uint256","internalType":"uint256"}],"stateMutability":"nonpayable"},{"type":"function","name":"refund","inputs":[{"name":"to","type":"address","internalType":"address"},{"name":"amount","type":"uint256","internalType":"uint256"}],"outputs":[],"stateMutability":"nonpayable"},{"type":"function","name":"revokeApproval","inputs":[{"name":"txId","type":"uint256","internalType":"uint256"}],"outputs":[],"stateMutability":"nonpayable"},{"type":"function","name":"signers","inputs":[{"name":"","type":"uint256","internalType":"uint256"}],"outputs":[{"name":"","type":"address","internalType":"address"}],"stateMutability":"view"},{"type":"function","name":"threshold","inputs":[],"outputs":[{"name":"","type":"uint256","internalType":"uint256"}],"stateMutability":"view"},{"type":"function","name":"transactions","inputs":[{"name":"","type":"uint256","internalType":"uint256"}],"outputs":[{"name":"to","type":"address","internalType":"address"},{"name":"value","type":"uint256","internalType":"uint256"},{"name":"data","type":"bytes","internalType":"bytes"},{"name":"executed","type":"bool","internalType":"bool"},{"name":"approvalCount","type":"uint256","internalType":"uint256"}],"stateMutability":"view"},{"type":"event","name":"Deposited","inputs":[{"name":"from","type":"address","indexed":true,"internalType":"address"},{"name":"amount","type":"uint256","indexed":false,"internalType":"uint256"}],"anonymous":false},{"type":"event","name":"TransactionApproved","inputs":[{"name":"txId","type":"uint256","indexed":true,"internalType":"uint256"},{"name":"signer","type":"address","indexed":true,"internalType":"address"}],"anonymous":false},{"type":"event","name":"TransactionExecuted","inputs":[{"name":"txId","type":"uint256","indexed":true,"internalType":"uint256"},{"name":"executor","type":"address","indexed":true,"internalType":"address"}],"anonymous":false},{"type":"event","name":"TransactionProposed","inputs":[{"name":"txId","type":"uint256","indexed":true,"internalType":"uint256"},{"name":"proposer","type":"address","indexed":true,"internalType":"address"},{"name":"to","type":"address","indexed":false,"internalType":"address"},{"name":"value","type":"uint256","indexed":false,"internalType":"uint256"}],"anonymous":false},{"type":"event","name":"TransactionRevoked","inputs":[{"name":"txId","type":"uint256","indexed":true,"internalType":"uint256"},{"name":"signer","type":"address","indexed":true,"internalType":"address"}],"anonymous":false}],"bytecode":{"object":"0x6080604052348015600e575f80fd5b50612a308061001c5f395ff3fe6080604052600436106100f6575f3560e01c80637df73e2711610089578063ab2850da11610058578063ab2850da146103a3578063b1e130fc146103df578063d0e30db014610407578063ee22610b146104115761014b565b80637df73e27146102d3578063811e539c1461030f57806394cf795e146103395780639ace38c2146103635761014b565b8063410085df116100c5578063410085df1461021d57806342cde4e8146102455780635e90852d1461026f57806372483bf9146102ab5761014b565b80632079fb9a1461014f578063242232d11461018b5780632e7700f0146101b357806333ea3dc8146101dd5761014b565b3661014b573373ffffffffffffffffffffffffffffffffffffffff167f2da466a7b24304f47e87fa2e1e5a81b9831ce54fec19055ce277ca2f39ba42c43460405161014191906118d5565b60405180910390a2005b5f80fd5b34801561015a575f80fd5b5061017560048036038101906101709190611920565b610439565b604051610182919061198a565b60405180910390f35b348015610196575f80fd5b506101b160048036038101906101ac9190611920565b610474565b005b3480156101be575f80fd5b506101c7610734565b6040516101d491906118d5565b60405180910390f35b3480156101e8575f80fd5b5061020360048036038101906101fe9190611920565b610740565b604051610214959493929190611a2d565b60405180910390f35b348015610228575f80fd5b50610243600480360381019061023e9190611aaf565b610849565b005b348015610250575f80fd5b506102596109c6565b60405161026691906118d5565b60405180910390f35b34801561027a575f80fd5b5061029560048036038101906102909190611b4e565b6109cc565b6040516102a291906118d5565b60405180910390f35b3480156102b6575f80fd5b506102d160048036038101906102cc9190611c14565b610ca6565b005b3480156102de575f80fd5b506102f960048036038101906102f49190611c85565b611053565b6040516103069190611cb0565b60405180910390f35b34801561031a575f80fd5b50610323611070565b604051610330919061198a565b60405180910390f35b348015610344575f80fd5b5061034d611093565b60405161035a9190611d80565b60405180910390f35b34801561036e575f80fd5b5061038960048036038101906103849190611920565b61111e565b60405161039a959493929190611a2d565b60405180910390f35b3480156103ae575f80fd5b506103c960048036038101906103c49190611da0565b611210565b6040516103d69190611cb0565b60405180910390f35b3480156103ea575f80fd5b5061040560048036038101906104009190611920565b61123a565b005b61040f6114f8565b005b34801561041c575f80fd5b5061043760048036038101906104329190611920565b6115d5565b005b60018181548110610448575f80fd5b905f5260205f20015f915054906101000a900473ffffffffffffffffffffffffffffffffffffffff1681565b60025f3373ffffffffffffffffffffffffffffffffffffffff1673ffffffffffffffffffffffffffffffffffffffff1681526020019081526020015f205f9054906101000a900460ff166104fd576040517f08c379a00000000000000000000000000000000000000000000000000000000081526004016104f490611e38565b60405180910390fd5b806004805490508110610545576040517f08c379a000000000000000000000000000000000000000000000000000000000815260040161053c90611ea0565b60405180910390fd5b816004818154811061055a57610559611ebe565b5b905f5260205f2090600502016003015f9054906101000a900460ff16156105b6576040517f08c379a00000000000000000000000000000000000000000000000000000000081526004016105ad90611f35565b60405180910390fd5b60055f8481526020019081526020015f205f3373ffffffffffffffffffffffffffffffffffffffff1673ffffffffffffffffffffffffffffffffffffffff1681526020019081526020015f205f9054906101000a900460ff161561064f576040517f08c379a000000000000000000000000000000000000000000000000000000000815260040161064690611f9d565b60405180910390fd5b600160055f8581526020019081526020015f205f3373ffffffffffffffffffffffffffffffffffffffff1673ffffffffffffffffffffffffffffffffffffffff1681526020019081526020015f205f6101000a81548160ff021916908315150217905550600483815481106106c7576106c6611ebe565b5b905f5260205f2090600502016004015f8154809291906106e690611fe8565b91905055503373ffffffffffffffffffffffffffffffffffffffff16837f924813d717e221b5f46dcd8a56da1679e4612584ab3237d55e5faabf6f6a307960405160405180910390a3505050565b5f600480549050905090565b5f8060605f805f6004878154811061075b5761075a611ebe565b5b905f5260205f2090600502019050805f015f9054906101000a900473ffffffffffffffffffffffffffffffffffffffff16816001015482600201836003015f9054906101000a900460ff1684600401548280546107b79061205c565b80601f01602080910402602001604051908101604052809291908181526020018280546107e39061205c565b801561082e5780601f106108055761010080835404028352916020019161082e565b820191905f5260205f20905b81548152906001019060200180831161081157829003601f168201915b50505050509250955095509550955095505091939590929450565b5f8054906101000a900473ffffffffffffffffffffffffffffffffffffffff1673ffffffffffffffffffffffffffffffffffffffff163373ffffffffffffffffffffffffffffffffffffffff16146108d6576040517f08c379a00000000000000000000000000000000000000000000000000000000081526004016108cd906120d6565b60405180910390fd5b47811115610919576040517f08c379a00000000000000000000000000000000000000000000000000000000081526004016109109061213e565b60405180910390fd5b5f8273ffffffffffffffffffffffffffffffffffffffff168260405161093e90612189565b5f6040518083038185875af1925050503d805f8114610978576040519150601f19603f3d011682016040523d82523d5f602084013e61097d565b606091505b50509050806109c1576040517f08c379a00000000000000000000000000000000000000000000000000000000081526004016109b8906121e7565b60405180910390fd5b505050565b60035481565b5f60025f3373ffffffffffffffffffffffffffffffffffffffff1673ffffffffffffffffffffffffffffffffffffffff1681526020019081526020015f205f9054906101000a900460ff16610a56576040517f08c379a0000000000000000000000000000000000000000000000000000000008152600401610a4d90611e38565b60405180910390fd5b5f73ffffffffffffffffffffffffffffffffffffffff168573ffffffffffffffffffffffffffffffffffffffff1603610ac4576040517f08c379a0000000000000000000000000000000000000000000000000000000008152600401610abb9061224f565b60405180910390fd5b47841115610b07576040517f08c379a0000000000000000000000000000000000000000000000000000000008152600401610afe9061213e565b60405180910390fd5b5f600480549050905060046040518060a001604052808873ffffffffffffffffffffffffffffffffffffffff16815260200187815260200186868080601f0160208091040260200160405190810160405280939291908181526020018383808284375f81840152601f19601f8201169050808301925050505050505081526020015f151581526020015f815250908060018154018082558091505060019003905f5260205f2090600502015f909190919091505f820151815f015f6101000a81548173ffffffffffffffffffffffffffffffffffffffff021916908373ffffffffffffffffffffffffffffffffffffffff160217905550602082015181600101556040820151816002019081610c1d9190612437565b506060820151816003015f6101000a81548160ff0219169083151502179055506080820151816004015550503373ffffffffffffffffffffffffffffffffffffffff16817f08754d66a328b07857be590cc17e0bb798e0ec9cb30ac8e5af7afd3481d1c6bd8888604051610c92929190612506565b60405180910390a380915050949350505050565b60065f9054906101000a900460ff1615610cf5576040517f08c379a0000000000000000000000000000000000000000000000000000000008152600401610cec90612577565b60405180910390fd5b5f8484905011610d3a576040517f08c379a0000000000000000000000000000000000000000000000000000000008152600401610d31906125df565b60405180910390fd5b5f82118015610d4c5750838390508211155b610d8b576040517f08c379a0000000000000000000000000000000000000000000000000000000008152600401610d8290612647565b60405180910390fd5b5f73ffffffffffffffffffffffffffffffffffffffff168173ffffffffffffffffffffffffffffffffffffffff1603610df9576040517f08c379a0000000000000000000000000000000000000000000000000000000008152600401610df0906126af565b60405180910390fd5b5f5b84849050811015610fec575f858583818110610e1a57610e19611ebe565b5b9050602002016020810190610e2f9190611c85565b90505f73ffffffffffffffffffffffffffffffffffffffff168173ffffffffffffffffffffffffffffffffffffffff1603610e9f576040517f08c379a0000000000000000000000000000000000000000000000000000000008152600401610e9690612717565b60405180910390fd5b60025f8273ffffffffffffffffffffffffffffffffffffffff1673ffffffffffffffffffffffffffffffffffffffff1681526020019081526020015f205f9054906101000a900460ff1615610f29576040517f08c379a0000000000000000000000000000000000000000000000000000000008152600401610f209061277f565b60405180910390fd5b600181908060018154018082558091505060019003905f5260205f20015f9091909190916101000a81548173ffffffffffffffffffffffffffffffffffffffff021916908373ffffffffffffffffffffffffffffffffffffffff160217905550600160025f8373ffffffffffffffffffffffffffffffffffffffff1673ffffffffffffffffffffffffffffffffffffffff1681526020019081526020015f205f6101000a81548160ff021916908315150217905550508080600101915050610dfb565b5081600381905550805f806101000a81548173ffffffffffffffffffffffffffffffffffffffff021916908373ffffffffffffffffffffffffffffffffffffffff160217905550600160065f6101000a81548160ff02191690831515021790555050505050565b6002602052805f5260405f205f915054906101000a900460ff1681565b5f8054906101000a900473ffffffffffffffffffffffffffffffffffffffff1681565b6060600180548060200260200160405190810160405280929190818152602001828054801561111457602002820191905f5260205f20905b815f9054906101000a900473ffffffffffffffffffffffffffffffffffffffff1673ffffffffffffffffffffffffffffffffffffffff16815260200190600101908083116110cb575b5050505050905090565b6004818154811061112d575f80fd5b905f5260205f2090600502015f91509050805f015f9054906101000a900473ffffffffffffffffffffffffffffffffffffffff16908060010154908060020180546111779061205c565b80601f01602080910402602001604051908101604052809291908181526020018280546111a39061205c565b80156111ee5780601f106111c5576101008083540402835291602001916111ee565b820191905f5260205f20905b8154815290600101906020018083116111d157829003601f168201915b505050505090806003015f9054906101000a900460ff16908060040154905085565b6005602052815f5260405f20602052805f5260405f205f915091509054906101000a900460ff1681565b60025f3373ffffffffffffffffffffffffffffffffffffffff1673ffffffffffffffffffffffffffffffffffffffff1681526020019081526020015f205f9054906101000a900460ff166112c3576040517f08c379a00000000000000000000000000000000000000000000000000000000081526004016112ba90611e38565b60405180910390fd5b80600480549050811061130b576040517f08c379a000000000000000000000000000000000000000000000000000000000815260040161130290611ea0565b60405180910390fd5b81600481815481106113205761131f611ebe565b5b905f5260205f2090600502016003015f9054906101000a900460ff161561137c576040517f08c379a000000000000000000000000000000000000000000000000000000000815260040161137390611f35565b60405180910390fd5b60055f8481526020019081526020015f205f3373ffffffffffffffffffffffffffffffffffffffff1673ffffffffffffffffffffffffffffffffffffffff1681526020019081526020015f205f9054906101000a900460ff16611414576040517f08c379a000000000000000000000000000000000000000000000000000000000815260040161140b906127e7565b60405180910390fd5b5f60055f8581526020019081526020015f205f3373ffffffffffffffffffffffffffffffffffffffff1673ffffffffffffffffffffffffffffffffffffffff1681526020019081526020015f205f6101000a81548160ff0219169083151502179055506004838154811061148b5761148a611ebe565b5b905f5260205f2090600502016004015f8154809291906114aa90612805565b91905055503373ffffffffffffffffffffffffffffffffffffffff16837f4cd471041f6b9ff47536a54a3d3ab62d0fa9dd5e36c0418b294b1673acb3188160405160405180910390a3505050565b5f8054906101000a900473ffffffffffffffffffffffffffffffffffffffff1673ffffffffffffffffffffffffffffffffffffffff163373ffffffffffffffffffffffffffffffffffffffff1614611585576040517f08c379a000000000000000000000000000000000000000000000000000000000815260040161157c90612876565b60405180910390fd5b3373ffffffffffffffffffffffffffffffffffffffff167f2da466a7b24304f47e87fa2e1e5a81b9831ce54fec19055ce277ca2f39ba42c4346040516115cb91906118d5565b60405180910390a2565b60025f3373ffffffffffffffffffffffffffffffffffffffff1673ffffffffffffffffffffffffffffffffffffffff1681526020019081526020015f205f9054906101000a900460ff1661165e576040517f08c379a000000000000000000000000000000000000000000000000000000000815260040161165590611e38565b60405180910390fd5b8060048054905081106116a6576040517f08c379a000000000000000000000000000000000000000000000000000000000815260040161169d90611ea0565b60405180910390fd5b81600481815481106116bb576116ba611ebe565b5b905f5260205f2090600502016003015f9054906101000a900460ff1615611717576040517f08c379a000000000000000000000000000000000000000000000000000000000815260040161170e90611f35565b60405180910390fd5b5f6004848154811061172c5761172b611ebe565b5b905f5260205f209060050201905060035481600401541015611783576040517f08c379a000000000000000000000000000000000000000000000000000000000815260040161177a906128de565b60405180910390fd5b6001816003015f6101000a81548160ff0219169083151502179055505f815f015f9054906101000a900473ffffffffffffffffffffffffffffffffffffffff1673ffffffffffffffffffffffffffffffffffffffff168260010154836002016040516117ef919061297c565b5f6040518083038185875af1925050503d805f8114611829576040519150601f19603f3d011682016040523d82523d5f602084013e61182e565b606091505b5050905080611872576040517f08c379a0000000000000000000000000000000000000000000000000000000008152600401611869906129dc565b60405180910390fd5b3373ffffffffffffffffffffffffffffffffffffffff16857fefc13bdcf58f184ea7cae26b499fb33b539e01d0197cea456f3ada289b8cf19b60405160405180910390a35050505050565b5f819050919050565b6118cf816118bd565b82525050565b5f6020820190506118e85f8301846118c6565b92915050565b5f80fd5b5f80fd5b6118ff816118bd565b8114611909575f80fd5b50565b5f8135905061191a816118f6565b92915050565b5f60208284031215611935576119346118ee565b5b5f6119428482850161190c565b91505092915050565b5f73ffffffffffffffffffffffffffffffffffffffff82169050919050565b5f6119748261194b565b9050919050565b6119848161196a565b82525050565b5f60208201905061199d5f83018461197b565b92915050565b5f81519050919050565b5f82825260208201905092915050565b8281835e5f83830152505050565b5f601f19601f8301169050919050565b5f6119e5826119a3565b6119ef81856119ad565b93506119ff8185602086016119bd565b611a08816119cb565b840191505092915050565b5f8115159050919050565b611a2781611a13565b82525050565b5f60a082019050611a405f83018861197b565b611a4d60208301876118c6565b8181036040830152611a5f81866119db565b9050611a6e6060830185611a1e565b611a7b60808301846118c6565b9695505050505050565b611a8e8161196a565b8114611a98575f80fd5b50565b5f81359050611aa981611a85565b92915050565b5f8060408385031215611ac557611ac46118ee565b5b5f611ad285828601611a9b565b9250506020611ae38582860161190c565b9150509250929050565b5f80fd5b5f80fd5b5f80fd5b5f8083601f840112611b0e57611b0d611aed565b5b8235905067ffffffffffffffff811115611b2b57611b2a611af1565b5b602083019150836001820283011115611b4757611b46611af5565b5b9250929050565b5f805f8060608587031215611b6657611b656118ee565b5b5f611b7387828801611a9b565b9450506020611b848782880161190c565b935050604085013567ffffffffffffffff811115611ba557611ba46118f2565b5b611bb187828801611af9565b925092505092959194509250565b5f8083601f840112611bd457611bd3611aed565b5b8235905067ffffffffffffffff811115611bf157611bf0611af1565b5b602083019150836020820283011115611c0d57611c0c611af5565b5b9250929050565b5f805f8060608587031215611c2c57611c2b6118ee565b5b5f85013567ffffffffffffffff811115611c4957611c486118f2565b5b611c5587828801611bbf565b94509450506020611c688782880161190c565b9250506040611c7987828801611a9b565b91505092959194509250565b5f60208284031215611c9a57611c996118ee565b5b5f611ca784828501611a9b565b91505092915050565b5f602082019050611cc35f830184611a1e565b92915050565b5f81519050919050565b5f82825260208201905092915050565b5f819050602082019050919050565b611cfb8161196a565b82525050565b5f611d0c8383611cf2565b60208301905092915050565b5f602082019050919050565b5f611d2e82611cc9565b611d388185611cd3565b9350611d4383611ce3565b805f5b83811015611d73578151611d5a8882611d01565b9750611d6583611d18565b925050600181019050611d46565b5085935050505092915050565b5f6020820190508181035f830152611d988184611d24565b905092915050565b5f8060408385031215611db657611db56118ee565b5b5f611dc38582860161190c565b9250506020611dd485828601611a9b565b9150509250929050565b5f82825260208201905092915050565b7f4e6f742061207369676e657200000000000000000000000000000000000000005f82015250565b5f611e22600c83611dde565b9150611e2d82611dee565b602082019050919050565b5f6020820190508181035f830152611e4f81611e16565b9050919050565b7f5472616e73616374696f6e20646f6573206e6f742065786973740000000000005f82015250565b5f611e8a601a83611dde565b9150611e9582611e56565b602082019050919050565b5f6020820190508181035f830152611eb781611e7e565b9050919050565b7f4e487b71000000000000000000000000000000000000000000000000000000005f52603260045260245ffd5b7f5472616e73616374696f6e20616c7265616479206578656375746564000000005f82015250565b5f611f1f601c83611dde565b9150611f2a82611eeb565b602082019050919050565b5f6020820190508181035f830152611f4c81611f13565b9050919050565b7f416c726561647920617070726f766564000000000000000000000000000000005f82015250565b5f611f87601083611dde565b9150611f9282611f53565b602082019050919050565b5f6020820190508181035f830152611fb481611f7b565b9050919050565b7f4e487b71000000000000000000000000000000000000000000000000000000005f52601160045260245ffd5b5f611ff2826118bd565b91507fffffffffffffffffffffffffffffffffffffffffffffffffffffffffffffffff820361202457612023611fbb565b5b600182019050919050565b7f4e487b71000000000000000000000000000000000000000000000000000000005f52602260045260245ffd5b5f600282049050600182168061207357607f821691505b6020821081036120865761208561202f565b5b50919050565b7f4f6e6c792063616d706169676e2063616e20726566756e6400000000000000005f82015250565b5f6120c0601883611dde565b91506120cb8261208c565b602082019050919050565b5f6020820190508181035f8301526120ed816120b4565b9050919050565b7f496e73756666696369656e742062616c616e63650000000000000000000000005f82015250565b5f612128601483611dde565b9150612133826120f4565b602082019050919050565b5f6020820190508181035f8301526121558161211c565b9050919050565b5f81905092915050565b50565b5f6121745f8361215c565b915061217f82612166565b5f82019050919050565b5f61219382612169565b9150819050919050565b7f526566756e64206661696c6564000000000000000000000000000000000000005f82015250565b5f6121d1600d83611dde565b91506121dc8261219d565b602082019050919050565b5f6020820190508181035f8301526121fe816121c5565b9050919050565b7f496e76616c696420726563697069656e740000000000000000000000000000005f82015250565b5f612239601183611dde565b915061224482612205565b602082019050919050565b5f6020820190508181035f8301526122668161222d565b9050919050565b7f4e487b71000000000000000000000000000000000000000000000000000000005f52604160045260245ffd5b5f819050815f5260205f209050919050565b5f6020601f8301049050919050565b5f82821b905092915050565b5f600883026122f67fffffffffffffffffffffffffffffffffffffffffffffffffffffffffffffffff826122bb565b61230086836122bb565b95508019841693508086168417925050509392505050565b5f819050919050565b5f61233b612336612331846118bd565b612318565b6118bd565b9050919050565b5f819050919050565b61235483612321565b61236861236082612342565b8484546122c7565b825550505050565b5f90565b61237c612370565b61238781848461234b565b505050565b5b818110156123aa5761239f5f82612374565b60018101905061238d565b5050565b601f8211156123ef576123c08161229a565b6123c9846122ac565b810160208510156123d8578190505b6123ec6123e4856122ac565b83018261238c565b50505b505050565b5f82821c905092915050565b5f61240f5f19846008026123f4565b1980831691505092915050565b5f6124278383612400565b9150826002028217905092915050565b612440826119a3565b67ffffffffffffffff8111156124595761245861226d565b5b612463825461205c565b61246e8282856123ae565b5f60209050601f83116001811461249f575f841561248d578287015190505b612497858261241c565b8655506124fe565b601f1984166124ad8661229a565b5f5b828110156124d4578489015182556001820191506020850194506020810190506124af565b868310156124f157848901516124ed601f891682612400565b8355505b6001600288020188555050505b505050505050565b5f6040820190506125195f83018561197b565b61252660208301846118c6565b9392505050565b7f416c726561647920696e697469616c697a6564000000000000000000000000005f82015250565b5f612561601383611dde565b915061256c8261252d565b602082019050919050565b5f6020820190508181035f83015261258e81612555565b9050919050565b7f4d7573742068617665206174206c65617374206f6e65207369676e65720000005f82015250565b5f6125c9601d83611dde565b91506125d482612595565b602082019050919050565b5f6020820190508181035f8301526125f6816125bd565b9050919050565b7f496e76616c6964207468726573686f6c640000000000000000000000000000005f82015250565b5f612631601183611dde565b915061263c826125fd565b602082019050919050565b5f6020820190508181035f83015261265e81612625565b9050919050565b7f496e76616c69642063616d706169676e206164647265737300000000000000005f82015250565b5f612699601883611dde565b91506126a482612665565b602082019050919050565b5f6020820190508181035f8301526126c68161268d565b9050919050565b7f496e76616c6964207369676e65720000000000000000000000000000000000005f82015250565b5f612701600e83611dde565b915061270c826126cd565b602082019050919050565b5f6020820190508181035f83015261272e816126f5565b9050919050565b7f4475706c6963617465207369676e6572000000000000000000000000000000005f82015250565b5f612769601083611dde565b915061277482612735565b602082019050919050565b5f6020820190508181035f8301526127968161275d565b9050919050565b7f4e6f7420617070726f76656400000000000000000000000000000000000000005f82015250565b5f6127d1600c83611dde565b91506127dc8261279d565b602082019050919050565b5f6020820190508181035f8301526127fe816127c5565b9050919050565b5f61280f826118bd565b91505f820361282157612820611fbb565b5b600182039050919050565b7f4f6e6c792063616d706169676e2063616e206465706f736974000000000000005f82015250565b5f612860601983611dde565b915061286b8261282c565b602082019050919050565b5f6020820190508181035f83015261288d81612854565b9050919050565b7f4e6f7420656e6f75676820617070726f76616c730000000000000000000000005f82015250565b5f6128c8601483611dde565b91506128d382612894565b602082019050919050565b5f6020820190508181035f8301526128f5816128bc565b9050919050565b5f81546129088161205c565b612912818661215c565b9450600182165f811461292c576001811461294157612973565b60ff1983168652811515820286019350612973565b61294a8561229a565b5f5b8381101561296b5781548189015260018201915060208101905061294c565b838801955050505b50505092915050565b5f61298782846128fc565b915081905092915050565b7f5472616e73616374696f6e206661696c656400000000000000000000000000005f82015250565b5f6129c6601283611dde565b91506129d182612992565b602082019050919050565b5f6020820190508181035f8301526129f3816129ba565b905091905056fea2646970667358221220fbd9e32566c62f39cdf0371dc73569d52c4a25d221e0bbe3fd62a803bea93ab164736f6c63430008190033","linkReferences":{}},"methodIdentifiers":{"approvals(uint256,address)":"ab2850da","approveTransaction(uint256)":"242232d1","campaign()":"811e539c","deposit()":"d0e30db0","executeTransaction(uint256)":"ee22610b","getSigners()":"94cf795e","getTransaction(uint256)":"33ea3dc8","getTransactionCount()":"2e7700f0","initialize(address[],uint256,address)":"72483bf9","isSigner(address)":"7df73e27","proposeTransaction(address,uint256,bytes)":"5e90852d","refund(address,uint256)":"410085df","revokeApproval(uint256)":"b1e130fc","signers(uint256)":"2079fb9a","threshold()":"42cde4e8","transactions(uint256)":"9ace38c2"},"id":64}