{"abi":[{"type":"function","name":"DEFAULT_ADMIN_ROLE","inputs":[],"outputs":[{"name":"","type":"bytes32","internalType":"bytes32"}],"stateMutability":"view"},{"type":"function","name":"FACTORY_ADMIN","inputs":[],"outputs":[{"name":"","type":"bytes32","internalType":"bytes32"}],"stateMutability":"view"},{"type":"function","name":"claimRefund","inputs":[],"outputs":[],"stateMutability":"nonpayable"},{"type":"function","name":"creator","inputs":[],"outputs":[{"name":"","type":"address","internalType":"address"}],"stateMutability":"view"},{"type":"function","name":"deactivate","inputs":[],"outputs":[],"stateMutability":"nonpayable"},{"type":"function","name":"deactivated","inputs":[],"outputs":[{"name":"","type":"bool","internalType":"bool"}],"stateMutability":"view"},{"type":"function","name":"deadline","inputs":[],"outputs":[{"name":"","type":"uint256","internalType":"uint256"}],"stateMutability":"view"},{"type":"function","name":"donate","inputs":[],"outputs":[],"stateMutability":"payable"},{"type":"function","name":"donations","inputs":[{"name":"","type":"address","internalType":"address"}],"outputs":[{"name":"","type":"uint256","internalType":"uint256"}],"stateMutability":"view"},{"type":"function","name":"finalize","inputs":[],"outputs":[],"stateMutability":"nonpayable"},{"type":"function","name":"fundingGoal","inputs":[],"outputs":[{"name":"","type":"uint256","internalType":"uint256"}],"stateMutability":"view"},{"type":"function","name":"getRoleAdmin","inputs":[{"name":"role","type":"bytes32","internalType":"bytes32"}],"outputs":[{"name":"","type":"bytes32","internalType":"bytes32"}],"stateMutability":"view"},{"type":"function","name":"grantRole","inputs":[{"name":"role","type":"bytes32","internalType":"bytes32"},{"name":"account","type":"address","internalType":"address"}],"outputs":[],"stateMutability":"nonpayable"},{"type":"function","name":"hasRole","inputs":[{"name":"role","type":"bytes32","internalType":"bytes32"},{"name":"account","type":"address","internalType":"address"}],"outputs":[{"name":"","type":"bool","internalType":"bool"}],"stateMutability":"view"},{"type":"function","name":"initialize","inputs":[{"name":"_creator","type":"address","internalType":"address"},{"name":"_fundingGoal","type":"uint256","internalType":"uint256"},{"name":"_duration","type":"uint256","internalType":"uint256"},{"name":"_treasury","type":"address","internalType":"address"},{"name":"_rewardToken","type":"address","internalType":"address"},{"name":"_name","type":"string","internalType":"string"}],"outputs":[],"stateMutability":"nonpayable"},{"type":"function","name":"minDonation","inputs":[],"outputs":[{"name":"","type":"uint256","internalType":"uint256"}],"stateMutability":"view"},{"type":"function","name":"name","inputs":[],"outputs":[{"name":"","type":"string","internalType":"string"}],"stateMutability":"view"},{"type":"function","name":"renounceRole","inputs":[{"name":"role","type":"bytes32","internalType":"bytes32"},{"name":"callerConfirmation","type":"address","internalType":"address"}],"outputs":[],"stateMutability":"nonpayable"},{"type":"function","name":"revokeRole","inputs":[{"name":"role","type":"bytes32","internalType":"bytes32"},{"name":"account","type":"address","internalType":"address"}],"outputs":[],"stateMutability":"nonpayable"},{"type":"function","name":"rewardToken","inputs":[],"outputs":[{"name":"","type":"address","internalType":"address"}],"stateMutability":"view"},{"type":"function","name":"setMinDonation","inputs":[{"name":"_minDonation","type":"uint256","internalType":"uint256"}],"outputs":[],"stateMutability":"nonpayable"},{"type":"function","name":"state","inputs":[],"outputs":[{"name":"","type":"uint8","internalType":"uint8"}],"stateMutability":"view"},{"type":"function","name":"supportsInterface","inputs":[{"name":"interfaceId","type":"bytes4","internalType":"bytes4"}],"outputs":[{"name":"","type":"bool","internalType":"bool"}],"stateMutability":"view"},{"type":"function","name":"totalDonated","inputs":[],"outputs":[{"name":"","type":"uint256","internalType":"uint256"}],"stateMutability":"view"},{"type":"function","name":"treasury","inputs":[],"outputs":[{"name":"","type":"address","internalType":"address"}],"stateMutability":"view"},{"type":"function","name":"version","inputs":[],"outputs":[{"name":"","type":"uint256","internalType":"uint256"}],"stateMutability":"pure"},{"type":"event","name":"CampaignDeactivated","inputs":[{"name":"campaignAddress","type":"address","indexed":true,"internalType":"address"},{"name":"ownedBy","type":"address","indexed":true,"internalType":"address"},{"name":"name","type":"string","indexed":true,"internalType":"string"}],"anonymous":false},{"type":"event","name":"Initialized","inputs":[{"name":"version","type":"uint64","indexed":false,"internalType":"uint64"}],"anonymous":false},{"type":"event","name":"RoleAdminChanged","inputs":[{"name":"role","type":"bytes32","indexed":true,"internalType":"bytes32"},{"name":"previousAdminRole","type":"bytes32","indexed":true,"internalType":"bytes32"},{"name":"newAdminRole","type":"bytes32","indexed":true,"internalType":"bytes32"}],"anonymous":false},{"type":"event","name":"RoleGranted","inputs":[{"name":"role","type":"bytes32","indexed":true,"internalType":"bytes32"},{"name":"account","type":"address","indexed":true,"internalType":"address"},{"name":"sender","type":"address","indexed":true,"internalType":"address"}],"anonymous":false},{"type":"event","name":"RoleRevoked","inputs":[{"name":"role","type":"bytes32","indexed":true,"internalType":"bytes32"},{"name":"account","type":"address","indexed":true,"internalType":"address"},{"name":"sender","type":"address","indexed":true,"internalType":"address"}],"anonymous":false},{"type":"error","name":"AccessControlBadConfirmation","inputs":[]},{"type":"error","name":"AccessControlUnauthorizedAccount","inputs":[{"name":"account","type":"address","internalType":"address"},{"name":"neededRole","type":"bytes32","internalType":"bytes32"}]},{"type":"error","name":"InvalidInitialization","inputs":[]},{"type":"error","name":"NotInitializing","inputs":[]},{"type":"error","name":"ReentrancyGuardReentrantCall","inputs":[]}],"bytecode":{"object":"0x6080604052348015600e575f80fd5b5060016029601f603360201b60201c565b605c60201b60201c565b5f01819055506065565b5f7f9b779b17422d0df92223018b32b4d1fa46e071723d6817e2486d003becc55f005f1b905090565b5f819050919050565b612488806100725f395ff3fe60806040526004361061017f575f3560e01c8063556ed30e116100d0578063a217fddf11610089578063cc6cb19a11610063578063cc6cb19a14610511578063d547741f1461054d578063ed88c68e14610575578063f7c618c11461057f5761017f565b8063a217fddf146104a7578063b5545a3c146104d1578063c19d93fb146104e75761017f565b8063556ed30e1461039d57806361d027b3146103c75780637a3a0e84146103f15780638163ac551461041b57806383a6595f1461044357806391d148541461046b5761017f565b806328a854e61161013d57806336568abe1161011757806336568abe1461031f5780634bb278f31461034757806351b42b001461035d57806354fd4d50146103735761017f565b806328a854e6146102a357806329dcb0cf146102cd5780632f2ff15d146102f75761017f565b8062b370441461018357806301ffc9a7146101ad57806302d05d3f146101e957806306fdde03146102135780631c0e02251461023d578063248a9ca314610267575b5f80fd5b34801561018e575f80fd5b506101976105a9565b6040516101a4919061168f565b60405180910390f35b3480156101b8575f80fd5b506101d360048036038101906101ce919061170e565b6105af565b6040516101e09190611753565b60405180910390f35b3480156101f4575f80fd5b506101fd610628565b60405161020a91906117ab565b60405180910390f35b34801561021e575f80fd5b5061022761064b565b6040516102349190611834565b60405180910390f35b348015610248575f80fd5b506102516106d7565b60405161025e919061168f565b60405180910390f35b348015610272575f80fd5b5061028d60048036038101906102889190611887565b6106dd565b60405161029a91906118c1565b60405180910390f35b3480156102ae575f80fd5b506102b7610707565b6040516102c491906118c1565b60405180910390f35b3480156102d8575f80fd5b506102e161072b565b6040516102ee919061168f565b60405180910390f35b348015610302575f80fd5b5061031d60048036038101906103189190611904565b610731565b005b34801561032a575f80fd5b5061034560048036038101906103409190611904565b610753565b005b348015610352575f80fd5b5061035b6107ce565b005b348015610368575f80fd5b5061037161098a565b005b34801561037e575f80fd5b50610387610a7c565b604051610394919061168f565b60405180910390f35b3480156103a8575f80fd5b506103b1610a84565b6040516103be9190611753565b60405180910390f35b3480156103d2575f80fd5b506103db610a97565b6040516103e891906117ab565b60405180910390f35b3480156103fc575f80fd5b50610405610abc565b604051610412919061168f565b60405180910390f35b348015610426575f80fd5b50610441600480360381019061043c9190611a98565b610ac2565b005b34801561044e575f80fd5b5061046960048036038101906104649190611b3d565b610d82565b005b348015610476575f80fd5b50610491600480360381019061048c9190611904565b610dd7565b60405161049e9190611753565b60405180910390f35b3480156104b2575f80fd5b506104bb610e48565b6040516104c891906118c1565b60405180910390f35b3480156104dc575f80fd5b506104e5610e4e565b005b3480156104f2575f80fd5b506104fb611003565b6040516105089190611b83565b60405180910390f35b34801561051c575f80fd5b5061053760048036038101906105329190611b9c565b611015565b604051610544919061168f565b60405180910390f35b348015610558575f80fd5b50610573600480360381019061056e9190611904565b61102a565b005b61057d61104c565b005b34801561058a575f80fd5b50610593611297565b6040516105a091906117ab565b60405180910390f35b60075481565b5f7f7965db0b000000000000000000000000000000000000000000000000000000007bffffffffffffffffffffffffffffffffffffffffffffffffffffffff1916827bffffffffffffffffffffffffffffffffffffffffffffffffffffffff191614806106215750610620826112bc565b5b9050919050565b5f8054906101000a900473ffffffffffffffffffffffffffffffffffffffff1681565b6005805461065890611bf4565b80601f016020809104026020016040519081016040528092919081815260200182805461068490611bf4565b80156106cf5780601f106106a6576101008083540402835291602001916106cf565b820191905f5260205f20905b8154815290600101906020018083116106b257829003601f168201915b505050505081565b60095481565b5f806106e7611325565b9050805f015f8481526020019081526020015f2060010154915050919050565b7f334e4ff29b2b33ea01e68e72a933a3c413941d8539341b73a9bd86a2ae4d12f681565b60025481565b61073a826106dd565b6107438161134c565b61074d8383611360565b50505050565b61075b611458565b73ffffffffffffffffffffffffffffffffffffffff168173ffffffffffffffffffffffffffffffffffffffff16146107bf576040517f6697b23200000000000000000000000000000000000000000000000000000000815260040160405180910390fd5b6107c9828261145f565b505050565b600254421015610813576040517f08c379a000000000000000000000000000000000000000000000000000000000815260040161080a90611c6e565b60405180910390fd5b610838600160065f9054906101000a900460ff1660ff1661155790919063ffffffff16565b610877576040517f08c379a000000000000000000000000000000000000000000000000000000000815260040161086e90611cd6565b60405180910390fd5b61089c600160065f9054906101000a900460ff1660ff1661156990919063ffffffff16565b60065f6101000a81548160ff021916908360ff16021790555060015460075410610903576108e5600260065f9054906101000a900460ff1660ff1661157690919063ffffffff16565b60065f6101000a81548160ff021916908360ff160217905550610980565b610928600460065f9054906101000a900460ff1660ff1661157690919063ffffffff16565b60065f6101000a81548160ff021916908360ff160217905550610966600860065f9054906101000a900460ff1660ff1661157690919063ffffffff16565b60065f6101000a81548160ff021916908360ff1602179055505b61098861098a565b565b6002544210156109cf576040517f08c379a00000000000000000000000000000000000000000000000000000000081526004016109c690611d64565b60405180910390fd5b6001600660016101000a81548160ff02191690831515021790555060056040516109f99190611e1e565b60405180910390205f8054906101000a900473ffffffffffffffffffffffffffffffffffffffff1673ffffffffffffffffffffffffffffffffffffffff163073ffffffffffffffffffffffffffffffffffffffff167f5ba1435f15f3ccf814453e676a014e560c4b0513a29ff6051995b977cf31e06c60405160405180910390a4565b5f6002905090565b600660019054906101000a900460ff1681565b60035f9054906101000a900473ffffffffffffffffffffffffffffffffffffffff1681565b60015481565b5f610acb611582565b90505f815f0160089054906101000a900460ff161590505f825f015f9054906101000a900467ffffffffffffffff1690505f808267ffffffffffffffff16148015610b135750825b90505f60018367ffffffffffffffff16148015610b4657505f3073ffffffffffffffffffffffffffffffffffffffff163b145b905081158015610b54575080155b15610b8b576040517ff92ee8a900000000000000000000000000000000000000000000000000000000815260040160405180910390fd5b6001855f015f6101000a81548167ffffffffffffffff021916908367ffffffffffffffff1602179055508315610bd8576001855f0160086101000a81548160ff0219169083151502179055505b610be0611595565b610bec5f801b8c611360565b50610c177f334e4ff29b2b33ea01e68e72a933a3c413941d8539341b73a9bd86a2ae4d12f633611360565b508a5f806101000a81548173ffffffffffffffffffffffffffffffffffffffff021916908373ffffffffffffffffffffffffffffffffffffffff160217905550896001819055508842610c6a9190611e61565b6002819055508760035f6101000a81548173ffffffffffffffffffffffffffffffffffffffff021916908373ffffffffffffffffffffffffffffffffffffffff1602179055508660045f6101000a81548173ffffffffffffffffffffffffffffffffffffffff021916908373ffffffffffffffffffffffffffffffffffffffff1602179055508560059081610cff919061201f565b50600160065f6101000a81548160ff021916908360ff1602179055508315610d75575f855f0160086101000a81548160ff0219169083151502179055507fc7f505b2f371ae2175ee4913f4499e1f2633a7b5936321eed1cdaeb6115181d26001604051610d6c919061213a565b60405180910390a15b5050505050505050505050565b610d8e5f801b33610dd7565b610dcd576040517f08c379a0000000000000000000000000000000000000000000000000000000008152600401610dc49061219d565b60405180910390fd5b8060098190555050565b5f80610de1611325565b9050805f015f8581526020019081526020015f205f015f8473ffffffffffffffffffffffffffffffffffffffff1673ffffffffffffffffffffffffffffffffffffffff1681526020019081526020015f205f9054906101000a900460ff1691505092915050565b5f801b81565b610e73600860065f9054906101000a900460ff1660ff1661155790919063ffffffff16565b610eb2576040517f08c379a0000000000000000000000000000000000000000000000000000000008152600401610ea990612205565b60405180910390fd5b5f60085f3373ffffffffffffffffffffffffffffffffffffffff1673ffffffffffffffffffffffffffffffffffffffff1681526020019081526020015f205490505f8111610f35576040517f08c379a0000000000000000000000000000000000000000000000000000000008152600401610f2c9061226d565b60405180910390fd5b5f60085f3373ffffffffffffffffffffffffffffffffffffffff1673ffffffffffffffffffffffffffffffffffffffff1681526020019081526020015f208190555060035f9054906101000a900473ffffffffffffffffffffffffffffffffffffffff1673ffffffffffffffffffffffffffffffffffffffff1663410085df33836040518363ffffffff1660e01b8152600401610fd392919061228b565b5f604051808303815f87803b158015610fea575f80fd5b505af1158015610ffc573d5f803e3d5ffd5b5050505050565b60065f9054906101000a900460ff1681565b6008602052805f5260405f205f915090505481565b611033826106dd565b61103c8161134c565b611046838361145f565b50505050565b6002544210611090576040517f08c379a0000000000000000000000000000000000000000000000000000000008152600401611087906122fc565b60405180910390fd5b5f34116110d2576040517f08c379a00000000000000000000000000000000000000000000000000000000081526004016110c990612364565b60405180910390fd5b600954341015611117576040517f08c379a000000000000000000000000000000000000000000000000000000000815260040161110e906123cc565b60405180910390fd5b3460085f3373ffffffffffffffffffffffffffffffffffffffff1673ffffffffffffffffffffffffffffffffffffffff1681526020019081526020015f205f8282546111639190611e61565b925050819055503460075f82825461117b9190611e61565b9250508190555060035f9054906101000a900473ffffffffffffffffffffffffffffffffffffffff1673ffffffffffffffffffffffffffffffffffffffff1663d0e30db0346040518263ffffffff1660e01b81526004015f604051808303818588803b1580156111e9575f80fd5b505af11580156111fb573d5f803e3d5ffd5b505050505060045f9054906101000a900473ffffffffffffffffffffffffffffffffffffffff1673ffffffffffffffffffffffffffffffffffffffff166340c10f193360143461124b91906123ea565b6040518363ffffffff1660e01b815260040161126892919061228b565b5f604051808303815f87803b15801561127f575f80fd5b505af1158015611291573d5f803e3d5ffd5b50505050565b60045f9054906101000a900473ffffffffffffffffffffffffffffffffffffffff1681565b5f7f01ffc9a7000000000000000000000000000000000000000000000000000000007bffffffffffffffffffffffffffffffffffffffffffffffffffffffff1916827bffffffffffffffffffffffffffffffffffffffffffffffffffffffff1916149050919050565b5f7f02dd7bc7dec4dceedda775e58dd541e08a116c6c53815c0bd028192f7b626800905090565b61135d81611358611458565b61159f565b50565b5f8061136a611325565b90506113768484610dd7565b61144d576001815f015f8681526020019081526020015f205f015f8573ffffffffffffffffffffffffffffffffffffffff1673ffffffffffffffffffffffffffffffffffffffff1681526020019081526020015f205f6101000a81548160ff0219169083151502179055506113e9611458565b73ffffffffffffffffffffffffffffffffffffffff168373ffffffffffffffffffffffffffffffffffffffff16857f2f8788117e7eff1d82e926ec794901d17c78024a50270940304540a733656f0d60405160405180910390a46001915050611452565b5f9150505b92915050565b5f33905090565b5f80611469611325565b90506114758484610dd7565b1561154c575f815f015f8681526020019081526020015f205f015f8573ffffffffffffffffffffffffffffffffffffffff1673ffffffffffffffffffffffffffffffffffffffff1681526020019081526020015f205f6101000a81548160ff0219169083151502179055506114e8611458565b73ffffffffffffffffffffffffffffffffffffffff168373ffffffffffffffffffffffffffffffffffffffff16857ff6391f5c32d9c69d2a47ea670b442974b53935d1edc7fd64eb21e047a839171b60405160405180910390a46001915050611551565b5f9150505b92915050565b5f8082841660ff161415905092915050565b5f81198316905092915050565b5f818317905092915050565b5f8061158c6115f0565b90508091505090565b61159d611619565b565b6115a98282610dd7565b6115ec5780826040517fe2517d3f0000000000000000000000000000000000000000000000000000000081526004016115e392919061242b565b60405180910390fd5b5050565b5f7ff0c57e16840df040f15088dc2f81fe391c3923bec73e23a9662efc9c229c6a005f1b905090565b611621611659565b611657576040517fd7e6bcf800000000000000000000000000000000000000000000000000000000815260040160405180910390fd5b565b5f611662611582565b5f0160089054906101000a900460ff16905090565b5f819050919050565b61168981611677565b82525050565b5f6020820190506116a25f830184611680565b92915050565b5f604051905090565b5f80fd5b5f80fd5b5f7fffffffff0000000000000000000000000000000000000000000000000000000082169050919050565b6116ed816116b9565b81146116f7575f80fd5b50565b5f81359050611708816116e4565b92915050565b5f60208284031215611723576117226116b1565b5b5f611730848285016116fa565b91505092915050565b5f8115159050919050565b61174d81611739565b82525050565b5f6020820190506117665f830184611744565b92915050565b5f73ffffffffffffffffffffffffffffffffffffffff82169050919050565b5f6117958261176c565b9050919050565b6117a58161178b565b82525050565b5f6020820190506117be5f83018461179c565b92915050565b5f81519050919050565b5f82825260208201905092915050565b8281835e5f83830152505050565b5f601f19601f8301169050919050565b5f611806826117c4565b61181081856117ce565b93506118208185602086016117de565b611829816117ec565b840191505092915050565b5f6020820190508181035f83015261184c81846117fc565b905092915050565b5f819050919050565b61186681611854565b8114611870575f80fd5b50565b5f813590506118818161185d565b92915050565b5f6020828403121561189c5761189b6116b1565b5b5f6118a984828501611873565b91505092915050565b6118bb81611854565b82525050565b5f6020820190506118d45f8301846118b2565b92915050565b6118e38161178b565b81146118ed575f80fd5b50565b5f813590506118fe816118da565b92915050565b5f806040838503121561191a576119196116b1565b5b5f61192785828601611873565b9250506020611938858286016118f0565b9150509250929050565b61194b81611677565b8114611955575f80fd5b50565b5f8135905061196681611942565b92915050565b5f80fd5b5f80fd5b7f4e487b71000000000000000000000000000000000000000000000000000000005f52604160045260245ffd5b6119aa826117ec565b810181811067ffffffffffffffff821117156119c9576119c8611974565b5b80604052505050565b5f6119db6116a8565b90506119e782826119a1565b919050565b5f67ffffffffffffffff821115611a0657611a05611974565b5b611a0f826117ec565b9050602081019050919050565b828183375f83830152505050565b5f611a3c611a37846119ec565b6119d2565b905082815260208101848484011115611a5857611a57611970565b5b611a63848285611a1c565b509392505050565b5f82601f830112611a7f57611a7e61196c565b5b8135611a8f848260208601611a2a565b91505092915050565b5f805f805f8060c08789031215611ab257611ab16116b1565b5b5f611abf89828a016118f0565b9650506020611ad089828a01611958565b9550506040611ae189828a01611958565b9450506060611af289828a016118f0565b9350506080611b0389828a016118f0565b92505060a087013567ffffffffffffffff811115611b2457611b236116b5565b5b611b3089828a01611a6b565b9150509295509295509295565b5f60208284031215611b5257611b516116b1565b5b5f611b5f84828501611958565b91505092915050565b5f60ff82169050919050565b611b7d81611b68565b82525050565b5f602082019050611b965f830184611b74565b92915050565b5f60208284031215611bb157611bb06116b1565b5b5f611bbe848285016118f0565b91505092915050565b7f4e487b71000000000000000000000000000000000000000000000000000000005f52602260045260245ffd5b5f6002820490506001821680611c0b57607f821691505b602082108103611c1e57611c1d611bc7565b5b50919050565b7f43616d706169676e207374696c6c2061637469766500000000000000000000005f82015250565b5f611c586015836117ce565b9150611c6382611c24565b602082019050919050565b5f6020820190508181035f830152611c8581611c4c565b9050919050565b7f416c72656164792066696e616c697a65640000000000000000000000000000005f82015250565b5f611cc06011836117ce565b9150611ccb82611c8c565b602082019050919050565b5f6020820190508181035f830152611ced81611cb4565b9050919050565b7f446561646c696e65206f66207468652063616d706169676e206973206e6f74205f8201527f72656163686564207965742e0000000000000000000000000000000000000000602082015250565b5f611d4e602c836117ce565b9150611d5982611cf4565b604082019050919050565b5f6020820190508181035f830152611d7b81611d42565b9050919050565b5f81905092915050565b5f819050815f5260205f209050919050565b5f8154611daa81611bf4565b611db48186611d82565b9450600182165f8114611dce5760018114611de357611e15565b60ff1983168652811515820286019350611e15565b611dec85611d8c565b5f5b83811015611e0d57815481890152600182019150602081019050611dee565b838801955050505b50505092915050565b5f611e298284611d9e565b915081905092915050565b7f4e487b71000000000000000000000000000000000000000000000000000000005f52601160045260245ffd5b5f611e6b82611677565b9150611e7683611677565b9250828201905080821115611e8e57611e8d611e34565b5b92915050565b5f6020601f8301049050919050565b5f82821b905092915050565b5f60088302611ede7fffffffffffffffffffffffffffffffffffffffffffffffffffffffffffffffff82611ea3565b611ee88683611ea3565b95508019841693508086168417925050509392505050565b5f819050919050565b5f611f23611f1e611f1984611677565b611f00565b611677565b9050919050565b5f819050919050565b611f3c83611f09565b611f50611f4882611f2a565b848454611eaf565b825550505050565b5f90565b611f64611f58565b611f6f818484611f33565b505050565b5b81811015611f9257611f875f82611f5c565b600181019050611f75565b5050565b601f821115611fd757611fa881611d8c565b611fb184611e94565b81016020851015611fc0578190505b611fd4611fcc85611e94565b830182611f74565b50505b505050565b5f82821c905092915050565b5f611ff75f1984600802611fdc565b1980831691505092915050565b5f61200f8383611fe8565b9150826002028217905092915050565b612028826117c4565b67ffffffffffffffff81111561204157612040611974565b5b61204b8254611bf4565b612056828285611f96565b5f60209050601f831160018114612087575f8415612075578287015190505b61207f8582612004565b8655506120e6565b601f19841661209586611d8c565b5f5b828110156120bc57848901518255600182019150602085019450602081019050612097565b868310156120d957848901516120d5601f891682611fe8565b8355505b6001600288020188555050505b505050505050565b5f819050919050565b5f67ffffffffffffffff82169050919050565b5f61212461211f61211a846120ee565b611f00565b6120f7565b9050919050565b6121348161210a565b82525050565b5f60208201905061214d5f83018461212b565b92915050565b7f4f6e6c792061646d696e000000000000000000000000000000000000000000005f82015250565b5f612187600a836117ce565b915061219282612153565b602082019050919050565b5f6020820190508181035f8301526121b48161217b565b9050919050565b7f526566756e6473206e6f7420656e61626c6564000000000000000000000000005f82015250565b5f6121ef6013836117ce565b91506121fa826121bb565b602082019050919050565b5f6020820190508181035f83015261221c816121e3565b9050919050565b7f4e6f20646f6e6174696f6e20746f20726566756e6400000000000000000000005f82015250565b5f6122576015836117ce565b915061226282612223565b602082019050919050565b5f6020820190508181035f8301526122848161224b565b9050919050565b5f60408201905061229e5f83018561179c565b6122ab6020830184611680565b9392505050565b7f43616d706169676e2068617320656e64656400000000000000000000000000005f82015250565b5f6122e66012836117ce565b91506122f1826122b2565b602082019050919050565b5f6020820190508181035f830152612313816122da565b9050919050565b7f446f6e6174696f6e206d7573742062652067726561746572207468616e2030005f82015250565b5f61234e601f836117ce565b91506123598261231a565b602082019050919050565b5f6020820190508181035f83015261237b81612342565b9050919050565b7f446f6e6174696f6e2062656c6f77206d696e696d756d000000000000000000005f82015250565b5f6123b66016836117ce565b91506123c182612382565b602082019050919050565b5f6020820190508181035f8301526123e3816123aa565b9050919050565b5f6123f482611677565b91506123ff83611677565b925082820261240d81611677565b9150828204841483151761242457612423611e34565b5b5092915050565b5f60408201905061243e5f83018561179c565b61244b60208301846118b2565b939250505056fea264697066735822122053a91c9f884d2f97ca3f2a837741c4763888459f51026d94cd7230d8ca478dcf64736f6c63430008190033","linkReferences":{}},"methodIdentifiers":{"DEFAULT_ADMIN_ROLE()":"a217fddf","FACTORY_ADMIN()":"28a854e6","claimRefund()":"b5545a3c","creator()":"02d05d3f","deactivate()":"51b42b00","deactivated()":"556ed30e","deadline()":"29dcb0cf","donate()":"ed88c68e","donations(address)":"cc6cb19a","finalize()":"4bb278f3","fundingGoal()":"7a3a0e84","getRoleAdmin(bytes32)":"248a9ca3","grantRole(bytes32,address)":"2f2ff15d","hasRole(bytes32,address)":"91d14854","initialize(address,uint256,uint256,address,address,string)":"8163ac55","minDonation()":"1c0e0225","name()":"06fdde03","renounceRole(bytes32,address)":"36568abe","revokeRole(bytes32,address)":"d547741f","rewardToken()":"f7c618c1","setMinDonation(uint256)":"83a6595f","state()":"c19d93fb","supportsInterface(bytes4)":"01ffc9a7","totalDonated()":"00b37044","treasury()":"61d027b3","version()":"54fd4d50"},"id":60}