{"abi":[{"type":"function","name":"DEFAULT_ADMIN_ROLE","inputs":[],"outputs":[{"name":"","type":"bytes32","internalType":"bytes32"}],"stateMutability":"view"},{"type":"function","name":"FACTORY_ADMIN","inputs":[],"outputs":[{"name":"","type":"bytes32","internalType":"bytes32"}],"stateMutability":"view"},{"type":"function","name":"creator","inputs":[],"outputs":[{"name":"","type":"address","internalType":"address"}],"stateMutability":"view"},{"type":"function","name":"deactivate","inputs":[],"outputs":[],"stateMutability":"nonpayable"},{"type":"function","name":"deactivated","inputs":[],"outputs":[{"name":"","type":"bool","internalType":"bool"}],"stateMutability":"view"},{"type":"function","name":"deadline","inputs":[],"outputs":[{"name":"","type":"uint256","internalType":"uint256"}],"stateMutability":"view"},{"type":"function","name":"donate","inputs":[],"outputs":[],"stateMutability":"payable"},{"type":"function","name":"donations","inputs":[{"name":"","type":"address","internalType":"address"}],"outputs":[{"name":"","type":"uint256","internalType":"uint256"}],"stateMutability":"view"},{"type":"function","name":"enableRefunds","inputs":[],"outputs":[],"stateMutability":"nonpayable"},{"type":"function","name":"fundingGoal","inputs":[],"outputs":[{"name":"","type":"uint256","internalType":"uint256"}],"stateMutability":"view"},{"type":"function","name":"getRoleAdmin","inputs":[{"name":"role","type":"bytes32","internalType":"bytes32"}],"outputs":[{"name":"","type":"bytes32","internalType":"bytes32"}],"stateMutability":"view"},{"type":"function","name":"grantRole","inputs":[{"name":"role","type":"bytes32","internalType":"bytes32"},{"name":"account","type":"address","internalType":"address"}],"outputs":[],"stateMutability":"nonpayable"},{"type":"function","name":"hasRole","inputs":[{"name":"role","type":"bytes32","internalType":"bytes32"},{"name":"account","type":"address","internalType":"address"}],"outputs":[{"name":"","type":"bool","internalType":"bool"}],"stateMutability":"view"},{"type":"function","name":"initialize","inputs":[{"name":"_creator","type":"address","internalType":"address"},{"name":"_fundingGoal","type":"uint256","internalType":"uint256"},{"name":"_duration","type":"uint256","internalType":"uint256"},{"name":"_treasury","type":"address","internalType":"address"},{"name":"_rewardToken","type":"address","internalType":"address"},{"name":"_name","type":"string","internalType":"string"}],"outputs":[],"stateMutability":"nonpayable"},{"type":"function","name":"markAsFailed","inputs":[],"outputs":[],"stateMutability":"nonpayable"},{"type":"function","name":"markFundsAsReleased","inputs":[],"outputs":[],"stateMutability":"nonpayable"},{"type":"function","name":"name","inputs":[],"outputs":[{"name":"","type":"string","internalType":"string"}],"stateMutability":"view"},{"type":"function","name":"renounceRole","inputs":[{"name":"role","type":"bytes32","internalType":"bytes32"},{"name":"callerConfirmation","type":"address","internalType":"address"}],"outputs":[],"stateMutability":"nonpayable"},{"type":"function","name":"revokeRole","inputs":[{"name":"role","type":"bytes32","internalType":"bytes32"},{"name":"account","type":"address","internalType":"address"}],"outputs":[],"stateMutability":"nonpayable"},{"type":"function","name":"rewardToken","inputs":[],"outputs":[{"name":"","type":"address","internalType":"address"}],"stateMutability":"view"},{"type":"function","name":"state","inputs":[],"outputs":[{"name":"","type":"uint8","internalType":"uint8"}],"stateMutability":"view"},{"type":"function","name":"supportsInterface","inputs":[{"name":"interfaceId","type":"bytes4","internalType":"bytes4"}],"outputs":[{"name":"","type":"bool","internalType":"bool"}],"stateMutability":"view"},{"type":"function","name":"totalDonated","inputs":[],"outputs":[{"name":"","type":"uint256","internalType":"uint256"}],"stateMutability":"view"},{"type":"function","name":"treasury","inputs":[],"outputs":[{"name":"","type":"address","internalType":"address"}],"stateMutability":"view"},{"type":"event","name":"CampaignDeactivated","inputs":[{"name":"campaignAddress","type":"address","indexed":true,"internalType":"address"},{"name":"ownedBy","type":"address","indexed":true,"internalType":"address"},{"name":"name","type":"string","indexed":true,"internalType":"string"}],"anonymous":false},{"type":"event","name":"Initialized","inputs":[{"name":"version","type":"uint64","indexed":false,"internalType":"uint64"}],"anonymous":false},{"type":"event","name":"RoleAdminChanged","inputs":[{"name":"role","type":"bytes32","indexed":true,"internalType":"bytes32"},{"name":"previousAdminRole","type":"bytes32","indexed":true,"internalType":"bytes32"},{"name":"newAdminRole","type":"bytes32","indexed":true,"internalType":"bytes32"}],"anonymous":false},{"type":"event","name":"RoleGranted","inputs":[{"name":"role","type":"bytes32","indexed":true,"internalType":"bytes32"},{"name":"account","type":"address","indexed":true,"internalType":"address"},{"name":"sender","type":"address","indexed":true,"internalType":"address"}],"anonymous":false},{"type":"event","name":"RoleRevoked","inputs":[{"name":"role","type":"bytes32","indexed":true,"internalType":"bytes32"},{"name":"account","type":"address","indexed":true,"internalType":"address"},{"name":"sender","type":"address","indexed":true,"internalType":"address"}],"anonymous":false},{"type":"error","name":"AccessControlBadConfirmation","inputs":[]},{"type":"error","name":"AccessControlUnauthorizedAccount","inputs":[{"name":"account","type":"address","internalType":"address"},{"name":"neededRole","type":"bytes32","internalType":"bytes32"}]},{"type":"error","name":"InvalidInitialization","inputs":[]},{"type":"error","name":"NotInitializing","inputs":[]},{"type":"error","name":"ReentrancyGuardReentrantCall","inputs":[]}],"bytecode":{"object":"0x6080604052348015600e575f80fd5b5060016029601f603360201b60201c565b605c60201b60201c565b5f01819055506065565b5f7f9b779b17422d0df92223018b32b4d1fa46e071723d6817e2486d003becc55f005f1b905090565b5f819050919050565b611dd3806100725f395ff3fe608060405260043610610149575f3560e01c806361d027b3116100b5578063a217fddf1161006e578063a217fddf14610421578063c19d93fb1461044b578063cc6cb19a14610475578063d547741f146104b1578063ed88c68e146104d9578063f7c618c1146104e357610149565b806361d027b31461033d5780637a3a0e84146103675780638163ac55146103915780638407e7ab146103b95780638c52dc41146103cf57806391d14854146103e557610149565b806329dcb0cf1161010757806329dcb0cf1461026d5780632f2ff15d1461029757806336568abe146102bf57806351b42b00146102e7578063556ed30e146102fd5780635da92a771461032757610149565b8062b370441461014d57806301ffc9a71461017757806302d05d3f146101b357806306fdde03146101dd578063248a9ca31461020757806328a854e614610243575b5f80fd5b348015610158575f80fd5b5061016161050d565b60405161016e9190611275565b60405180910390f35b348015610182575f80fd5b5061019d600480360381019061019891906112f4565b610513565b6040516101aa9190611339565b60405180910390f35b3480156101be575f80fd5b506101c761058c565b6040516101d49190611391565b60405180910390f35b3480156101e8575f80fd5b506101f16105af565b6040516101fe919061141a565b60405180910390f35b348015610212575f80fd5b5061022d6004803603810190610228919061146d565b61063b565b60405161023a91906114a7565b60405180910390f35b34801561024e575f80fd5b50610257610665565b60405161026491906114a7565b60405180910390f35b348015610278575f80fd5b50610281610689565b60405161028e9190611275565b60405180910390f35b3480156102a2575f80fd5b506102bd60048036038101906102b891906114ea565b61068f565b005b3480156102ca575f80fd5b506102e560048036038101906102e091906114ea565b6106b1565b005b3480156102f2575f80fd5b506102fb61072c565b005b348015610308575f80fd5b5061031161081e565b60405161031e9190611339565b60405180910390f35b348015610332575f80fd5b5061033b610831565b005b348015610348575f80fd5b50610351610833565b60405161035e9190611391565b60405180910390f35b348015610372575f80fd5b5061037b610858565b6040516103889190611275565b60405180910390f35b34801561039c575f80fd5b506103b760048036038101906103b2919061167e565b61085e565b005b3480156103c4575f80fd5b506103cd610b03565b005b3480156103da575f80fd5b506103e3610b05565b005b3480156103f0575f80fd5b5061040b600480360381019061040691906114ea565b610b07565b6040516104189190611339565b60405180910390f35b34801561042c575f80fd5b50610435610b78565b60405161044291906114a7565b60405180910390f35b348015610456575f80fd5b5061045f610b7e565b60405161046c919061173e565b60405180910390f35b348015610480575f80fd5b5061049b60048036038101906104969190611757565b610b90565b6040516104a89190611275565b60405180910390f35b3480156104bc575f80fd5b506104d760048036038101906104d291906114ea565b610ba5565b005b6104e1610bc7565b005b3480156104ee575f80fd5b506104f7610ddd565b6040516105049190611391565b60405180910390f35b60075481565b5f7f7965db0b000000000000000000000000000000000000000000000000000000007bffffffffffffffffffffffffffffffffffffffffffffffffffffffff1916827bffffffffffffffffffffffffffffffffffffffffffffffffffffffff19161480610585575061058482610e02565b5b9050919050565b5f8054906101000a900473ffffffffffffffffffffffffffffffffffffffff1681565b600580546105bc906117af565b80601f01602080910402602001604051908101604052809291908181526020018280546105e8906117af565b80156106335780601f1061060a57610100808354040283529160200191610633565b820191905f5260205f20905b81548152906001019060200180831161061657829003601f168201915b505050505081565b5f80610645610e6b565b9050805f015f8481526020019081526020015f2060010154915050919050565b7f334e4ff29b2b33ea01e68e72a933a3c413941d8539341b73a9bd86a2ae4d12f681565b60025481565b6106988261063b565b6106a181610e92565b6106ab8383610ea6565b50505050565b6106b9610f9e565b73ffffffffffffffffffffffffffffffffffffffff168173ffffffffffffffffffffffffffffffffffffffff161461071d576040517f6697b23200000000000000000000000000000000000000000000000000000000815260040160405180910390fd5b6107278282610fa5565b505050565b600254421015610771576040517f08c379a00000000000000000000000000000000000000000000000000000000081526004016107689061184f565b60405180910390fd5b6001600660016101000a81548160ff021916908315150217905550600560405161079b9190611909565b60405180910390205f8054906101000a900473ffffffffffffffffffffffffffffffffffffffff1673ffffffffffffffffffffffffffffffffffffffff163073ffffffffffffffffffffffffffffffffffffffff167f5ba1435f15f3ccf814453e676a014e560c4b0513a29ff6051995b977cf31e06c60405160405180910390a4565b600660019054906101000a900460ff1681565b565b60035f9054906101000a900473ffffffffffffffffffffffffffffffffffffffff1681565b60015481565b5f61086761109d565b90505f815f0160089054906101000a900460ff161590505f825f015f9054906101000a900467ffffffffffffffff1690505f808267ffffffffffffffff161480156108af5750825b90505f60018367ffffffffffffffff161480156108e257505f3073ffffffffffffffffffffffffffffffffffffffff163b145b9050811580156108f0575080155b15610927576040517ff92ee8a900000000000000000000000000000000000000000000000000000000815260040160405180910390fd5b6001855f015f6101000a81548167ffffffffffffffff021916908367ffffffffffffffff1602179055508315610974576001855f0160086101000a81548160ff0219169083151502179055505b61097c6110b0565b6109885f801b8c610ea6565b506109b37f334e4ff29b2b33ea01e68e72a933a3c413941d8539341b73a9bd86a2ae4d12f633610ea6565b508a5f806101000a81548173ffffffffffffffffffffffffffffffffffffffff021916908373ffffffffffffffffffffffffffffffffffffffff160217905550896001819055508842610a06919061194c565b6002819055508760035f6101000a81548173ffffffffffffffffffffffffffffffffffffffff021916908373ffffffffffffffffffffffffffffffffffffffff1602179055508660045f6101000a81548173ffffffffffffffffffffffffffffffffffffffff021916908373ffffffffffffffffffffffffffffffffffffffff1602179055508560059081610a9b9190611b0a565b508315610af6575f855f0160086101000a81548160ff0219169083151502179055507fc7f505b2f371ae2175ee4913f4499e1f2633a7b5936321eed1cdaeb6115181d26001604051610aed9190611c25565b60405180910390a15b5050505050505050505050565b565b565b5f80610b11610e6b565b9050805f015f8581526020019081526020015f205f015f8473ffffffffffffffffffffffffffffffffffffffff1673ffffffffffffffffffffffffffffffffffffffff1681526020019081526020015f205f9054906101000a900460ff1691505092915050565b5f801b81565b60065f9054906101000a900460ff1681565b6008602052805f5260405f205f915090505481565b610bae8261063b565b610bb781610e92565b610bc18383610fa5565b50505050565b610bcf6110ba565b6002544210610c13576040517f08c379a0000000000000000000000000000000000000000000000000000000008152600401610c0a90611c88565b60405180910390fd5b5f3411610c55576040517f08c379a0000000000000000000000000000000000000000000000000000000008152600401610c4c90611cf0565b60405180910390fd5b3460085f3373ffffffffffffffffffffffffffffffffffffffff1673ffffffffffffffffffffffffffffffffffffffff1681526020019081526020015f205f828254610ca1919061194c565b925050819055503460075f828254610cb9919061194c565b9250508190555060035f9054906101000a900473ffffffffffffffffffffffffffffffffffffffff1673ffffffffffffffffffffffffffffffffffffffff1663d0e30db0346040518263ffffffff1660e01b81526004015f604051808303818588803b158015610d27575f80fd5b505af1158015610d39573d5f803e3d5ffd5b505050505060045f9054906101000a900473ffffffffffffffffffffffffffffffffffffffff1673ffffffffffffffffffffffffffffffffffffffff166340c10f1933601434610d899190611d0e565b6040518363ffffffff1660e01b8152600401610da6929190611d4f565b5f604051808303815f87803b158015610dbd575f80fd5b505af1158015610dcf573d5f803e3d5ffd5b50505050610ddb6110dc565b565b60045f9054906101000a900473ffffffffffffffffffffffffffffffffffffffff1681565b5f7f01ffc9a7000000000000000000000000000000000000000000000000000000007bffffffffffffffffffffffffffffffffffffffffffffffffffffffff1916827bffffffffffffffffffffffffffffffffffffffffffffffffffffffff1916149050919050565b5f7f02dd7bc7dec4dceedda775e58dd541e08a116c6c53815c0bd028192f7b626800905090565b610ea381610e9e610f9e565b6110f6565b50565b5f80610eb0610e6b565b9050610ebc8484610b07565b610f93576001815f015f8681526020019081526020015f205f015f8573ffffffffffffffffffffffffffffffffffffffff1673ffffffffffffffffffffffffffffffffffffffff1681526020019081526020015f205f6101000a81548160ff021916908315150217905550610f2f610f9e565b73ffffffffffffffffffffffffffffffffffffffff168373ffffffffffffffffffffffffffffffffffffffff16857f2f8788117e7eff1d82e926ec794901d17c78024a50270940304540a733656f0d60405160405180910390a46001915050610f98565b5f9150505b92915050565b5f33905090565b5f80610faf610e6b565b9050610fbb8484610b07565b15611092575f815f015f8681526020019081526020015f205f015f8573ffffffffffffffffffffffffffffffffffffffff1673ffffffffffffffffffffffffffffffffffffffff1681526020019081526020015f205f6101000a81548160ff02191690831515021790555061102e610f9e565b73ffffffffffffffffffffffffffffffffffffffff168373ffffffffffffffffffffffffffffffffffffffff16857ff6391f5c32d9c69d2a47ea670b442974b53935d1edc7fd64eb21e047a839171b60405160405180910390a46001915050611097565b5f9150505b92915050565b5f806110a7611147565b90508091505090565b6110b8611170565b565b6110c26111b0565b60026110d46110cf6111f1565b61121a565b5f0181905550565b60016110ee6110e96111f1565b61121a565b5f0181905550565b6111008282610b07565b6111435780826040517fe2517d3f00000000000000000000000000000000000000000000000000000000815260040161113a929190611d76565b60405180910390fd5b5050565b5f7ff0c57e16840df040f15088dc2f81fe391c3923bec73e23a9662efc9c229c6a005f1b905090565b611178611223565b6111ae576040517fd7e6bcf800000000000000000000000000000000000000000000000000000000815260040160405180910390fd5b565b6111b8611241565b156111ef576040517f3ee5aeb500000000000000000000000000000000000000000000000000000000815260040160405180910390fd5b565b5f7f9b779b17422d0df92223018b32b4d1fa46e071723d6817e2486d003becc55f005f1b905090565b5f819050919050565b5f61122c61109d565b5f0160089054906101000a900460ff16905090565b5f600261125461124f6111f1565b61121a565b5f015414905090565b5f819050919050565b61126f8161125d565b82525050565b5f6020820190506112885f830184611266565b92915050565b5f604051905090565b5f80fd5b5f80fd5b5f7fffffffff0000000000000000000000000000000000000000000000000000000082169050919050565b6112d38161129f565b81146112dd575f80fd5b50565b5f813590506112ee816112ca565b92915050565b5f6020828403121561130957611308611297565b5b5f611316848285016112e0565b91505092915050565b5f8115159050919050565b6113338161131f565b82525050565b5f60208201905061134c5f83018461132a565b92915050565b5f73ffffffffffffffffffffffffffffffffffffffff82169050919050565b5f61137b82611352565b9050919050565b61138b81611371565b82525050565b5f6020820190506113a45f830184611382565b92915050565b5f81519050919050565b5f82825260208201905092915050565b8281835e5f83830152505050565b5f601f19601f8301169050919050565b5f6113ec826113aa565b6113f681856113b4565b93506114068185602086016113c4565b61140f816113d2565b840191505092915050565b5f6020820190508181035f83015261143281846113e2565b905092915050565b5f819050919050565b61144c8161143a565b8114611456575f80fd5b50565b5f8135905061146781611443565b92915050565b5f6020828403121561148257611481611297565b5b5f61148f84828501611459565b91505092915050565b6114a18161143a565b82525050565b5f6020820190506114ba5f830184611498565b92915050565b6114c981611371565b81146114d3575f80fd5b50565b5f813590506114e4816114c0565b92915050565b5f8060408385031215611500576114ff611297565b5b5f61150d85828601611459565b925050602061151e858286016114d6565b9150509250929050565b6115318161125d565b811461153b575f80fd5b50565b5f8135905061154c81611528565b92915050565b5f80fd5b5f80fd5b7f4e487b71000000000000000000000000000000000000000000000000000000005f52604160045260245ffd5b611590826113d2565b810181811067ffffffffffffffff821117156115af576115ae61155a565b5b80604052505050565b5f6115c161128e565b90506115cd8282611587565b919050565b5f67ffffffffffffffff8211156115ec576115eb61155a565b5b6115f5826113d2565b9050602081019050919050565b828183375f83830152505050565b5f61162261161d846115d2565b6115b8565b90508281526020810184848401111561163e5761163d611556565b5b611649848285611602565b509392505050565b5f82601f83011261166557611664611552565b5b8135611675848260208601611610565b91505092915050565b5f805f805f8060c0878903121561169857611697611297565b5b5f6116a589828a016114d6565b96505060206116b689828a0161153e565b95505060406116c789828a0161153e565b94505060606116d889828a016114d6565b93505060806116e989828a016114d6565b92505060a087013567ffffffffffffffff81111561170a5761170961129b565b5b61171689828a01611651565b9150509295509295509295565b5f60ff82169050919050565b61173881611723565b82525050565b5f6020820190506117515f83018461172f565b92915050565b5f6020828403121561176c5761176b611297565b5b5f611779848285016114d6565b91505092915050565b7f4e487b71000000000000000000000000000000000000000000000000000000005f52602260045260245ffd5b5f60028204905060018216806117c657607f821691505b6020821081036117d9576117d8611782565b5b50919050565b7f446561646c696e65206f66207468652063616d706169676e206973206e6f74205f8201527f72656163686564207965742e0000000000000000000000000000000000000000602082015250565b5f611839602c836113b4565b9150611844826117df565b604082019050919050565b5f6020820190508181035f8301526118668161182d565b9050919050565b5f81905092915050565b5f819050815f5260205f209050919050565b5f8154611895816117af565b61189f818661186d565b9450600182165f81146118b957600181146118ce57611900565b60ff1983168652811515820286019350611900565b6118d785611877565b5f5b838110156118f8578154818901526001820191506020810190506118d9565b838801955050505b50505092915050565b5f6119148284611889565b915081905092915050565b7f4e487b71000000000000000000000000000000000000000000000000000000005f52601160045260245ffd5b5f6119568261125d565b91506119618361125d565b92508282019050808211156119795761197861191f565b5b92915050565b5f6020601f8301049050919050565b5f82821b905092915050565b5f600883026119c97fffffffffffffffffffffffffffffffffffffffffffffffffffffffffffffffff8261198e565b6119d3868361198e565b95508019841693508086168417925050509392505050565b5f819050919050565b5f611a0e611a09611a048461125d565b6119eb565b61125d565b9050919050565b5f819050919050565b611a27836119f4565b611a3b611a3382611a15565b84845461199a565b825550505050565b5f90565b611a4f611a43565b611a5a818484611a1e565b505050565b5b81811015611a7d57611a725f82611a47565b600181019050611a60565b5050565b601f821115611ac257611a9381611877565b611a9c8461197f565b81016020851015611aab578190505b611abf611ab78561197f565b830182611a5f565b50505b505050565b5f82821c905092915050565b5f611ae25f1984600802611ac7565b1980831691505092915050565b5f611afa8383611ad3565b9150826002028217905092915050565b611b13826113aa565b67ffffffffffffffff811115611b2c57611b2b61155a565b5b611b3682546117af565b611b41828285611a81565b5f60209050601f831160018114611b72575f8415611b60578287015190505b611b6a8582611aef565b865550611bd1565b601f198416611b8086611877565b5f5b82811015611ba757848901518255600182019150602085019450602081019050611b82565b86831015611bc45784890151611bc0601f891682611ad3565b8355505b6001600288020188555050505b505050505050565b5f819050919050565b5f67ffffffffffffffff82169050919050565b5f611c0f611c0a611c0584611bd9565b6119eb565b611be2565b9050919050565b611c1f81611bf5565b82525050565b5f602082019050611c385f830184611c16565b92915050565b7f43616d706169676e2068617320656e64656400000000000000000000000000005f82015250565b5f611c726012836113b4565b9150611c7d82611c3e565b602082019050919050565b5f6020820190508181035f830152611c9f81611c66565b9050919050565b7f446f6e6174696f6e206d7573742062652067726561746572207468616e2030005f82015250565b5f611cda601f836113b4565b9150611ce582611ca6565b602082019050919050565b5f6020820190508181035f830152611d0781611cce565b9050919050565b5f611d188261125d565b9150611d238361125d565b9250828202611d318161125d565b91508282048414831517611d4857611d4761191f565b5b5092915050565b5f604082019050611d625f830185611382565b611d6f6020830184611266565b9392505050565b5f604082019050611d895f830185611382565b611d966020830184611498565b939250505056fea2646970667358221220043440e2b37bc8b03728ab79c36d7403c203fe9774290e053b934c0b68e860ed64736f6c63430008190033","linkReferences":{}},"methodIdentifiers":{"DEFAULT_ADMIN_ROLE()":"a217fddf","FACTORY_ADMIN()":"28a854e6","creator()":"02d05d3f","deactivate()":"51b42b00","deactivated()":"556ed30e","deadline()":"29dcb0cf","donate()":"ed88c68e","donations(address)":"cc6cb19a","enableRefunds()":"8c52dc41","fundingGoal()":"7a3a0e84","getRoleAdmin(bytes32)":"248a9ca3","grantRole(bytes32,address)":"2f2ff15d","hasRole(bytes32,address)":"91d14854","initialize(address,uint256,uint256,address,address,string)":"8163ac55","markAsFailed()":"5da92a77","markFundsAsReleased()":"8407e7ab","name()":"06fdde03","renounceRole(bytes32,address)":"36568abe","revokeRole(bytes32,address)":"d547741f","rewardToken()":"f7c618c1","state()":"c19d93fb","supportsInterface(bytes4)":"01ffc9a7","totalDonated()":"00b37044","treasury()":"61d027b3"},"id":36}