{"abi":[{"type":"constructor","inputs":[{"name":"_creator","type":"address","internalType":"address"},{"name":"_fundingGoal","type":"uint256","internalType":"uint256"},{"name":"_duration","type":"uint256","internalType":"uint256"},{"name":"_treasury","type":"address","internalType":"address"},{"name":"_rewardToken","type":"address","internalType":"address"}],"stateMutability":"nonpayable"},{"type":"function","name":"DEFAULT_ADMIN_ROLE","inputs":[],"outputs":[{"name":"","type":"bytes32","internalType":"bytes32"}],"stateMutability":"view"},{"type":"function","name":"FACTORY_ADMIN","inputs":[],"outputs":[{"name":"","type":"bytes32","internalType":"bytes32"}],"stateMutability":"view"},{"type":"function","name":"activate","inputs":[],"outputs":[],"stateMutability":"view"},{"type":"function","name":"creator","inputs":[],"outputs":[{"name":"","type":"address","internalType":"address"}],"stateMutability":"view"},{"type":"function","name":"deactivate","inputs":[],"outputs":[],"stateMutability":"nonpayable"},{"type":"function","name":"deactivated","inputs":[],"outputs":[{"name":"","type":"bool","internalType":"bool"}],"stateMutability":"view"},{"type":"function","name":"deadline","inputs":[],"outputs":[{"name":"","type":"uint256","internalType":"uint256"}],"stateMutability":"view"},{"type":"function","name":"donate","inputs":[],"outputs":[],"stateMutability":"payable"},{"type":"function","name":"donations","inputs":[{"name":"","type":"address","internalType":"address"}],"outputs":[{"name":"","type":"uint256","internalType":"uint256"}],"stateMutability":"view"},{"type":"function","name":"enableRefunds","inputs":[],"outputs":[],"stateMutability":"nonpayable"},{"type":"function","name":"fundingGoal","inputs":[],"outputs":[{"name":"","type":"uint256","internalType":"uint256"}],"stateMutability":"view"},{"type":"function","name":"getRoleAdmin","inputs":[{"name":"role","type":"bytes32","internalType":"bytes32"}],"outputs":[{"name":"","type":"bytes32","internalType":"bytes32"}],"stateMutability":"view"},{"type":"function","name":"grantRole","inputs":[{"name":"role","type":"bytes32","internalType":"bytes32"},{"name":"account","type":"address","internalType":"address"}],"outputs":[],"stateMutability":"nonpayable"},{"type":"function","name":"hasRole","inputs":[{"name":"role","type":"bytes32","internalType":"bytes32"},{"name":"account","type":"address","internalType":"address"}],"outputs":[{"name":"","type":"bool","internalType":"bool"}],"stateMutability":"view"},{"type":"function","name":"markAsFailed","inputs":[],"outputs":[],"stateMutability":"nonpayable"},{"type":"function","name":"markFundsAsReleased","inputs":[],"outputs":[],"stateMutability":"nonpayable"},{"type":"function","name":"renounceRole","inputs":[{"name":"role","type":"bytes32","internalType":"bytes32"},{"name":"callerConfirmation","type":"address","internalType":"address"}],"outputs":[],"stateMutability":"nonpayable"},{"type":"function","name":"revokeRole","inputs":[{"name":"role","type":"bytes32","internalType":"bytes32"},{"name":"account","type":"address","internalType":"address"}],"outputs":[],"stateMutability":"nonpayable"},{"type":"function","name":"rewardToken","inputs":[],"outputs":[{"name":"","type":"address","internalType":"address"}],"stateMutability":"view"},{"type":"function","name":"state","inputs":[],"outputs":[{"name":"","type":"uint8","internalType":"uint8"}],"stateMutability":"view"},{"type":"function","name":"supportsInterface","inputs":[{"name":"interfaceId","type":"bytes4","internalType":"bytes4"}],"outputs":[{"name":"","type":"bool","internalType":"bool"}],"stateMutability":"view"},{"type":"function","name":"totalDonated","inputs":[],"outputs":[{"name":"","type":"uint256","internalType":"uint256"}],"stateMutability":"view"},{"type":"function","name":"treasury","inputs":[],"outputs":[{"name":"","type":"address","internalType":"address"}],"stateMutability":"view"},{"type":"event","name":"CampaignDeactivated","inputs":[{"name":"campaignAddress","type":"address","indexed":true,"internalType":"address"},{"name":"ownedBy","type":"address","indexed":true,"internalType":"address"},{"name":"name","type":"string","indexed":true,"internalType":"string"}],"anonymous":false},{"type":"event","name":"Initialized","inputs":[{"name":"version","type":"uint64","indexed":false,"internalType":"uint64"}],"anonymous":false},{"type":"event","name":"RoleAdminChanged","inputs":[{"name":"role","type":"bytes32","indexed":true,"internalType":"bytes32"},{"name":"previousAdminRole","type":"bytes32","indexed":true,"internalType":"bytes32"},{"name":"newAdminRole","type":"bytes32","indexed":true,"internalType":"bytes32"}],"anonymous":false},{"type":"event","name":"RoleGranted","inputs":[{"name":"role","type":"bytes32","indexed":true,"internalType":"bytes32"},{"name":"account","type":"address","indexed":true,"internalType":"address"},{"name":"sender","type":"address","indexed":true,"internalType":"address"}],"anonymous":false},{"type":"event","name":"RoleRevoked","inputs":[{"name":"role","type":"bytes32","indexed":true,"internalType":"bytes32"},{"name":"account","type":"address","indexed":true,"internalType":"address"},{"name":"sender","type":"address","indexed":true,"internalType":"address"}],"anonymous":false},{"type":"error","name":"AccessControlBadConfirmation","inputs":[]},{"type":"error","name":"AccessControlUnauthorizedAccount","inputs":[{"name":"account","type":"address","internalType":"address"},{"name":"neededRole","type":"bytes32","internalType":"bytes32"}]},{"type":"error","name":"InvalidInitialization","inputs":[]},{"type":"error","name":"NotInitializing","inputs":[]}],"bytecode":{"object":"0x608060405234801561000f575f5ffd5b506040516118e83803806118e883398181016040528101906100319190610461565b61003f61016560201b60201c565b6100515f5f1b8661017560201b60201c565b506100827f334e4ff29b2b33ea01e68e72a933a3c413941d8539341b73a9bd86a2ae4d12f63361017560201b60201c565b50845f5f6101000a81548173ffffffffffffffffffffffffffffffffffffffff021916908373ffffffffffffffffffffffffffffffffffffffff1602179055508360018190555082426100d59190610505565b6002819055508160035f6101000a81548173ffffffffffffffffffffffffffffffffffffffff021916908373ffffffffffffffffffffffffffffffffffffffff1602179055508060045f6101000a81548173ffffffffffffffffffffffffffffffffffffffff021916908373ffffffffffffffffffffffffffffffffffffffff1602179055505050505050610538565b61017361027f60201b60201c565b565b5f5f6101856102c560201b60201c565b905061019784846102ec60201b60201c565b610274576001815f015f8681526020019081526020015f205f015f8573ffffffffffffffffffffffffffffffffffffffff1673ffffffffffffffffffffffffffffffffffffffff1681526020019081526020015f205f6101000a81548160ff02191690831515021790555061021061036360201b60201c565b73ffffffffffffffffffffffffffffffffffffffff168373ffffffffffffffffffffffffffffffffffffffff16857f2f8788117e7eff1d82e926ec794901d17c78024a50270940304540a733656f0d60405160405180910390a46001915050610279565b5f9150505b92915050565b61028d61036a60201b60201c565b6102c3576040517fd7e6bcf800000000000000000000000000000000000000000000000000000000815260040160405180910390fd5b565b5f7f02dd7bc7dec4dceedda775e58dd541e08a116c6c53815c0bd028192f7b626800905090565b5f5f6102fc6102c560201b60201c565b9050805f015f8581526020019081526020015f205f015f8473ffffffffffffffffffffffffffffffffffffffff1673ffffffffffffffffffffffffffffffffffffffff1681526020019081526020015f205f9054906101000a900460ff1691505092915050565b5f33905090565b5f61037961038e60201b60201c565b5f0160089054906101000a900460ff16905090565b5f5f61039e6103a760201b60201c565b90508091505090565b5f7ff0c57e16840df040f15088dc2f81fe391c3923bec73e23a9662efc9c229c6a005f1b905090565b5f5ffd5b5f73ffffffffffffffffffffffffffffffffffffffff82169050919050565b5f6103fd826103d4565b9050919050565b61040d816103f3565b8114610417575f5ffd5b50565b5f8151905061042881610404565b92915050565b5f819050919050565b6104408161042e565b811461044a575f5ffd5b50565b5f8151905061045b81610437565b92915050565b5f5f5f5f5f60a0868803121561047a576104796103d0565b5b5f6104878882890161041a565b95505060206104988882890161044d565b94505060406104a98882890161044d565b93505060606104ba8882890161041a565b92505060806104cb8882890161041a565b9150509295509295909350565b7f4e487b71000000000000000000000000000000000000000000000000000000005f52601160045260245ffd5b5f61050f8261042e565b915061051a8361042e565b9250828201905080821115610532576105316104d8565b5b92915050565b6113a3806105455f395ff3fe60806040526004361061013e575f3560e01c80635da92a77116100b5578063a217fddf1161006e578063a217fddf146103da578063c19d93fb14610404578063cc6cb19a1461042e578063d547741f1461046a578063ed88c68e14610492578063f7c618c11461049c5761013e565b80635da92a771461030857806361d027b31461031e5780637a3a0e84146103485780638407e7ab146103725780638c52dc411461038857806391d148541461039e5761013e565b806328a854e61161010757806328a854e61461022457806329dcb0cf1461024e5780632f2ff15d1461027857806336568abe146102a057806351b42b00146102c8578063556ed30e146102de5761013e565b8062b370441461014257806301ffc9a71461016c57806302d05d3f146101a85780630f15f4c0146101d2578063248a9ca3146101e8575b5f5ffd5b34801561014d575f5ffd5b506101566104c6565b6040516101639190610da5565b60405180910390f35b348015610177575f5ffd5b50610192600480360381019061018d9190610e17565b6104cc565b60405161019f9190610e5c565b60405180910390f35b3480156101b3575f5ffd5b506101bc610545565b6040516101c99190610eb4565b60405180910390f35b3480156101dd575f5ffd5b506101e6610569565b005b3480156101f3575f5ffd5b5061020e60048036038101906102099190610f00565b6105af565b60405161021b9190610f3a565b60405180910390f35b34801561022f575f5ffd5b506102386105d9565b6040516102459190610f3a565b60405180910390f35b348015610259575f5ffd5b506102626105fd565b60405161026f9190610da5565b60405180910390f35b348015610283575f5ffd5b5061029e60048036038101906102999190610f7d565b610603565b005b3480156102ab575f5ffd5b506102c660048036038101906102c19190610f7d565b610625565b005b3480156102d3575f5ffd5b506102dc6106a0565b005b3480156102e9575f5ffd5b506102f2610771565b6040516102ff9190610e5c565b60405180910390f35b348015610313575f5ffd5b5061031c610784565b005b348015610329575f5ffd5b50610332610786565b60405161033f9190610eb4565b60405180910390f35b348015610353575f5ffd5b5061035c6107ab565b6040516103699190610da5565b60405180910390f35b34801561037d575f5ffd5b506103866107b1565b005b348015610393575f5ffd5b5061039c6107b3565b005b3480156103a9575f5ffd5b506103c460048036038101906103bf9190610f7d565b6107b5565b6040516103d19190610e5c565b60405180910390f35b3480156103e5575f5ffd5b506103ee610826565b6040516103fb9190610f3a565b60405180910390f35b34801561040f575f5ffd5b5061041861082c565b6040516104259190610fd6565b60405180910390f35b348015610439575f5ffd5b50610454600480360381019061044f9190610fef565b61083f565b6040516104619190610da5565b60405180910390f35b348015610475575f5ffd5b50610490600480360381019061048b9190610f7d565b610854565b005b61049a610876565b005b3480156104a7575f5ffd5b506104b0610a7c565b6040516104bd9190610eb4565b60405180910390f35b60055481565b5f7f7965db0b000000000000000000000000000000000000000000000000000000007bffffffffffffffffffffffffffffffffffffffffffffffffffffffff1916827bffffffffffffffffffffffffffffffffffffffffffffffffffffffff1916148061053e575061053d82610aa1565b5b9050919050565b5f5f9054906101000a900473ffffffffffffffffffffffffffffffffffffffff1681565b60025442106105ad576040517f08c379a00000000000000000000000000000000000000000000000000000000081526004016105a49061109a565b60405180910390fd5b565b5f5f6105b9610b0a565b9050805f015f8481526020019081526020015f2060010154915050919050565b7f334e4ff29b2b33ea01e68e72a933a3c413941d8539341b73a9bd86a2ae4d12f681565b60025481565b61060c826105af565b61061581610b31565b61061f8383610b45565b50505050565b61062d610c3d565b73ffffffffffffffffffffffffffffffffffffffff168173ffffffffffffffffffffffffffffffffffffffff1614610691576040517f6697b23200000000000000000000000000000000000000000000000000000000815260040160405180910390fd5b61069b8282610c44565b505050565b6002544210156106e5576040517f08c379a00000000000000000000000000000000000000000000000000000000081526004016106dc90611128565b60405180910390fd5b6001600460156101000a81548160ff02191690831515021790555060405161070c9061119a565b6040518091039020600173ffffffffffffffffffffffffffffffffffffffff165f73ffffffffffffffffffffffffffffffffffffffff167f5ba1435f15f3ccf814453e676a014e560c4b0513a29ff6051995b977cf31e06c60405160405180910390a4565b600460159054906101000a900460ff1681565b565b60035f9054906101000a900473ffffffffffffffffffffffffffffffffffffffff1681565b60015481565b565b565b5f5f6107bf610b0a565b9050805f015f8581526020019081526020015f205f015f8473ffffffffffffffffffffffffffffffffffffffff1673ffffffffffffffffffffffffffffffffffffffff1681526020019081526020015f205f9054906101000a900460ff1691505092915050565b5f5f1b81565b600460149054906101000a900460ff1681565b6006602052805f5260405f205f915090505481565b61085d826105af565b61086681610b31565b6108708383610c44565b50505050565b60025442106108ba576040517f08c379a00000000000000000000000000000000000000000000000000000000081526004016108b1906111f8565b60405180910390fd5b5f34116108fc576040517f08c379a00000000000000000000000000000000000000000000000000000000081526004016108f390611260565b60405180910390fd5b3460065f3373ffffffffffffffffffffffffffffffffffffffff1673ffffffffffffffffffffffffffffffffffffffff1681526020019081526020015f205f82825461094891906112ab565b925050819055503460055f82825461096091906112ab565b9250508190555060035f9054906101000a900473ffffffffffffffffffffffffffffffffffffffff1673ffffffffffffffffffffffffffffffffffffffff1663d0e30db0346040518263ffffffff1660e01b81526004015f604051808303818588803b1580156109ce575f5ffd5b505af11580156109e0573d5f5f3e3d5ffd5b505050505060045f9054906101000a900473ffffffffffffffffffffffffffffffffffffffff1673ffffffffffffffffffffffffffffffffffffffff166340c10f1933601434610a3091906112de565b6040518363ffffffff1660e01b8152600401610a4d92919061131f565b5f604051808303815f87803b158015610a64575f5ffd5b505af1158015610a76573d5f5f3e3d5ffd5b50505050565b60045f9054906101000a900473ffffffffffffffffffffffffffffffffffffffff1681565b5f7f01ffc9a7000000000000000000000000000000000000000000000000000000007bffffffffffffffffffffffffffffffffffffffffffffffffffffffff1916827bffffffffffffffffffffffffffffffffffffffffffffffffffffffff1916149050919050565b5f7f02dd7bc7dec4dceedda775e58dd541e08a116c6c53815c0bd028192f7b626800905090565b610b4281610b3d610c3d565b610d3c565b50565b5f5f610b4f610b0a565b9050610b5b84846107b5565b610c32576001815f015f8681526020019081526020015f205f015f8573ffffffffffffffffffffffffffffffffffffffff1673ffffffffffffffffffffffffffffffffffffffff1681526020019081526020015f205f6101000a81548160ff021916908315150217905550610bce610c3d565b73ffffffffffffffffffffffffffffffffffffffff168373ffffffffffffffffffffffffffffffffffffffff16857f2f8788117e7eff1d82e926ec794901d17c78024a50270940304540a733656f0d60405160405180910390a46001915050610c37565b5f9150505b92915050565b5f33905090565b5f5f610c4e610b0a565b9050610c5a84846107b5565b15610d31575f815f015f8681526020019081526020015f205f015f8573ffffffffffffffffffffffffffffffffffffffff1673ffffffffffffffffffffffffffffffffffffffff1681526020019081526020015f205f6101000a81548160ff021916908315150217905550610ccd610c3d565b73ffffffffffffffffffffffffffffffffffffffff168373ffffffffffffffffffffffffffffffffffffffff16857ff6391f5c32d9c69d2a47ea670b442974b53935d1edc7fd64eb21e047a839171b60405160405180910390a46001915050610d36565b5f9150505b92915050565b610d4682826107b5565b610d895780826040517fe2517d3f000000000000000000000000000000000000000000000000000000008152600401610d80929190611346565b60405180910390fd5b5050565b5f819050919050565b610d9f81610d8d565b82525050565b5f602082019050610db85f830184610d96565b92915050565b5f5ffd5b5f7fffffffff0000000000000000000000000000000000000000000000000000000082169050919050565b610df681610dc2565b8114610e00575f5ffd5b50565b5f81359050610e1181610ded565b92915050565b5f60208284031215610e2c57610e2b610dbe565b5b5f610e3984828501610e03565b91505092915050565b5f8115159050919050565b610e5681610e42565b82525050565b5f602082019050610e6f5f830184610e4d565b92915050565b5f73ffffffffffffffffffffffffffffffffffffffff82169050919050565b5f610e9e82610e75565b9050919050565b610eae81610e94565b82525050565b5f602082019050610ec75f830184610ea5565b92915050565b5f819050919050565b610edf81610ecd565b8114610ee9575f5ffd5b50565b5f81359050610efa81610ed6565b92915050565b5f60208284031215610f1557610f14610dbe565b5b5f610f2284828501610eec565b91505092915050565b610f3481610ecd565b82525050565b5f602082019050610f4d5f830184610f2b565b92915050565b610f5c81610e94565b8114610f66575f5ffd5b50565b5f81359050610f7781610f53565b92915050565b5f5f60408385031215610f9357610f92610dbe565b5b5f610fa085828601610eec565b9250506020610fb185828601610f69565b9150509250929050565b5f60ff82169050919050565b610fd081610fbb565b82525050565b5f602082019050610fe95f830184610fc7565b92915050565b5f6020828403121561100457611003610dbe565b5b5f61101184828501610f69565b91505092915050565b5f82825260208201905092915050565b7f43616e6e6f742061637469766174652063616d706169676e20646561646c696e5f8201527f652068617320616c726561647920706173736564000000000000000000000000602082015250565b5f61108460348361101a565b915061108f8261102a565b604082019050919050565b5f6020820190508181035f8301526110b181611078565b9050919050565b7f446561646c696e65206f66207468652063616d706169676e206973206e6f74205f8201527f72656163686564207965742e0000000000000000000000000000000000000000602082015250565b5f611112602c8361101a565b915061111d826110b8565b604082019050919050565b5f6020820190508181035f83015261113f81611106565b9050919050565b5f81905092915050565b7f544f444f000000000000000000000000000000000000000000000000000000005f82015250565b5f611184600483611146565b915061118f82611150565b600482019050919050565b5f6111a482611178565b9150819050919050565b7f43616d706169676e2068617320656e64656400000000000000000000000000005f82015250565b5f6111e260128361101a565b91506111ed826111ae565b602082019050919050565b5f6020820190508181035f83015261120f816111d6565b9050919050565b7f446f6e6174696f6e206d7573742062652067726561746572207468616e2030005f82015250565b5f61124a601f8361101a565b915061125582611216565b602082019050919050565b5f6020820190508181035f8301526112778161123e565b9050919050565b7f4e487b71000000000000000000000000000000000000000000000000000000005f52601160045260245ffd5b5f6112b582610d8d565b91506112c083610d8d565b92508282019050808211156112d8576112d761127e565b5b92915050565b5f6112e882610d8d565b91506112f383610d8d565b925082820261130181610d8d565b915082820484148315176113185761131761127e565b5b5092915050565b5f6040820190506113325f830185610ea5565b61133f6020830184610d96565b9392505050565b5f6040820190506113595f830185610ea5565b6113666020830184610f2b565b939250505056fea2646970667358221220ef79231e50cc2e807305207db49628cb21704ab5af9b5d4d8f25b029f425941f64736f6c634300081e0033","linkReferences":{}},"methodIdentifiers":{"DEFAULT_ADMIN_ROLE()":"a217fddf","FACTORY_ADMIN()":"28a854e6","activate()":"0f15f4c0","creator()":"02d05d3f","deactivate()":"51b42b00","deactivated()":"556ed30e","deadline()":"29dcb0cf","donate()":"ed88c68e","donations(address)":"cc6cb19a","enableRefunds()":"8c52dc41","fundingGoal()":"7a3a0e84","getRoleAdmin(bytes32)":"248a9ca3","grantRole(bytes32,address)":"2f2ff15d","hasRole(bytes32,address)":"91d14854","markAsFailed()":"5da92a77","markFundsAsReleased()":"8407e7ab","renounceRole(bytes32,address)":"36568abe","revokeRole(bytes32,address)":"d547741f","rewardToken()":"f7c618c1","state()":"c19d93fb","supportsInterface(bytes4)":"01ffc9a7","totalDonated()":"00b37044","treasury()":"61d027b3"},"id":27}