{"abi":[{"type":"constructor","inputs":[{"name":"_creator","type":"address","internalType":"address"},{"name":"_fundingGoal","type":"uint256","internalType":"uint256"},{"name":"_duration","type":"uint256","internalType":"uint256"},{"name":"_treasury","type":"address","internalType":"address"},{"name":"_rewardToken","type":"address","internalType":"address"}],"stateMutability":"nonpayable"},{"type":"function","name":"creator","inputs":[],"outputs":[{"name":"","type":"address","internalType":"address"}],"stateMutability":"view"},{"type":"function","name":"deadline","inputs":[],"outputs":[{"name":"","type":"uint256","internalType":"uint256"}],"stateMutability":"view"},{"type":"function","name":"donate","inputs":[],"outputs":[],"stateMutability":"payable"},{"type":"function","name":"donations","inputs":[{"name":"","type":"address","internalType":"address"}],"outputs":[{"name":"","type":"uint256","internalType":"uint256"}],"stateMutability":"view"},{"type":"function","name":"fundingGoal","inputs":[],"outputs":[{"name":"","type":"uint256","internalType":"uint256"}],"stateMutability":"view"},{"type":"function","name":"rewardToken","inputs":[],"outputs":[{"name":"","type":"address","internalType":"address"}],"stateMutability":"view"},{"type":"function","name":"totalDonated","inputs":[],"outputs":[{"name":"","type":"uint256","internalType":"uint256"}],"stateMutability":"view"},{"type":"function","name":"treasury","inputs":[],"outputs":[{"name":"","type":"address","internalType":"address"}],"stateMutability":"view"}],"bytecode":{"object":"0x608060405234801561000f575f5ffd5b506040516109a23803806109a2833981810160405281019061003191906101a4565b845f5f6101000a81548173ffffffffffffffffffffffffffffffffffffffff021916908373ffffffffffffffffffffffffffffffffffffffff1602179055508360018190555082426100839190610248565b6002819055508160035f6101000a81548173ffffffffffffffffffffffffffffffffffffffff021916908373ffffffffffffffffffffffffffffffffffffffff1602179055508060045f6101000a81548173ffffffffffffffffffffffffffffffffffffffff021916908373ffffffffffffffffffffffffffffffffffffffff160217905550505050505061027b565b5f5ffd5b5f73ffffffffffffffffffffffffffffffffffffffff82169050919050565b5f61014082610117565b9050919050565b61015081610136565b811461015a575f5ffd5b50565b5f8151905061016b81610147565b92915050565b5f819050919050565b61018381610171565b811461018d575f5ffd5b50565b5f8151905061019e8161017a565b92915050565b5f5f5f5f5f60a086880312156101bd576101bc610113565b5b5f6101ca8882890161015d565b95505060206101db88828901610190565b94505060406101ec88828901610190565b93505060606101fd8882890161015d565b925050608061020e8882890161015d565b9150509295509295909350565b7f4e487b71000000000000000000000000000000000000000000000000000000005f52601160045260245ffd5b5f61025282610171565b915061025d83610171565b92508282019050808211156102755761027461021b565b5b92915050565b61071a806102885f395ff3fe608060405260043610610079575f3560e01c80637a3a0e841161004d5780637a3a0e8414610125578063cc6cb19a1461014f578063ed88c68e1461018b578063f7c618c11461019557610079565b8062b370441461007d57806302d05d3f146100a757806329dcb0cf146100d157806361d027b3146100fb575b5f5ffd5b348015610088575f5ffd5b506100916101bf565b60405161009e9190610472565b60405180910390f35b3480156100b2575f5ffd5b506100bb6101c5565b6040516100c891906104ca565b60405180910390f35b3480156100dc575f5ffd5b506100e56101e9565b6040516100f29190610472565b60405180910390f35b348015610106575f5ffd5b5061010f6101ef565b60405161011c91906104ca565b60405180910390f35b348015610130575f5ffd5b50610139610214565b6040516101469190610472565b60405180910390f35b34801561015a575f5ffd5b5061017560048036038101906101709190610511565b61021a565b6040516101829190610472565b60405180910390f35b61019361022f565b005b3480156101a0575f5ffd5b506101a9610435565b6040516101b691906104ca565b60405180910390f35b60055481565b5f5f9054906101000a900473ffffffffffffffffffffffffffffffffffffffff1681565b60025481565b60035f9054906101000a900473ffffffffffffffffffffffffffffffffffffffff1681565b60015481565b6006602052805f5260405f205f915090505481565b6002544210610273576040517f08c379a000000000000000000000000000000000000000000000000000000000815260040161026a90610596565b60405180910390fd5b5f34116102b5576040517f08c379a00000000000000000000000000000000000000000000000000000000081526004016102ac906105fe565b60405180910390fd5b3460065f3373ffffffffffffffffffffffffffffffffffffffff1673ffffffffffffffffffffffffffffffffffffffff1681526020019081526020015f205f8282546103019190610649565b925050819055503460055f8282546103199190610649565b9250508190555060035f9054906101000a900473ffffffffffffffffffffffffffffffffffffffff1673ffffffffffffffffffffffffffffffffffffffff1663d0e30db0346040518263ffffffff1660e01b81526004015f604051808303818588803b158015610387575f5ffd5b505af1158015610399573d5f5f3e3d5ffd5b505050505060045f9054906101000a900473ffffffffffffffffffffffffffffffffffffffff1673ffffffffffffffffffffffffffffffffffffffff166340c10f19336014346103e9919061067c565b6040518363ffffffff1660e01b81526004016104069291906106bd565b5f604051808303815f87803b15801561041d575f5ffd5b505af115801561042f573d5f5f3e3d5ffd5b50505050565b60045f9054906101000a900473ffffffffffffffffffffffffffffffffffffffff1681565b5f819050919050565b61046c8161045a565b82525050565b5f6020820190506104855f830184610463565b92915050565b5f73ffffffffffffffffffffffffffffffffffffffff82169050919050565b5f6104b48261048b565b9050919050565b6104c4816104aa565b82525050565b5f6020820190506104dd5f8301846104bb565b92915050565b5f5ffd5b6104f0816104aa565b81146104fa575f5ffd5b50565b5f8135905061050b816104e7565b92915050565b5f60208284031215610526576105256104e3565b5b5f610533848285016104fd565b91505092915050565b5f82825260208201905092915050565b7f43616d706169676e2068617320656e64656400000000000000000000000000005f82015250565b5f61058060128361053c565b915061058b8261054c565b602082019050919050565b5f6020820190508181035f8301526105ad81610574565b9050919050565b7f446f6e6174696f6e206d7573742062652067726561746572207468616e2030005f82015250565b5f6105e8601f8361053c565b91506105f3826105b4565b602082019050919050565b5f6020820190508181035f830152610615816105dc565b9050919050565b7f4e487b71000000000000000000000000000000000000000000000000000000005f52601160045260245ffd5b5f6106538261045a565b915061065e8361045a565b92508282019050808211156106765761067561061c565b5b92915050565b5f6106868261045a565b91506106918361045a565b925082820261069f8161045a565b915082820484148315176106b6576106b561061c565b5b5092915050565b5f6040820190506106d05f8301856104bb565b6106dd6020830184610463565b939250505056fea264697066735822122043dd28327ba5300791f75fc34bcdde87d8e66848df60575f0ee7560f97eae42f64736f6c634300081e0033","linkReferences":{}},"methodIdentifiers":{"creator()":"02d05d3f","deadline()":"29dcb0cf","donate()":"ed88c68e","donations(address)":"cc6cb19a","fundingGoal()":"7a3a0e84","rewardToken()":"f7c618c1","totalDonated()":"00b37044","treasury()":"61d027b3"},"id":0}