{"abi":[{"type":"function","name":"DEFAULT_ADMIN_ROLE","inputs":[],"outputs":[{"name":"","type":"bytes32","internalType":"bytes32"}],"stateMutability":"view"},{"type":"function","name":"FACTORY_ADMIN","inputs":[],"outputs":[{"name":"","type":"bytes32","internalType":"bytes32"}],"stateMutability":"view"},{"type":"function","name":"claimRefund","inputs":[],"outputs":[],"stateMutability":"nonpayable"},{"type":"function","name":"creator","inputs":[],"outputs":[{"name":"","type":"address","internalType":"address"}],"stateMutability":"view"},{"type":"function","name":"deactivate","inputs":[],"outputs":[],"stateMutability":"nonpayable"},{"type":"function","name":"deactivated","inputs":[],"outputs":[{"name":"","type":"bool","internalType":"bool"}],"stateMutability":"view"},{"type":"function","name":"deadline","inputs":[],"outputs":[{"name":"","type":"uint256","internalType":"uint256"}],"stateMutability":"view"},{"type":"function","name":"donate","inputs":[],"outputs":[],"stateMutability":"payable"},{"type":"function","name":"donations","inputs":[{"name":"","type":"address","internalType":"address"}],"outputs":[{"name":"","type":"uint256","internalType":"uint256"}],"stateMutability":"view"},{"type":"function","name":"finalize","inputs":[],"outputs":[],"stateMutability":"nonpayable"},{"type":"function","name":"fundingGoal","inputs":[],"outputs":[{"name":"","type":"uint256","internalType":"uint256"}],"stateMutability":"view"},{"type":"function","name":"getRoleAdmin","inputs":[{"name":"role","type":"bytes32","internalType":"bytes32"}],"outputs":[{"name":"","type":"bytes32","internalType":"bytes32"}],"stateMutability":"view"},{"type":"function","name":"grantRole","inputs":[{"name":"role","type":"bytes32","internalType":"bytes32"},{"name":"account","type":"address","internalType":"address"}],"outputs":[],"stateMutability":"nonpayable"},{"type":"function","name":"hasRole","inputs":[{"name":"role","type":"bytes32","internalType":"bytes32"},{"name":"account","type":"address","internalType":"address"}],"outputs":[{"name":"","type":"bool","internalType":"bool"}],"stateMutability":"view"},{"type":"function","name":"initialize","inputs":[{"name":"_creator","type":"address","internalType":"address"},{"name":"_fundingGoal","type":"uint256","internalType":"uint256"},{"name":"_duration","type":"uint256","internalType":"uint256"},{"name":"_treasury","type":"address","internalType":"address"},{"name":"_rewardToken","type":"address","internalType":"address"},{"name":"_name","type":"string","internalType":"string"}],"outputs":[],"stateMutability":"nonpayable"},{"type":"function","name":"name","inputs":[],"outputs":[{"name":"","type":"string","internalType":"string"}],"stateMutability":"view"},{"type":"function","name":"renounceRole","inputs":[{"name":"role","type":"bytes32","internalType":"bytes32"},{"name":"callerConfirmation","type":"address","internalType":"address"}],"outputs":[],"stateMutability":"nonpayable"},{"type":"function","name":"revokeRole","inputs":[{"name":"role","type":"bytes32","internalType":"bytes32"},{"name":"account","type":"address","internalType":"address"}],"outputs":[],"stateMutability":"nonpayable"},{"type":"function","name":"rewardToken","inputs":[],"outputs":[{"name":"","type":"address","internalType":"address"}],"stateMutability":"view"},{"type":"function","name":"state","inputs":[],"outputs":[{"name":"","type":"uint8","internalType":"uint8"}],"stateMutability":"view"},{"type":"function","name":"supportsInterface","inputs":[{"name":"interfaceId","type":"bytes4","internalType":"bytes4"}],"outputs":[{"name":"","type":"bool","internalType":"bool"}],"stateMutability":"view"},{"type":"function","name":"totalDonated","inputs":[],"outputs":[{"name":"","type":"uint256","internalType":"uint256"}],"stateMutability":"view"},{"type":"function","name":"treasury","inputs":[],"outputs":[{"name":"","type":"address","internalType":"address"}],"stateMutability":"view"},{"type":"function","name":"version","inputs":[],"outputs":[{"name":"","type":"uint256","internalType":"uint256"}],"stateMutability":"pure"},{"type":"event","name":"CampaignDeactivated","inputs":[{"name":"campaignAddress","type":"address","indexed":true,"internalType":"address"},{"name":"ownedBy","type":"address","indexed":true,"internalType":"address"},{"name":"name","type":"string","indexed":true,"internalType":"string"}],"anonymous":false},{"type":"event","name":"Initialized","inputs":[{"name":"version","type":"uint64","indexed":false,"internalType":"uint64"}],"anonymous":false},{"type":"event","name":"RoleAdminChanged","inputs":[{"name":"role","type":"bytes32","indexed":true,"internalType":"bytes32"},{"name":"previousAdminRole","type":"bytes32","indexed":true,"internalType":"bytes32"},{"name":"newAdminRole","type":"bytes32","indexed":true,"internalType":"bytes32"}],"anonymous":false},{"type":"event","name":"RoleGranted","inputs":[{"name":"role","type":"bytes32","indexed":true,"internalType":"bytes32"},{"name":"account","type":"address","indexed":true,"internalType":"address"},{"name":"sender","type":"address","indexed":true,"internalType":"address"}],"anonymous":false},{"type":"event","name":"RoleRevoked","inputs":[{"name":"role","type":"bytes32","indexed":true,"internalType":"bytes32"},{"name":"account","type":"address","indexed":true,"internalType":"address"},{"name":"sender","type":"address","indexed":true,"internalType":"address"}],"anonymous":false},{"type":"error","name":"AccessControlBadConfirmation","inputs":[]},{"type":"error","name":"AccessControlUnauthorizedAccount","inputs":[{"name":"account","type":"address","internalType":"address"},{"name":"neededRole","type":"bytes32","internalType":"bytes32"}]},{"type":"error","name":"InvalidInitialization","inputs":[]},{"type":"error","name":"NotInitializing","inputs":[]},{"type":"error","name":"ReentrancyGuardReentrantCall","inputs":[]}],"bytecode":{"object":"0x6080604052348015600e575f80fd5b5060016029601f603360201b60201c565b605c60201b60201c565b5f01819055506065565b5f7f9b779b17422d0df92223018b32b4d1fa46e071723d6817e2486d003becc55f005f1b905090565b5f819050919050565b612350806100725f395ff3fe608060405260043610610149575f3560e01c8063556ed30e116100b5578063b5545a3c1161006e578063b5545a3c14610449578063c19d93fb1461045f578063cc6cb19a14610489578063d547741f146104c5578063ed88c68e146104ed578063f7c618c1146104f757610149565b8063556ed30e1461033d57806361d027b3146103675780637a3a0e84146103915780638163ac55146103bb57806391d14854146103e3578063a217fddf1461041f57610149565b806329dcb0cf1161010757806329dcb0cf1461026d5780632f2ff15d1461029757806336568abe146102bf5780634bb278f3146102e757806351b42b00146102fd57806354fd4d501461031357610149565b8062b370441461014d57806301ffc9a71461017757806302d05d3f146101b357806306fdde03146101dd578063248a9ca31461020757806328a854e614610243575b5f80fd5b348015610158575f80fd5b50610161610521565b60405161016e9190611652565b60405180910390f35b348015610182575f80fd5b5061019d600480360381019061019891906116d1565b610527565b6040516101aa9190611716565b60405180910390f35b3480156101be575f80fd5b506101c76105a0565b6040516101d4919061176e565b60405180910390f35b3480156101e8575f80fd5b506101f16105c3565b6040516101fe91906117f7565b60405180910390f35b348015610212575f80fd5b5061022d6004803603810190610228919061184a565b61064f565b60405161023a9190611884565b60405180910390f35b34801561024e575f80fd5b50610257610679565b6040516102649190611884565b60405180910390f35b348015610278575f80fd5b5061028161069d565b60405161028e9190611652565b60405180910390f35b3480156102a2575f80fd5b506102bd60048036038101906102b891906118c7565b6106a3565b005b3480156102ca575f80fd5b506102e560048036038101906102e091906118c7565b6106c5565b005b3480156102f2575f80fd5b506102fb610740565b005b348015610308575f80fd5b506103116108fc565b005b34801561031e575f80fd5b506103276109ee565b6040516103349190611652565b60405180910390f35b348015610348575f80fd5b506103516109f6565b60405161035e9190611716565b60405180910390f35b348015610372575f80fd5b5061037b610a09565b604051610388919061176e565b60405180910390f35b34801561039c575f80fd5b506103a5610a2e565b6040516103b29190611652565b60405180910390f35b3480156103c6575f80fd5b506103e160048036038101906103dc9190611a5b565b610a34565b005b3480156103ee575f80fd5b50610409600480360381019061040491906118c7565b610cf4565b6040516104169190611716565b60405180910390f35b34801561042a575f80fd5b50610433610d65565b6040516104409190611884565b60405180910390f35b348015610454575f80fd5b5061045d610d6b565b005b34801561046a575f80fd5b50610473610f30565b6040516104809190611b1b565b60405180910390f35b348015610494575f80fd5b506104af60048036038101906104aa9190611b34565b610f42565b6040516104bc9190611652565b60405180910390f35b3480156104d0575f80fd5b506104eb60048036038101906104e691906118c7565b610f57565b005b6104f5610f79565b005b348015610502575f80fd5b5061050b61118f565b604051610518919061176e565b60405180910390f35b60075481565b5f7f7965db0b000000000000000000000000000000000000000000000000000000007bffffffffffffffffffffffffffffffffffffffffffffffffffffffff1916827bffffffffffffffffffffffffffffffffffffffffffffffffffffffff191614806105995750610598826111b4565b5b9050919050565b5f8054906101000a900473ffffffffffffffffffffffffffffffffffffffff1681565b600580546105d090611b8c565b80601f01602080910402602001604051908101604052809291908181526020018280546105fc90611b8c565b80156106475780601f1061061e57610100808354040283529160200191610647565b820191905f5260205f20905b81548152906001019060200180831161062a57829003601f168201915b505050505081565b5f8061065961121d565b9050805f015f8481526020019081526020015f2060010154915050919050565b7f334e4ff29b2b33ea01e68e72a933a3c413941d8539341b73a9bd86a2ae4d12f681565b60025481565b6106ac8261064f565b6106b581611244565b6106bf8383611258565b50505050565b6106cd611350565b73ffffffffffffffffffffffffffffffffffffffff168173ffffffffffffffffffffffffffffffffffffffff1614610731576040517f6697b23200000000000000000000000000000000000000000000000000000000815260040160405180910390fd5b61073b8282611357565b505050565b600254421015610785576040517f08c379a000000000000000000000000000000000000000000000000000000000815260040161077c90611c06565b60405180910390fd5b6107aa600160065f9054906101000a900460ff1660ff1661144f90919063ffffffff16565b6107e9576040517f08c379a00000000000000000000000000000000000000000000000000000000081526004016107e090611c6e565b60405180910390fd5b61080e600160065f9054906101000a900460ff1660ff1661146190919063ffffffff16565b60065f6101000a81548160ff021916908360ff1602179055506001546007541061087557610857600260065f9054906101000a900460ff1660ff1661146e90919063ffffffff16565b60065f6101000a81548160ff021916908360ff1602179055506108f2565b61089a600460065f9054906101000a900460ff1660ff1661146e90919063ffffffff16565b60065f6101000a81548160ff021916908360ff1602179055506108d8600860065f9054906101000a900460ff1660ff1661146e90919063ffffffff16565b60065f6101000a81548160ff021916908360ff1602179055505b6108fa6108fc565b565b600254421015610941576040517f08c379a000000000000000000000000000000000000000000000000000000000815260040161093890611cfc565b60405180910390fd5b6001600660016101000a81548160ff021916908315150217905550600560405161096b9190611db6565b60405180910390205f8054906101000a900473ffffffffffffffffffffffffffffffffffffffff1673ffffffffffffffffffffffffffffffffffffffff163073ffffffffffffffffffffffffffffffffffffffff167f5ba1435f15f3ccf814453e676a014e560c4b0513a29ff6051995b977cf31e06c60405160405180910390a4565b5f6001905090565b600660019054906101000a900460ff1681565b60035f9054906101000a900473ffffffffffffffffffffffffffffffffffffffff1681565b60015481565b5f610a3d61147a565b90505f815f0160089054906101000a900460ff161590505f825f015f9054906101000a900467ffffffffffffffff1690505f808267ffffffffffffffff16148015610a855750825b90505f60018367ffffffffffffffff16148015610ab857505f3073ffffffffffffffffffffffffffffffffffffffff163b145b905081158015610ac6575080155b15610afd576040517ff92ee8a900000000000000000000000000000000000000000000000000000000815260040160405180910390fd5b6001855f015f6101000a81548167ffffffffffffffff021916908367ffffffffffffffff1602179055508315610b4a576001855f0160086101000a81548160ff0219169083151502179055505b610b5261148d565b610b5e5f801b8c611258565b50610b897f334e4ff29b2b33ea01e68e72a933a3c413941d8539341b73a9bd86a2ae4d12f633611258565b508a5f806101000a81548173ffffffffffffffffffffffffffffffffffffffff021916908373ffffffffffffffffffffffffffffffffffffffff160217905550896001819055508842610bdc9190611df9565b6002819055508760035f6101000a81548173ffffffffffffffffffffffffffffffffffffffff021916908373ffffffffffffffffffffffffffffffffffffffff1602179055508660045f6101000a81548173ffffffffffffffffffffffffffffffffffffffff021916908373ffffffffffffffffffffffffffffffffffffffff1602179055508560059081610c719190611fb7565b50600160065f6101000a81548160ff021916908360ff1602179055508315610ce7575f855f0160086101000a81548160ff0219169083151502179055507fc7f505b2f371ae2175ee4913f4499e1f2633a7b5936321eed1cdaeb6115181d26001604051610cde91906120d2565b60405180910390a15b5050505050505050505050565b5f80610cfe61121d565b9050805f015f8581526020019081526020015f205f015f8473ffffffffffffffffffffffffffffffffffffffff1673ffffffffffffffffffffffffffffffffffffffff1681526020019081526020015f205f9054906101000a900460ff1691505092915050565b5f801b81565b610d73611497565b610d98600860065f9054906101000a900460ff1660ff1661144f90919063ffffffff16565b610dd7576040517f08c379a0000000000000000000000000000000000000000000000000000000008152600401610dce90612135565b60405180910390fd5b5f60085f3373ffffffffffffffffffffffffffffffffffffffff1673ffffffffffffffffffffffffffffffffffffffff1681526020019081526020015f205490505f8111610e5a576040517f08c379a0000000000000000000000000000000000000000000000000000000008152600401610e519061219d565b60405180910390fd5b5f60085f3373ffffffffffffffffffffffffffffffffffffffff1673ffffffffffffffffffffffffffffffffffffffff1681526020019081526020015f208190555060035f9054906101000a900473ffffffffffffffffffffffffffffffffffffffff1673ffffffffffffffffffffffffffffffffffffffff1663410085df33836040518363ffffffff1660e01b8152600401610ef89291906121bb565b5f604051808303815f87803b158015610f0f575f80fd5b505af1158015610f21573d5f803e3d5ffd5b5050505050610f2e6114b9565b565b60065f9054906101000a900460ff1681565b6008602052805f5260405f205f915090505481565b610f608261064f565b610f6981611244565b610f738383611357565b50505050565b610f81611497565b6002544210610fc5576040517f08c379a0000000000000000000000000000000000000000000000000000000008152600401610fbc9061222c565b60405180910390fd5b5f3411611007576040517f08c379a0000000000000000000000000000000000000000000000000000000008152600401610ffe90612294565b60405180910390fd5b3460085f3373ffffffffffffffffffffffffffffffffffffffff1673ffffffffffffffffffffffffffffffffffffffff1681526020019081526020015f205f8282546110539190611df9565b925050819055503460075f82825461106b9190611df9565b9250508190555060035f9054906101000a900473ffffffffffffffffffffffffffffffffffffffff1673ffffffffffffffffffffffffffffffffffffffff1663d0e30db0346040518263ffffffff1660e01b81526004015f604051808303818588803b1580156110d9575f80fd5b505af11580156110eb573d5f803e3d5ffd5b505050505060045f9054906101000a900473ffffffffffffffffffffffffffffffffffffffff1673ffffffffffffffffffffffffffffffffffffffff166340c10f193360143461113b91906122b2565b6040518363ffffffff1660e01b81526004016111589291906121bb565b5f604051808303815f87803b15801561116f575f80fd5b505af1158015611181573d5f803e3d5ffd5b5050505061118d6114b9565b565b60045f9054906101000a900473ffffffffffffffffffffffffffffffffffffffff1681565b5f7f01ffc9a7000000000000000000000000000000000000000000000000000000007bffffffffffffffffffffffffffffffffffffffffffffffffffffffff1916827bffffffffffffffffffffffffffffffffffffffffffffffffffffffff1916149050919050565b5f7f02dd7bc7dec4dceedda775e58dd541e08a116c6c53815c0bd028192f7b626800905090565b61125581611250611350565b6114d3565b50565b5f8061126261121d565b905061126e8484610cf4565b611345576001815f015f8681526020019081526020015f205f015f8573ffffffffffffffffffffffffffffffffffffffff1673ffffffffffffffffffffffffffffffffffffffff1681526020019081526020015f205f6101000a81548160ff0219169083151502179055506112e1611350565b73ffffffffffffffffffffffffffffffffffffffff168373ffffffffffffffffffffffffffffffffffffffff16857f2f8788117e7eff1d82e926ec794901d17c78024a50270940304540a733656f0d60405160405180910390a4600191505061134a565b5f9150505b92915050565b5f33905090565b5f8061136161121d565b905061136d8484610cf4565b15611444575f815f015f8681526020019081526020015f205f015f8573ffffffffffffffffffffffffffffffffffffffff1673ffffffffffffffffffffffffffffffffffffffff1681526020019081526020015f205f6101000a81548160ff0219169083151502179055506113e0611350565b73ffffffffffffffffffffffffffffffffffffffff168373ffffffffffffffffffffffffffffffffffffffff16857ff6391f5c32d9c69d2a47ea670b442974b53935d1edc7fd64eb21e047a839171b60405160405180910390a46001915050611449565b5f9150505b92915050565b5f8082841660ff161415905092915050565b5f81198316905092915050565b5f818317905092915050565b5f80611484611524565b90508091505090565b61149561154d565b565b61149f61158d565b60026114b16114ac6115ce565b6115f7565b5f0181905550565b60016114cb6114c66115ce565b6115f7565b5f0181905550565b6114dd8282610cf4565b6115205780826040517fe2517d3f0000000000000000000000000000000000000000000000000000000081526004016115179291906122f3565b60405180910390fd5b5050565b5f7ff0c57e16840df040f15088dc2f81fe391c3923bec73e23a9662efc9c229c6a005f1b905090565b611555611600565b61158b576040517fd7e6bcf800000000000000000000000000000000000000000000000000000000815260040160405180910390fd5b565b61159561161e565b156115cc576040517f3ee5aeb500000000000000000000000000000000000000000000000000000000815260040160405180910390fd5b565b5f7f9b779b17422d0df92223018b32b4d1fa46e071723d6817e2486d003becc55f005f1b905090565b5f819050919050565b5f61160961147a565b5f0160089054906101000a900460ff16905090565b5f600261163161162c6115ce565b6115f7565b5f015414905090565b5f819050919050565b61164c8161163a565b82525050565b5f6020820190506116655f830184611643565b92915050565b5f604051905090565b5f80fd5b5f80fd5b5f7fffffffff0000000000000000000000000000000000000000000000000000000082169050919050565b6116b08161167c565b81146116ba575f80fd5b50565b5f813590506116cb816116a7565b92915050565b5f602082840312156116e6576116e5611674565b5b5f6116f3848285016116bd565b91505092915050565b5f8115159050919050565b611710816116fc565b82525050565b5f6020820190506117295f830184611707565b92915050565b5f73ffffffffffffffffffffffffffffffffffffffff82169050919050565b5f6117588261172f565b9050919050565b6117688161174e565b82525050565b5f6020820190506117815f83018461175f565b92915050565b5f81519050919050565b5f82825260208201905092915050565b8281835e5f83830152505050565b5f601f19601f8301169050919050565b5f6117c982611787565b6117d38185611791565b93506117e38185602086016117a1565b6117ec816117af565b840191505092915050565b5f6020820190508181035f83015261180f81846117bf565b905092915050565b5f819050919050565b61182981611817565b8114611833575f80fd5b50565b5f8135905061184481611820565b92915050565b5f6020828403121561185f5761185e611674565b5b5f61186c84828501611836565b91505092915050565b61187e81611817565b82525050565b5f6020820190506118975f830184611875565b92915050565b6118a68161174e565b81146118b0575f80fd5b50565b5f813590506118c18161189d565b92915050565b5f80604083850312156118dd576118dc611674565b5b5f6118ea85828601611836565b92505060206118fb858286016118b3565b9150509250929050565b61190e8161163a565b8114611918575f80fd5b50565b5f8135905061192981611905565b92915050565b5f80fd5b5f80fd5b7f4e487b71000000000000000000000000000000000000000000000000000000005f52604160045260245ffd5b61196d826117af565b810181811067ffffffffffffffff8211171561198c5761198b611937565b5b80604052505050565b5f61199e61166b565b90506119aa8282611964565b919050565b5f67ffffffffffffffff8211156119c9576119c8611937565b5b6119d2826117af565b9050602081019050919050565b828183375f83830152505050565b5f6119ff6119fa846119af565b611995565b905082815260208101848484011115611a1b57611a1a611933565b5b611a268482856119df565b509392505050565b5f82601f830112611a4257611a4161192f565b5b8135611a528482602086016119ed565b91505092915050565b5f805f805f8060c08789031215611a7557611a74611674565b5b5f611a8289828a016118b3565b9650506020611a9389828a0161191b565b9550506040611aa489828a0161191b565b9450506060611ab589828a016118b3565b9350506080611ac689828a016118b3565b92505060a087013567ffffffffffffffff811115611ae757611ae6611678565b5b611af389828a01611a2e565b9150509295509295509295565b5f60ff82169050919050565b611b1581611b00565b82525050565b5f602082019050611b2e5f830184611b0c565b92915050565b5f60208284031215611b4957611b48611674565b5b5f611b56848285016118b3565b91505092915050565b7f4e487b71000000000000000000000000000000000000000000000000000000005f52602260045260245ffd5b5f6002820490506001821680611ba357607f821691505b602082108103611bb657611bb5611b5f565b5b50919050565b7f43616d706169676e207374696c6c2061637469766500000000000000000000005f82015250565b5f611bf0601583611791565b9150611bfb82611bbc565b602082019050919050565b5f6020820190508181035f830152611c1d81611be4565b9050919050565b7f416c72656164792066696e616c697a65640000000000000000000000000000005f82015250565b5f611c58601183611791565b9150611c6382611c24565b602082019050919050565b5f6020820190508181035f830152611c8581611c4c565b9050919050565b7f446561646c696e65206f66207468652063616d706169676e206973206e6f74205f8201527f72656163686564207965742e0000000000000000000000000000000000000000602082015250565b5f611ce6602c83611791565b9150611cf182611c8c565b604082019050919050565b5f6020820190508181035f830152611d1381611cda565b9050919050565b5f81905092915050565b5f819050815f5260205f209050919050565b5f8154611d4281611b8c565b611d4c8186611d1a565b9450600182165f8114611d665760018114611d7b57611dad565b60ff1983168652811515820286019350611dad565b611d8485611d24565b5f5b83811015611da557815481890152600182019150602081019050611d86565b838801955050505b50505092915050565b5f611dc18284611d36565b915081905092915050565b7f4e487b71000000000000000000000000000000000000000000000000000000005f52601160045260245ffd5b5f611e038261163a565b9150611e0e8361163a565b9250828201905080821115611e2657611e25611dcc565b5b92915050565b5f6020601f8301049050919050565b5f82821b905092915050565b5f60088302611e767fffffffffffffffffffffffffffffffffffffffffffffffffffffffffffffffff82611e3b565b611e808683611e3b565b95508019841693508086168417925050509392505050565b5f819050919050565b5f611ebb611eb6611eb18461163a565b611e98565b61163a565b9050919050565b5f819050919050565b611ed483611ea1565b611ee8611ee082611ec2565b848454611e47565b825550505050565b5f90565b611efc611ef0565b611f07818484611ecb565b505050565b5b81811015611f2a57611f1f5f82611ef4565b600181019050611f0d565b5050565b601f821115611f6f57611f4081611d24565b611f4984611e2c565b81016020851015611f58578190505b611f6c611f6485611e2c565b830182611f0c565b50505b505050565b5f82821c905092915050565b5f611f8f5f1984600802611f74565b1980831691505092915050565b5f611fa78383611f80565b9150826002028217905092915050565b611fc082611787565b67ffffffffffffffff811115611fd957611fd8611937565b5b611fe38254611b8c565b611fee828285611f2e565b5f60209050601f83116001811461201f575f841561200d578287015190505b6120178582611f9c565b86555061207e565b601f19841661202d86611d24565b5f5b828110156120545784890151825560018201915060208501945060208101905061202f565b86831015612071578489015161206d601f891682611f80565b8355505b6001600288020188555050505b505050505050565b5f819050919050565b5f67ffffffffffffffff82169050919050565b5f6120bc6120b76120b284612086565b611e98565b61208f565b9050919050565b6120cc816120a2565b82525050565b5f6020820190506120e55f8301846120c3565b92915050565b7f526566756e6473206e6f7420656e61626c6564000000000000000000000000005f82015250565b5f61211f601383611791565b915061212a826120eb565b602082019050919050565b5f6020820190508181035f83015261214c81612113565b9050919050565b7f4e6f20646f6e6174696f6e20746f20726566756e6400000000000000000000005f82015250565b5f612187601583611791565b915061219282612153565b602082019050919050565b5f6020820190508181035f8301526121b48161217b565b9050919050565b5f6040820190506121ce5f83018561175f565b6121db6020830184611643565b9392505050565b7f43616d706169676e2068617320656e64656400000000000000000000000000005f82015250565b5f612216601283611791565b9150612221826121e2565b602082019050919050565b5f6020820190508181035f8301526122438161220a565b9050919050565b7f446f6e6174696f6e206d7573742062652067726561746572207468616e2030005f82015250565b5f61227e601f83611791565b91506122898261224a565b602082019050919050565b5f6020820190508181035f8301526122ab81612272565b9050919050565b5f6122bc8261163a565b91506122c78361163a565b92508282026122d58161163a565b915082820484148315176122ec576122eb611dcc565b5b5092915050565b5f6040820190506123065f83018561175f565b6123136020830184611875565b939250505056fea2646970667358221220cb7d952f8ddd485a856625d352bf16e00f2a975d967d56b1c1776bdceba8296564736f6c63430008190033","linkReferences":{}},"methodIdentifiers":{"DEFAULT_ADMIN_ROLE()":"a217fddf","FACTORY_ADMIN()":"28a854e6","claimRefund()":"b5545a3c","creator()":"02d05d3f","deactivate()":"51b42b00","deactivated()":"556ed30e","deadline()":"29dcb0cf","donate()":"ed88c68e","donations(address)":"cc6cb19a","finalize()":"4bb278f3","fundingGoal()":"7a3a0e84","getRoleAdmin(bytes32)":"248a9ca3","grantRole(bytes32,address)":"2f2ff15d","hasRole(bytes32,address)":"91d14854","initialize(address,uint256,uint256,address,address,string)":"8163ac55","name()":"06fdde03","renounceRole(bytes32,address)":"36568abe","revokeRole(bytes32,address)":"d547741f","rewardToken()":"f7c618c1","state()":"c19d93fb","supportsInterface(bytes4)":"01ffc9a7","totalDonated()":"00b37044","treasury()":"61d027b3","version()":"54fd4d50"},"id":61}