{"abi":[{"type":"function","name":"DEFAULT_ADMIN_ROLE","inputs":[],"outputs":[{"name":"","type":"bytes32","internalType":"bytes32"}],"stateMutability":"view"},{"type":"function","name":"FACTORY_ADMIN","inputs":[],"outputs":[{"name":"","type":"bytes32","internalType":"bytes32"}],"stateMutability":"view"},{"type":"function","name":"claimRefund","inputs":[],"outputs":[],"stateMutability":"nonpayable"},{"type":"function","name":"creator","inputs":[],"outputs":[{"name":"","type":"address","internalType":"address"}],"stateMutability":"view"},{"type":"function","name":"deactivate","inputs":[],"outputs":[],"stateMutability":"nonpayable"},{"type":"function","name":"deactivated","inputs":[],"outputs":[{"name":"","type":"bool","internalType":"bool"}],"stateMutability":"view"},{"type":"function","name":"deadline","inputs":[],"outputs":[{"name":"","type":"uint256","internalType":"uint256"}],"stateMutability":"view"},{"type":"function","name":"donate","inputs":[],"outputs":[],"stateMutability":"payable"},{"type":"function","name":"donations","inputs":[{"name":"","type":"address","internalType":"address"}],"outputs":[{"name":"","type":"uint256","internalType":"uint256"}],"stateMutability":"view"},{"type":"function","name":"finalize","inputs":[],"outputs":[],"stateMutability":"nonpayable"},{"type":"function","name":"fundingGoal","inputs":[],"outputs":[{"name":"","type":"uint256","internalType":"uint256"}],"stateMutability":"view"},{"type":"function","name":"getRoleAdmin","inputs":[{"name":"role","type":"bytes32","internalType":"bytes32"}],"outputs":[{"name":"","type":"bytes32","internalType":"bytes32"}],"stateMutability":"view"},{"type":"function","name":"grantRole","inputs":[{"name":"role","type":"bytes32","internalType":"bytes32"},{"name":"account","type":"address","internalType":"address"}],"outputs":[],"stateMutability":"nonpayable"},{"type":"function","name":"hasRole","inputs":[{"name":"role","type":"bytes32","internalType":"bytes32"},{"name":"account","type":"address","internalType":"address"}],"outputs":[{"name":"","type":"bool","internalType":"bool"}],"stateMutability":"view"},{"type":"function","name":"initialize","inputs":[{"name":"_creator","type":"address","internalType":"address"},{"name":"_fundingGoal","type":"uint256","internalType":"uint256"},{"name":"_duration","type":"uint256","internalType":"uint256"},{"name":"_treasury","type":"address","internalType":"address"},{"name":"_rewardToken","type":"address","internalType":"address"},{"name":"_name","type":"string","internalType":"string"}],"outputs":[],"stateMutability":"nonpayable"},{"type":"function","name":"name","inputs":[],"outputs":[{"name":"","type":"string","internalType":"string"}],"stateMutability":"view"},{"type":"function","name":"renounceRole","inputs":[{"name":"role","type":"bytes32","internalType":"bytes32"},{"name":"callerConfirmation","type":"address","internalType":"address"}],"outputs":[],"stateMutability":"nonpayable"},{"type":"function","name":"revokeRole","inputs":[{"name":"role","type":"bytes32","internalType":"bytes32"},{"name":"account","type":"address","internalType":"address"}],"outputs":[],"stateMutability":"nonpayable"},{"type":"function","name":"rewardToken","inputs":[],"outputs":[{"name":"","type":"address","internalType":"address"}],"stateMutability":"view"},{"type":"function","name":"state","inputs":[],"outputs":[{"name":"","type":"uint8","internalType":"uint8"}],"stateMutability":"view"},{"type":"function","name":"supportsInterface","inputs":[{"name":"interfaceId","type":"bytes4","internalType":"bytes4"}],"outputs":[{"name":"","type":"bool","internalType":"bool"}],"stateMutability":"view"},{"type":"function","name":"totalDonated","inputs":[],"outputs":[{"name":"","type":"uint256","internalType":"uint256"}],"stateMutability":"view"},{"type":"function","name":"treasury","inputs":[],"outputs":[{"name":"","type":"address","internalType":"address"}],"stateMutability":"view"},{"type":"event","name":"CampaignDeactivated","inputs":[{"name":"campaignAddress","type":"address","indexed":true,"internalType":"address"},{"name":"ownedBy","type":"address","indexed":true,"internalType":"address"},{"name":"name","type":"string","indexed":true,"internalType":"string"}],"anonymous":false},{"type":"event","name":"Initialized","inputs":[{"name":"version","type":"uint64","indexed":false,"internalType":"uint64"}],"anonymous":false},{"type":"event","name":"RoleAdminChanged","inputs":[{"name":"role","type":"bytes32","indexed":true,"internalType":"bytes32"},{"name":"previousAdminRole","type":"bytes32","indexed":true,"internalType":"bytes32"},{"name":"newAdminRole","type":"bytes32","indexed":true,"internalType":"bytes32"}],"anonymous":false},{"type":"event","name":"RoleGranted","inputs":[{"name":"role","type":"bytes32","indexed":true,"internalType":"bytes32"},{"name":"account","type":"address","indexed":true,"internalType":"address"},{"name":"sender","type":"address","indexed":true,"internalType":"address"}],"anonymous":false},{"type":"event","name":"RoleRevoked","inputs":[{"name":"role","type":"bytes32","indexed":true,"internalType":"bytes32"},{"name":"account","type":"address","indexed":true,"internalType":"address"},{"name":"sender","type":"address","indexed":true,"internalType":"address"}],"anonymous":false},{"type":"error","name":"AccessControlBadConfirmation","inputs":[]},{"type":"error","name":"AccessControlUnauthorizedAccount","inputs":[{"name":"account","type":"address","internalType":"address"},{"name":"neededRole","type":"bytes32","internalType":"bytes32"}]},{"type":"error","name":"InvalidInitialization","inputs":[]},{"type":"error","name":"NotInitializing","inputs":[]},{"type":"error","name":"ReentrancyGuardReentrantCall","inputs":[]}],"bytecode":{"object":"0x6080604052348015600e575f80fd5b5060016029601f603360201b60201c565b605c60201b60201c565b5f01819055506065565b5f7f9b779b17422d0df92223018b32b4d1fa46e071723d6817e2486d003becc55f005f1b905090565b5f819050919050565b612313806100725f395ff3fe60806040526004361061013e575f3560e01c8063556ed30e116100b5578063b5545a3c1161006e578063b5545a3c14610414578063c19d93fb1461042a578063cc6cb19a14610454578063d547741f14610490578063ed88c68e146104b8578063f7c618c1146104c25761013e565b8063556ed30e1461030857806361d027b3146103325780637a3a0e841461035c5780638163ac551461038657806391d14854146103ae578063a217fddf146103ea5761013e565b806328a854e61161010757806328a854e61461023857806329dcb0cf146102625780632f2ff15d1461028c57806336568abe146102b45780634bb278f3146102dc57806351b42b00146102f25761013e565b8062b370441461014257806301ffc9a71461016c57806302d05d3f146101a857806306fdde03146101d2578063248a9ca3146101fc575b5f80fd5b34801561014d575f80fd5b506101566104ec565b6040516101639190611615565b60405180910390f35b348015610177575f80fd5b50610192600480360381019061018d9190611694565b6104f2565b60405161019f91906116d9565b60405180910390f35b3480156101b3575f80fd5b506101bc61056b565b6040516101c99190611731565b60405180910390f35b3480156101dd575f80fd5b506101e661058e565b6040516101f391906117ba565b60405180910390f35b348015610207575f80fd5b50610222600480360381019061021d919061180d565b61061a565b60405161022f9190611847565b60405180910390f35b348015610243575f80fd5b5061024c610644565b6040516102599190611847565b60405180910390f35b34801561026d575f80fd5b50610276610668565b6040516102839190611615565b60405180910390f35b348015610297575f80fd5b506102b260048036038101906102ad919061188a565b61066e565b005b3480156102bf575f80fd5b506102da60048036038101906102d5919061188a565b610690565b005b3480156102e7575f80fd5b506102f061070b565b005b3480156102fd575f80fd5b506103066108c7565b005b348015610313575f80fd5b5061031c6109b9565b60405161032991906116d9565b60405180910390f35b34801561033d575f80fd5b506103466109cc565b6040516103539190611731565b60405180910390f35b348015610367575f80fd5b506103706109f1565b60405161037d9190611615565b60405180910390f35b348015610391575f80fd5b506103ac60048036038101906103a79190611a1e565b6109f7565b005b3480156103b9575f80fd5b506103d460048036038101906103cf919061188a565b610cb7565b6040516103e191906116d9565b60405180910390f35b3480156103f5575f80fd5b506103fe610d28565b60405161040b9190611847565b60405180910390f35b34801561041f575f80fd5b50610428610d2e565b005b348015610435575f80fd5b5061043e610ef3565b60405161044b9190611ade565b60405180910390f35b34801561045f575f80fd5b5061047a60048036038101906104759190611af7565b610f05565b6040516104879190611615565b60405180910390f35b34801561049b575f80fd5b506104b660048036038101906104b1919061188a565b610f1a565b005b6104c0610f3c565b005b3480156104cd575f80fd5b506104d6611152565b6040516104e39190611731565b60405180910390f35b60075481565b5f7f7965db0b000000000000000000000000000000000000000000000000000000007bffffffffffffffffffffffffffffffffffffffffffffffffffffffff1916827bffffffffffffffffffffffffffffffffffffffffffffffffffffffff19161480610564575061056382611177565b5b9050919050565b5f8054906101000a900473ffffffffffffffffffffffffffffffffffffffff1681565b6005805461059b90611b4f565b80601f01602080910402602001604051908101604052809291908181526020018280546105c790611b4f565b80156106125780601f106105e957610100808354040283529160200191610612565b820191905f5260205f20905b8154815290600101906020018083116105f557829003601f168201915b505050505081565b5f806106246111e0565b9050805f015f8481526020019081526020015f2060010154915050919050565b7f334e4ff29b2b33ea01e68e72a933a3c413941d8539341b73a9bd86a2ae4d12f681565b60025481565b6106778261061a565b61068081611207565b61068a838361121b565b50505050565b610698611313565b73ffffffffffffffffffffffffffffffffffffffff168173ffffffffffffffffffffffffffffffffffffffff16146106fc576040517f6697b23200000000000000000000000000000000000000000000000000000000815260040160405180910390fd5b610706828261131a565b505050565b600254421015610750576040517f08c379a000000000000000000000000000000000000000000000000000000000815260040161074790611bc9565b60405180910390fd5b610775600160065f9054906101000a900460ff1660ff1661141290919063ffffffff16565b6107b4576040517f08c379a00000000000000000000000000000000000000000000000000000000081526004016107ab90611c31565b60405180910390fd5b6107d9600160065f9054906101000a900460ff1660ff1661142490919063ffffffff16565b60065f6101000a81548160ff021916908360ff1602179055506001546007541061084057610822600260065f9054906101000a900460ff1660ff1661143190919063ffffffff16565b60065f6101000a81548160ff021916908360ff1602179055506108bd565b610865600460065f9054906101000a900460ff1660ff1661143190919063ffffffff16565b60065f6101000a81548160ff021916908360ff1602179055506108a3600860065f9054906101000a900460ff1660ff1661143190919063ffffffff16565b60065f6101000a81548160ff021916908360ff1602179055505b6108c56108c7565b565b60025442101561090c576040517f08c379a000000000000000000000000000000000000000000000000000000000815260040161090390611cbf565b60405180910390fd5b6001600660016101000a81548160ff02191690831515021790555060056040516109369190611d79565b60405180910390205f8054906101000a900473ffffffffffffffffffffffffffffffffffffffff1673ffffffffffffffffffffffffffffffffffffffff163073ffffffffffffffffffffffffffffffffffffffff167f5ba1435f15f3ccf814453e676a014e560c4b0513a29ff6051995b977cf31e06c60405160405180910390a4565b600660019054906101000a900460ff1681565b60035f9054906101000a900473ffffffffffffffffffffffffffffffffffffffff1681565b60015481565b5f610a0061143d565b90505f815f0160089054906101000a900460ff161590505f825f015f9054906101000a900467ffffffffffffffff1690505f808267ffffffffffffffff16148015610a485750825b90505f60018367ffffffffffffffff16148015610a7b57505f3073ffffffffffffffffffffffffffffffffffffffff163b145b905081158015610a89575080155b15610ac0576040517ff92ee8a900000000000000000000000000000000000000000000000000000000815260040160405180910390fd5b6001855f015f6101000a81548167ffffffffffffffff021916908367ffffffffffffffff1602179055508315610b0d576001855f0160086101000a81548160ff0219169083151502179055505b610b15611450565b610b215f801b8c61121b565b50610b4c7f334e4ff29b2b33ea01e68e72a933a3c413941d8539341b73a9bd86a2ae4d12f63361121b565b508a5f806101000a81548173ffffffffffffffffffffffffffffffffffffffff021916908373ffffffffffffffffffffffffffffffffffffffff160217905550896001819055508842610b9f9190611dbc565b6002819055508760035f6101000a81548173ffffffffffffffffffffffffffffffffffffffff021916908373ffffffffffffffffffffffffffffffffffffffff1602179055508660045f6101000a81548173ffffffffffffffffffffffffffffffffffffffff021916908373ffffffffffffffffffffffffffffffffffffffff1602179055508560059081610c349190611f7a565b50600160065f6101000a81548160ff021916908360ff1602179055508315610caa575f855f0160086101000a81548160ff0219169083151502179055507fc7f505b2f371ae2175ee4913f4499e1f2633a7b5936321eed1cdaeb6115181d26001604051610ca19190612095565b60405180910390a15b5050505050505050505050565b5f80610cc16111e0565b9050805f015f8581526020019081526020015f205f015f8473ffffffffffffffffffffffffffffffffffffffff1673ffffffffffffffffffffffffffffffffffffffff1681526020019081526020015f205f9054906101000a900460ff1691505092915050565b5f801b81565b610d3661145a565b610d5b600860065f9054906101000a900460ff1660ff1661141290919063ffffffff16565b610d9a576040517f08c379a0000000000000000000000000000000000000000000000000000000008152600401610d91906120f8565b60405180910390fd5b5f60085f3373ffffffffffffffffffffffffffffffffffffffff1673ffffffffffffffffffffffffffffffffffffffff1681526020019081526020015f205490505f8111610e1d576040517f08c379a0000000000000000000000000000000000000000000000000000000008152600401610e1490612160565b60405180910390fd5b5f60085f3373ffffffffffffffffffffffffffffffffffffffff1673ffffffffffffffffffffffffffffffffffffffff1681526020019081526020015f208190555060035f9054906101000a900473ffffffffffffffffffffffffffffffffffffffff1673ffffffffffffffffffffffffffffffffffffffff1663410085df33836040518363ffffffff1660e01b8152600401610ebb92919061217e565b5f604051808303815f87803b158015610ed2575f80fd5b505af1158015610ee4573d5f803e3d5ffd5b5050505050610ef161147c565b565b60065f9054906101000a900460ff1681565b6008602052805f5260405f205f915090505481565b610f238261061a565b610f2c81611207565b610f36838361131a565b50505050565b610f4461145a565b6002544210610f88576040517f08c379a0000000000000000000000000000000000000000000000000000000008152600401610f7f906121ef565b60405180910390fd5b5f3411610fca576040517f08c379a0000000000000000000000000000000000000000000000000000000008152600401610fc190612257565b60405180910390fd5b3460085f3373ffffffffffffffffffffffffffffffffffffffff1673ffffffffffffffffffffffffffffffffffffffff1681526020019081526020015f205f8282546110169190611dbc565b925050819055503460075f82825461102e9190611dbc565b9250508190555060035f9054906101000a900473ffffffffffffffffffffffffffffffffffffffff1673ffffffffffffffffffffffffffffffffffffffff1663d0e30db0346040518263ffffffff1660e01b81526004015f604051808303818588803b15801561109c575f80fd5b505af11580156110ae573d5f803e3d5ffd5b505050505060045f9054906101000a900473ffffffffffffffffffffffffffffffffffffffff1673ffffffffffffffffffffffffffffffffffffffff166340c10f19336014346110fe9190612275565b6040518363ffffffff1660e01b815260040161111b92919061217e565b5f604051808303815f87803b158015611132575f80fd5b505af1158015611144573d5f803e3d5ffd5b5050505061115061147c565b565b60045f9054906101000a900473ffffffffffffffffffffffffffffffffffffffff1681565b5f7f01ffc9a7000000000000000000000000000000000000000000000000000000007bffffffffffffffffffffffffffffffffffffffffffffffffffffffff1916827bffffffffffffffffffffffffffffffffffffffffffffffffffffffff1916149050919050565b5f7f02dd7bc7dec4dceedda775e58dd541e08a116c6c53815c0bd028192f7b626800905090565b61121881611213611313565b611496565b50565b5f806112256111e0565b90506112318484610cb7565b611308576001815f015f8681526020019081526020015f205f015f8573ffffffffffffffffffffffffffffffffffffffff1673ffffffffffffffffffffffffffffffffffffffff1681526020019081526020015f205f6101000a81548160ff0219169083151502179055506112a4611313565b73ffffffffffffffffffffffffffffffffffffffff168373ffffffffffffffffffffffffffffffffffffffff16857f2f8788117e7eff1d82e926ec794901d17c78024a50270940304540a733656f0d60405160405180910390a4600191505061130d565b5f9150505b92915050565b5f33905090565b5f806113246111e0565b90506113308484610cb7565b15611407575f815f015f8681526020019081526020015f205f015f8573ffffffffffffffffffffffffffffffffffffffff1673ffffffffffffffffffffffffffffffffffffffff1681526020019081526020015f205f6101000a81548160ff0219169083151502179055506113a3611313565b73ffffffffffffffffffffffffffffffffffffffff168373ffffffffffffffffffffffffffffffffffffffff16857ff6391f5c32d9c69d2a47ea670b442974b53935d1edc7fd64eb21e047a839171b60405160405180910390a4600191505061140c565b5f9150505b92915050565b5f8082841660ff161415905092915050565b5f81198316905092915050565b5f818317905092915050565b5f806114476114e7565b90508091505090565b611458611510565b565b611462611550565b600261147461146f611591565b6115ba565b5f0181905550565b600161148e611489611591565b6115ba565b5f0181905550565b6114a08282610cb7565b6114e35780826040517fe2517d3f0000000000000000000000000000000000000000000000000000000081526004016114da9291906122b6565b60405180910390fd5b5050565b5f7ff0c57e16840df040f15088dc2f81fe391c3923bec73e23a9662efc9c229c6a005f1b905090565b6115186115c3565b61154e576040517fd7e6bcf800000000000000000000000000000000000000000000000000000000815260040160405180910390fd5b565b6115586115e1565b1561158f576040517f3ee5aeb500000000000000000000000000000000000000000000000000000000815260040160405180910390fd5b565b5f7f9b779b17422d0df92223018b32b4d1fa46e071723d6817e2486d003becc55f005f1b905090565b5f819050919050565b5f6115cc61143d565b5f0160089054906101000a900460ff16905090565b5f60026115f46115ef611591565b6115ba565b5f015414905090565b5f819050919050565b61160f816115fd565b82525050565b5f6020820190506116285f830184611606565b92915050565b5f604051905090565b5f80fd5b5f80fd5b5f7fffffffff0000000000000000000000000000000000000000000000000000000082169050919050565b6116738161163f565b811461167d575f80fd5b50565b5f8135905061168e8161166a565b92915050565b5f602082840312156116a9576116a8611637565b5b5f6116b684828501611680565b91505092915050565b5f8115159050919050565b6116d3816116bf565b82525050565b5f6020820190506116ec5f8301846116ca565b92915050565b5f73ffffffffffffffffffffffffffffffffffffffff82169050919050565b5f61171b826116f2565b9050919050565b61172b81611711565b82525050565b5f6020820190506117445f830184611722565b92915050565b5f81519050919050565b5f82825260208201905092915050565b8281835e5f83830152505050565b5f601f19601f8301169050919050565b5f61178c8261174a565b6117968185611754565b93506117a6818560208601611764565b6117af81611772565b840191505092915050565b5f6020820190508181035f8301526117d28184611782565b905092915050565b5f819050919050565b6117ec816117da565b81146117f6575f80fd5b50565b5f81359050611807816117e3565b92915050565b5f6020828403121561182257611821611637565b5b5f61182f848285016117f9565b91505092915050565b611841816117da565b82525050565b5f60208201905061185a5f830184611838565b92915050565b61186981611711565b8114611873575f80fd5b50565b5f8135905061188481611860565b92915050565b5f80604083850312156118a05761189f611637565b5b5f6118ad858286016117f9565b92505060206118be85828601611876565b9150509250929050565b6118d1816115fd565b81146118db575f80fd5b50565b5f813590506118ec816118c8565b92915050565b5f80fd5b5f80fd5b7f4e487b71000000000000000000000000000000000000000000000000000000005f52604160045260245ffd5b61193082611772565b810181811067ffffffffffffffff8211171561194f5761194e6118fa565b5b80604052505050565b5f61196161162e565b905061196d8282611927565b919050565b5f67ffffffffffffffff82111561198c5761198b6118fa565b5b61199582611772565b9050602081019050919050565b828183375f83830152505050565b5f6119c26119bd84611972565b611958565b9050828152602081018484840111156119de576119dd6118f6565b5b6119e98482856119a2565b509392505050565b5f82601f830112611a0557611a046118f2565b5b8135611a158482602086016119b0565b91505092915050565b5f805f805f8060c08789031215611a3857611a37611637565b5b5f611a4589828a01611876565b9650506020611a5689828a016118de565b9550506040611a6789828a016118de565b9450506060611a7889828a01611876565b9350506080611a8989828a01611876565b92505060a087013567ffffffffffffffff811115611aaa57611aa961163b565b5b611ab689828a016119f1565b9150509295509295509295565b5f60ff82169050919050565b611ad881611ac3565b82525050565b5f602082019050611af15f830184611acf565b92915050565b5f60208284031215611b0c57611b0b611637565b5b5f611b1984828501611876565b91505092915050565b7f4e487b71000000000000000000000000000000000000000000000000000000005f52602260045260245ffd5b5f6002820490506001821680611b6657607f821691505b602082108103611b7957611b78611b22565b5b50919050565b7f43616d706169676e207374696c6c2061637469766500000000000000000000005f82015250565b5f611bb3601583611754565b9150611bbe82611b7f565b602082019050919050565b5f6020820190508181035f830152611be081611ba7565b9050919050565b7f416c72656164792066696e616c697a65640000000000000000000000000000005f82015250565b5f611c1b601183611754565b9150611c2682611be7565b602082019050919050565b5f6020820190508181035f830152611c4881611c0f565b9050919050565b7f446561646c696e65206f66207468652063616d706169676e206973206e6f74205f8201527f72656163686564207965742e0000000000000000000000000000000000000000602082015250565b5f611ca9602c83611754565b9150611cb482611c4f565b604082019050919050565b5f6020820190508181035f830152611cd681611c9d565b9050919050565b5f81905092915050565b5f819050815f5260205f209050919050565b5f8154611d0581611b4f565b611d0f8186611cdd565b9450600182165f8114611d295760018114611d3e57611d70565b60ff1983168652811515820286019350611d70565b611d4785611ce7565b5f5b83811015611d6857815481890152600182019150602081019050611d49565b838801955050505b50505092915050565b5f611d848284611cf9565b915081905092915050565b7f4e487b71000000000000000000000000000000000000000000000000000000005f52601160045260245ffd5b5f611dc6826115fd565b9150611dd1836115fd565b9250828201905080821115611de957611de8611d8f565b5b92915050565b5f6020601f8301049050919050565b5f82821b905092915050565b5f60088302611e397fffffffffffffffffffffffffffffffffffffffffffffffffffffffffffffffff82611dfe565b611e438683611dfe565b95508019841693508086168417925050509392505050565b5f819050919050565b5f611e7e611e79611e74846115fd565b611e5b565b6115fd565b9050919050565b5f819050919050565b611e9783611e64565b611eab611ea382611e85565b848454611e0a565b825550505050565b5f90565b611ebf611eb3565b611eca818484611e8e565b505050565b5b81811015611eed57611ee25f82611eb7565b600181019050611ed0565b5050565b601f821115611f3257611f0381611ce7565b611f0c84611def565b81016020851015611f1b578190505b611f2f611f2785611def565b830182611ecf565b50505b505050565b5f82821c905092915050565b5f611f525f1984600802611f37565b1980831691505092915050565b5f611f6a8383611f43565b9150826002028217905092915050565b611f838261174a565b67ffffffffffffffff811115611f9c57611f9b6118fa565b5b611fa68254611b4f565b611fb1828285611ef1565b5f60209050601f831160018114611fe2575f8415611fd0578287015190505b611fda8582611f5f565b865550612041565b601f198416611ff086611ce7565b5f5b8281101561201757848901518255600182019150602085019450602081019050611ff2565b868310156120345784890151612030601f891682611f43565b8355505b6001600288020188555050505b505050505050565b5f819050919050565b5f67ffffffffffffffff82169050919050565b5f61207f61207a61207584612049565b611e5b565b612052565b9050919050565b61208f81612065565b82525050565b5f6020820190506120a85f830184612086565b92915050565b7f526566756e6473206e6f7420656e61626c6564000000000000000000000000005f82015250565b5f6120e2601383611754565b91506120ed826120ae565b602082019050919050565b5f6020820190508181035f83015261210f816120d6565b9050919050565b7f4e6f20646f6e6174696f6e20746f20726566756e6400000000000000000000005f82015250565b5f61214a601583611754565b915061215582612116565b602082019050919050565b5f6020820190508181035f8301526121778161213e565b9050919050565b5f6040820190506121915f830185611722565b61219e6020830184611606565b9392505050565b7f43616d706169676e2068617320656e64656400000000000000000000000000005f82015250565b5f6121d9601283611754565b91506121e4826121a5565b602082019050919050565b5f6020820190508181035f830152612206816121cd565b9050919050565b7f446f6e6174696f6e206d7573742062652067726561746572207468616e2030005f82015250565b5f612241601f83611754565b915061224c8261220d565b602082019050919050565b5f6020820190508181035f83015261226e81612235565b9050919050565b5f61227f826115fd565b915061228a836115fd565b9250828202612298816115fd565b915082820484148315176122af576122ae611d8f565b5b5092915050565b5f6040820190506122c95f830185611722565b6122d66020830184611838565b939250505056fea2646970667358221220eebe836cd74768323470fac2e0152af8d5491e4281c48d68bdcd4c3aa92e1c5064736f6c63430008190033","linkReferences":{}},"methodIdentifiers":{"DEFAULT_ADMIN_ROLE()":"a217fddf","FACTORY_ADMIN()":"28a854e6","claimRefund()":"b5545a3c","creator()":"02d05d3f","deactivate()":"51b42b00","deactivated()":"556ed30e","deadline()":"29dcb0cf","donate()":"ed88c68e","donations(address)":"cc6cb19a","finalize()":"4bb278f3","fundingGoal()":"7a3a0e84","getRoleAdmin(bytes32)":"248a9ca3","grantRole(bytes32,address)":"2f2ff15d","hasRole(bytes32,address)":"91d14854","initialize(address,uint256,uint256,address,address,string)":"8163ac55","name()":"06fdde03","renounceRole(bytes32,address)":"36568abe","revokeRole(bytes32,address)":"d547741f","rewardToken()":"f7c618c1","state()":"c19d93fb","supportsInterface(bytes4)":"01ffc9a7","totalDonated()":"00b37044","treasury()":"61d027b3"},"id":57}